{
	"contracts/Contract.sol": {
		"Contract": {
			"abi": [
				{
					"inputs": [],
					"stateMutability": "nonpayable",
					"type": "constructor"
				},
				{
					"inputs": [
						{
							"internalType": "uint256",
							"name": "",
							"type": "uint256"
						}
					],
					"name": "Dr_ids",
					"outputs": [
						{
							"internalType": "address",
							"name": "",
							"type": "address"
						}
					],
					"stateMutability": "view",
					"type": "function"
				},
				{
					"inputs": [
						{
							"internalType": "uint256",
							"name": "",
							"type": "uint256"
						}
					],
					"name": "Patient_ids",
					"outputs": [
						{
							"internalType": "address",
							"name": "",
							"type": "address"
						}
					],
					"stateMutability": "view",
					"type": "function"
				},
				{
					"inputs": [
						{
							"internalType": "uint256",
							"name": "",
							"type": "uint256"
						}
					],
					"name": "RecordHashes",
					"outputs": [
						{
							"internalType": "string",
							"name": "",
							"type": "string"
						}
					],
					"stateMutability": "view",
					"type": "function"
				},
				{
					"inputs": [
						{
							"internalType": "address",
							"name": "_newdr",
							"type": "address"
						}
					],
					"name": "addDoctor",
					"outputs": [],
					"stateMutability": "nonpayable",
					"type": "function"
				},
				{
					"inputs": [
						{
							"internalType": "address",
							"name": "dr_id",
							"type": "address"
						},
						{
							"internalType": "string",
							"name": "_drInfo_hash",
							"type": "string"
						}
					],
					"name": "addDrInfo",
					"outputs": [],
					"stateMutability": "nonpayable",
					"type": "function"
				},
				{
					"inputs": [
						{
							"internalType": "string",
							"name": "_recHash",
							"type": "string"
						},
						{
							"internalType": "address",
							"name": "_pat_id",
							"type": "address"
						}
					],
					"name": "addMedRecord",
					"outputs": [],
					"stateMutability": "nonpayable",
					"type": "function"
				},
				{
					"inputs": [
						{
							"internalType": "address",
							"name": "pat_id",
							"type": "address"
						},
						{
							"internalType": "string",
							"name": "_patInfoHash",
							"type": "string"
						}
					],
					"name": "addPatInfo",
					"outputs": [],
					"stateMutability": "nonpayable",
					"type": "function"
				},
				{
					"inputs": [
						{
							"internalType": "address",
							"name": "_newpatient",
							"type": "address"
						}
					],
					"name": "addPatient",
					"outputs": [],
					"stateMutability": "nonpayable",
					"type": "function"
				},
				{
					"inputs": [
						{
							"internalType": "address",
							"name": "_patid",
							"type": "address"
						}
					],
					"name": "addRec",
					"outputs": [],
					"stateMutability": "nonpayable",
					"type": "function"
				},
				{
					"inputs": [
						{
							"internalType": "address",
							"name": "_accid",
							"type": "address"
						}
					],
					"name": "delDr",
					"outputs": [],
					"stateMutability": "nonpayable",
					"type": "function"
				},
				{
					"inputs": [
						{
							"internalType": "address",
							"name": "_accid",
							"type": "address"
						}
					],
					"name": "delPat",
					"outputs": [],
					"stateMutability": "nonpayable",
					"type": "function"
				},
				{
					"inputs": [],
					"name": "get",
					"outputs": [
						{
							"internalType": "address",
							"name": "",
							"type": "address"
						}
					],
					"stateMutability": "view",
					"type": "function"
				},
				{
					"inputs": [],
					"name": "getAdmin",
					"outputs": [
						{
							"internalType": "address",
							"name": "",
							"type": "address"
						}
					],
					"stateMutability": "view",
					"type": "function"
				},
				{
					"inputs": [
						{
							"internalType": "uint256",
							"name": "i",
							"type": "uint256"
						}
					],
					"name": "getAllDrs",
					"outputs": [
						{
							"internalType": "address",
							"name": "",
							"type": "address"
						}
					],
					"stateMutability": "view",
					"type": "function"
				},
				{
					"inputs": [],
					"name": "getDoctorCount",
					"outputs": [
						{
							"internalType": "uint256",
							"name": "",
							"type": "uint256"
						}
					],
					"stateMutability": "view",
					"type": "function"
				},
				{
					"inputs": [
						{
							"internalType": "address",
							"name": "_id",
							"type": "address"
						}
					],
					"name": "getDr",
					"outputs": [
						{
							"internalType": "string",
							"name": "",
							"type": "string"
						}
					],
					"stateMutability": "view",
					"type": "function"
				},
				{
					"inputs": [],
					"name": "getDrInfo",
					"outputs": [
						{
							"internalType": "string",
							"name": "",
							"type": "string"
						}
					],
					"stateMutability": "view",
					"type": "function"
				},
				{
					"inputs": [
						{
							"internalType": "address",
							"name": "iD",
							"type": "address"
						}
					],
					"name": "getPatInfo",
					"outputs": [
						{
							"internalType": "string",
							"name": "",
							"type": "string"
						}
					],
					"stateMutability": "view",
					"type": "function"
				},
				{
					"inputs": [],
					"name": "get_drtid",
					"outputs": [
						{
							"internalType": "address",
							"name": "",
							"type": "address"
						}
					],
					"stateMutability": "view",
					"type": "function"
				},
				{
					"inputs": [],
					"name": "get_patid",
					"outputs": [
						{
							"internalType": "address",
							"name": "",
							"type": "address"
						}
					],
					"stateMutability": "view",
					"type": "function"
				},
				{
					"inputs": [
						{
							"internalType": "address",
							"name": "id",
							"type": "address"
						}
					],
					"name": "isDr",
					"outputs": [
						{
							"internalType": "string",
							"name": "",
							"type": "string"
						}
					],
					"stateMutability": "view",
					"type": "function"
				},
				{
					"inputs": [
						{
							"internalType": "address",
							"name": "id",
							"type": "address"
						}
					],
					"name": "isPat",
					"outputs": [
						{
							"internalType": "string",
							"name": "",
							"type": "string"
						}
					],
					"stateMutability": "view",
					"type": "function"
				},
				{
					"inputs": [
						{
							"internalType": "address",
							"name": "_id",
							"type": "address"
						}
					],
					"name": "search",
					"outputs": [],
					"stateMutability": "nonpayable",
					"type": "function"
				},
				{
					"inputs": [
						{
							"internalType": "address",
							"name": "dr_id",
							"type": "address"
						},
						{
							"internalType": "string",
							"name": "_drInfo_hash",
							"type": "string"
						}
					],
					"name": "updateInfo",
					"outputs": [],
					"stateMutability": "nonpayable",
					"type": "function"
				},
				{
					"inputs": [],
					"name": "viewMedRec",
					"outputs": [
						{
							"internalType": "string",
							"name": "",
							"type": "string"
						}
					],
					"stateMutability": "view",
					"type": "function"
				},
				{
					"inputs": [
						{
							"internalType": "address",
							"name": "_patid",
							"type": "address"
						}
					],
					"name": "viewPatRec",
					"outputs": [],
					"stateMutability": "nonpayable",
					"type": "function"
				}
			],
			"devdoc": {
				"kind": "dev",
				"methods": {},
				"version": 1
			},
			"evm": {
				"assembly": "    /* \"contracts/Contract.sol\":51:4560  contract Contract{... */\n  mstore(0x40, 0x80)\n    /* \"contracts/Contract.sol\":673:760  constructor() public{... */\n  callvalue\n  dup1\n  iszero\n  tag_1\n  jumpi\n  0x00\n  dup1\n  revert\ntag_1:\n  pop\n    /* \"contracts/Contract.sol\":714:724  msg.sender */\n  caller\n    /* \"contracts/Contract.sol\":703:711  admin_id */\n  0x0a\n  0x00\n    /* \"contracts/Contract.sol\":703:724  admin_id = msg.sender */\n  0x0100\n  exp\n  dup2\n  sload\n  dup2\n  0xffffffffffffffffffffffffffffffffffffffff\n  mul\n  not\n  and\n  swap1\n  dup4\n  0xffffffffffffffffffffffffffffffffffffffff\n  and\n  mul\n  or\n  swap1\n  sstore\n  pop\n    /* \"contracts/Contract.sol\":734:753  admin.add(admin_id) */\n  tag_4\n    /* \"contracts/Contract.sol\":744:752  admin_id */\n  0x0a\n  0x00\n  swap1\n  sload\n  swap1\n  0x0100\n  exp\n  swap1\n  div\n  0xffffffffffffffffffffffffffffffffffffffff\n  and\n    /* \"contracts/Contract.sol\":734:739  admin */\n  0x00\n    /* \"contracts/Contract.sol\":734:743  admin.add */\n  or(tag_0_127, shl(0x20, tag_5))\n  swap1\n    /* \"contracts/Contract.sol\":734:753  admin.add(admin_id) */\n  swap2\n  swap1\n  0x20\n  shr\n  jump\t// in\ntag_4:\n    /* \"contracts/Contract.sol\":51:4560  contract Contract{... */\n  jump(tag_6)\n    /* \"contracts/Roles.sol\":293:468  function add(Role storage role, address account) internal {... */\ntag_5:\n    /* \"contracts/Roles.sol\":370:388  has(role, account) */\n  tag_8\n    /* \"contracts/Roles.sol\":374:378  role */\n  dup3\n    /* \"contracts/Roles.sol\":380:387  account */\n  dup3\n    /* \"contracts/Roles.sol\":370:373  has */\n  shl(0x20, tag_9)\n    /* \"contracts/Roles.sol\":370:388  has(role, account) */\n  0x20\n  shr\n  jump\t// in\ntag_8:\n    /* \"contracts/Roles.sol\":369:388  !has(role, account) */\n  iszero\n    /* \"contracts/Roles.sol\":361:424  require(!has(role, account), \"Roles: account already has role\") */\n  tag_10\n  jumpi\n  mload(0x40)\n  0x08c379a000000000000000000000000000000000000000000000000000000000\n  dup2\n  mstore\n  0x04\n  add\n  tag_11\n  swap1\n  tag_12\n  jump\t// in\ntag_11:\n  mload(0x40)\n  dup1\n  swap2\n  sub\n  swap1\n  revert\ntag_10:\n    /* \"contracts/Roles.sol\":457:461  true */\n  0x01\n    /* \"contracts/Roles.sol\":434:438  role */\n  dup3\n    /* \"contracts/Roles.sol\":434:445  role.bearer */\n  0x00\n  add\n    /* \"contracts/Roles.sol\":434:454  role.bearer[account] */\n  0x00\n    /* \"contracts/Roles.sol\":446:453  account */\n  dup4\n    /* \"contracts/Roles.sol\":434:454  role.bearer[account] */\n  0xffffffffffffffffffffffffffffffffffffffff\n  and\n  0xffffffffffffffffffffffffffffffffffffffff\n  and\n  dup2\n  mstore\n  0x20\n  add\n  swap1\n  dup2\n  mstore\n  0x20\n  add\n  0x00\n  keccak256\n  0x00\n    /* \"contracts/Roles.sol\":434:461  role.bearer[account] = true */\n  0x0100\n  exp\n  dup2\n  sload\n  dup2\n  0xff\n  mul\n  not\n  and\n  swap1\n  dup4\n  iszero\n  iszero\n  mul\n  or\n  swap1\n  sstore\n  pop\n    /* \"contracts/Roles.sol\":293:468  function add(Role storage role, address account) internal {... */\n  pop\n  pop\n  jump\t// out\n    /* \"contracts/Roles.sol\":812:1012  function has(Role storage role, address account) internal view returns (bool) {... */\ntag_9:\n    /* \"contracts/Roles.sol\":884:888  bool */\n  0x00\n    /* \"contracts/Roles.sol\":927:928  0 */\n  dup1\n    /* \"contracts/Roles.sol\":908:929  account != address(0) */\n  0xffffffffffffffffffffffffffffffffffffffff\n  and\n    /* \"contracts/Roles.sol\":908:915  account */\n  dup3\n    /* \"contracts/Roles.sol\":908:929  account != address(0) */\n  0xffffffffffffffffffffffffffffffffffffffff\n  and\n  sub\n    /* \"contracts/Roles.sol\":900:968  require(account != address(0), \"Roles: account is the zero address\") */\n  tag_14\n  jumpi\n  mload(0x40)\n  0x08c379a000000000000000000000000000000000000000000000000000000000\n  dup2\n  mstore\n  0x04\n  add\n  tag_15\n  swap1\n  tag_16\n  jump\t// in\ntag_15:\n  mload(0x40)\n  dup1\n  swap2\n  sub\n  swap1\n  revert\ntag_14:\n    /* \"contracts/Roles.sol\":985:989  role */\n  dup3\n    /* \"contracts/Roles.sol\":985:996  role.bearer */\n  0x00\n  add\n    /* \"contracts/Roles.sol\":985:1005  role.bearer[account] */\n  0x00\n    /* \"contracts/Roles.sol\":997:1004  account */\n  dup4\n    /* \"contracts/Roles.sol\":985:1005  role.bearer[account] */\n  0xffffffffffffffffffffffffffffffffffffffff\n  and\n  0xffffffffffffffffffffffffffffffffffffffff\n  and\n  dup2\n  mstore\n  0x20\n  add\n  swap1\n  dup2\n  mstore\n  0x20\n  add\n  0x00\n  keccak256\n  0x00\n  swap1\n  sload\n  swap1\n  0x0100\n  exp\n  swap1\n  div\n  0xff\n  and\n    /* \"contracts/Roles.sol\":978:1005  return role.bearer[account] */\n  swap1\n  pop\n    /* \"contracts/Roles.sol\":812:1012  function has(Role storage role, address account) internal view returns (bool) {... */\n  swap3\n  swap2\n  pop\n  pop\n  jump\t// out\n    /* \"#utility.yul\":7:176   */\ntag_17:\n    /* \"#utility.yul\":91:102   */\n  0x00\n    /* \"#utility.yul\":125:131   */\n  dup3\n    /* \"#utility.yul\":120:123   */\n  dup3\n    /* \"#utility.yul\":113:132   */\n  mstore\n    /* \"#utility.yul\":165:169   */\n  0x20\n    /* \"#utility.yul\":160:163   */\n  dup3\n    /* \"#utility.yul\":156:170   */\n  add\n    /* \"#utility.yul\":141:170   */\n  swap1\n  pop\n    /* \"#utility.yul\":7:176   */\n  swap3\n  swap2\n  pop\n  pop\n  jump\t// out\n    /* \"#utility.yul\":182:363   */\ntag_18:\n    /* \"#utility.yul\":322:355   */\n  0x526f6c65733a206163636f756e7420616c72656164792068617320726f6c6500\n    /* \"#utility.yul\":318:319   */\n  0x00\n    /* \"#utility.yul\":310:316   */\n  dup3\n    /* \"#utility.yul\":306:320   */\n  add\n    /* \"#utility.yul\":299:356   */\n  mstore\n    /* \"#utility.yul\":182:363   */\n  pop\n  jump\t// out\n    /* \"#utility.yul\":369:735   */\ntag_19:\n    /* \"#utility.yul\":511:514   */\n  0x00\n    /* \"#utility.yul\":532:599   */\n  tag_26\n    /* \"#utility.yul\":596:598   */\n  0x1f\n    /* \"#utility.yul\":591:594   */\n  dup4\n    /* \"#utility.yul\":532:599   */\n  tag_17\n  jump\t// in\ntag_26:\n    /* \"#utility.yul\":525:599   */\n  swap2\n  pop\n    /* \"#utility.yul\":608:701   */\n  tag_27\n    /* \"#utility.yul\":697:700   */\n  dup3\n    /* \"#utility.yul\":608:701   */\n  tag_18\n  jump\t// in\ntag_27:\n    /* \"#utility.yul\":726:728   */\n  0x20\n    /* \"#utility.yul\":721:724   */\n  dup3\n    /* \"#utility.yul\":717:729   */\n  add\n    /* \"#utility.yul\":710:729   */\n  swap1\n  pop\n    /* \"#utility.yul\":369:735   */\n  swap2\n  swap1\n  pop\n  jump\t// out\n    /* \"#utility.yul\":741:1160   */\ntag_12:\n    /* \"#utility.yul\":907:911   */\n  0x00\n    /* \"#utility.yul\":945:947   */\n  0x20\n    /* \"#utility.yul\":934:943   */\n  dup3\n    /* \"#utility.yul\":930:948   */\n  add\n    /* \"#utility.yul\":922:948   */\n  swap1\n  pop\n    /* \"#utility.yul\":994:1003   */\n  dup2\n    /* \"#utility.yul\":988:992   */\n  dup2\n    /* \"#utility.yul\":984:1004   */\n  sub\n    /* \"#utility.yul\":980:981   */\n  0x00\n    /* \"#utility.yul\":969:978   */\n  dup4\n    /* \"#utility.yul\":965:982   */\n  add\n    /* \"#utility.yul\":958:1005   */\n  mstore\n    /* \"#utility.yul\":1022:1153   */\n  tag_29\n    /* \"#utility.yul\":1148:1152   */\n  dup2\n    /* \"#utility.yul\":1022:1153   */\n  tag_19\n  jump\t// in\ntag_29:\n    /* \"#utility.yul\":1014:1153   */\n  swap1\n  pop\n    /* \"#utility.yul\":741:1160   */\n  swap2\n  swap1\n  pop\n  jump\t// out\n    /* \"#utility.yul\":1166:1387   */\ntag_20:\n    /* \"#utility.yul\":1306:1340   */\n  0x526f6c65733a206163636f756e7420697320746865207a65726f206164647265\n    /* \"#utility.yul\":1302:1303   */\n  0x00\n    /* \"#utility.yul\":1294:1300   */\n  dup3\n    /* \"#utility.yul\":1290:1304   */\n  add\n    /* \"#utility.yul\":1283:1341   */\n  mstore\n    /* \"#utility.yul\":1375:1379   */\n  0x7373000000000000000000000000000000000000000000000000000000000000\n    /* \"#utility.yul\":1370:1372   */\n  0x20\n    /* \"#utility.yul\":1362:1368   */\n  dup3\n    /* \"#utility.yul\":1358:1373   */\n  add\n    /* \"#utility.yul\":1351:1380   */\n  mstore\n    /* \"#utility.yul\":1166:1387   */\n  pop\n  jump\t// out\n    /* \"#utility.yul\":1393:1759   */\ntag_21:\n    /* \"#utility.yul\":1535:1538   */\n  0x00\n    /* \"#utility.yul\":1556:1623   */\n  tag_32\n    /* \"#utility.yul\":1620:1622   */\n  0x22\n    /* \"#utility.yul\":1615:1618   */\n  dup4\n    /* \"#utility.yul\":1556:1623   */\n  tag_17\n  jump\t// in\ntag_32:\n    /* \"#utility.yul\":1549:1623   */\n  swap2\n  pop\n    /* \"#utility.yul\":1632:1725   */\n  tag_33\n    /* \"#utility.yul\":1721:1724   */\n  dup3\n    /* \"#utility.yul\":1632:1725   */\n  tag_20\n  jump\t// in\ntag_33:\n    /* \"#utility.yul\":1750:1752   */\n  0x40\n    /* \"#utility.yul\":1745:1748   */\n  dup3\n    /* \"#utility.yul\":1741:1753   */\n  add\n    /* \"#utility.yul\":1734:1753   */\n  swap1\n  pop\n    /* \"#utility.yul\":1393:1759   */\n  swap2\n  swap1\n  pop\n  jump\t// out\n    /* \"#utility.yul\":1765:2184   */\ntag_16:\n    /* \"#utility.yul\":1931:1935   */\n  0x00\n    /* \"#utility.yul\":1969:1971   */\n  0x20\n    /* \"#utility.yul\":1958:1967   */\n  dup3\n    /* \"#utility.yul\":1954:1972   */\n  add\n    /* \"#utility.yul\":1946:1972   */\n  swap1\n  pop\n    /* \"#utility.yul\":2018:2027   */\n  dup2\n    /* \"#utility.yul\":2012:2016   */\n  dup2\n    /* \"#utility.yul\":2008:2028   */\n  sub\n    /* \"#utility.yul\":2004:2005   */\n  0x00\n    /* \"#utility.yul\":1993:2002   */\n  dup4\n    /* \"#utility.yul\":1989:2006   */\n  add\n    /* \"#utility.yul\":1982:2029   */\n  mstore\n    /* \"#utility.yul\":2046:2177   */\n  tag_35\n    /* \"#utility.yul\":2172:2176   */\n  dup2\n    /* \"#utility.yul\":2046:2177   */\n  tag_21\n  jump\t// in\ntag_35:\n    /* \"#utility.yul\":2038:2177   */\n  swap1\n  pop\n    /* \"#utility.yul\":1765:2184   */\n  swap2\n  swap1\n  pop\n  jump\t// out\n    /* \"contracts/Contract.sol\":51:4560  contract Contract{... */\ntag_6:\n  dataSize(sub_0)\n  dup1\n  dataOffset(sub_0)\n  0x00\n  codecopy\n  0x00\n  return\nstop\n\nsub_0: assembly {\n        /* \"contracts/Contract.sol\":51:4560  contract Contract{... */\n      mstore(0x40, 0x80)\n      callvalue\n      dup1\n      iszero\n      tag_1\n      jumpi\n      0x00\n      dup1\n      revert\n    tag_1:\n      pop\n      jumpi(tag_2, lt(calldatasize, 0x04))\n      shr(0xe0, calldataload(0x00))\n      dup1\n      0x6d4ce63c\n      gt\n      tag_29\n      jumpi\n      dup1\n      0xbe956873\n      gt\n      tag_30\n      jumpi\n      dup1\n      0xd2fce6cc\n      gt\n      tag_31\n      jumpi\n      dup1\n      0xd2fce6cc\n      eq\n      tag_25\n      jumpi\n      dup1\n      0xd4fd45c4\n      eq\n      tag_26\n      jumpi\n      dup1\n      0xddf8f98b\n      eq\n      tag_27\n      jumpi\n      dup1\n      0xf1a1d7d5\n      eq\n      tag_28\n      jumpi\n      jump(tag_2)\n    tag_31:\n      dup1\n      0xbe956873\n      eq\n      tag_22\n      jumpi\n      dup1\n      0xc979783f\n      eq\n      tag_23\n      jumpi\n      dup1\n      0xcc572914\n      eq\n      tag_24\n      jumpi\n      jump(tag_2)\n    tag_30:\n      dup1\n      0x6d4ce63c\n      eq\n      tag_16\n      jumpi\n      dup1\n      0x6e9960c3\n      eq\n      tag_17\n      jumpi\n      dup1\n      0x720d5b4b\n      eq\n      tag_18\n      jumpi\n      dup1\n      0x79111c1c\n      eq\n      tag_19\n      jumpi\n      dup1\n      0x92bed5ce\n      eq\n      tag_20\n      jumpi\n      dup1\n      0x9fd06774\n      eq\n      tag_21\n      jumpi\n      jump(tag_2)\n    tag_29:\n      dup1\n      0x4780468f\n      gt\n      tag_32\n      jumpi\n      dup1\n      0x58dae14f\n      gt\n      tag_33\n      jumpi\n      dup1\n      0x58dae14f\n      eq\n      tag_12\n      jumpi\n      dup1\n      0x5ea592b0\n      eq\n      tag_13\n      jumpi\n      dup1\n      0x657a2512\n      eq\n      tag_14\n      jumpi\n      dup1\n      0x6d263ceb\n      eq\n      tag_15\n      jumpi\n      jump(tag_2)\n    tag_33:\n      dup1\n      0x4780468f\n      eq\n      tag_9\n      jumpi\n      dup1\n      0x4fe6c950\n      eq\n      tag_10\n      jumpi\n      dup1\n      0x538b30ae\n      eq\n      tag_11\n      jumpi\n      jump(tag_2)\n    tag_32:\n      dup1\n      0x047f66c3\n      eq\n      tag_3\n      jumpi\n      dup1\n      0x11f67285\n      eq\n      tag_4\n      jumpi\n      dup1\n      0x13d65d3a\n      eq\n      tag_5\n      jumpi\n      dup1\n      0x17335a95\n      eq\n      tag_6\n      jumpi\n      dup1\n      0x1c7fb129\n      eq\n      tag_7\n      jumpi\n      dup1\n      0x2f4a4dcb\n      eq\n      tag_8\n      jumpi\n    tag_2:\n      0x00\n      dup1\n      revert\n        /* \"contracts/Contract.sol\":2907:2989  function viewPatRec(address _patid) public{... */\n    tag_3:\n      tag_34\n      0x04\n      dup1\n      calldatasize\n      sub\n      dup2\n      add\n      swap1\n      tag_35\n      swap2\n      swap1\n      tag_36\n      jump\t// in\n    tag_35:\n      tag_37\n      jump\t// in\n    tag_34:\n      stop\n        /* \"contracts/Contract.sol\":3382:3704  function addPatInfo(address pat_id, string memory _patInfoHash) public {... */\n    tag_4:\n      tag_38\n      0x04\n      dup1\n      calldatasize\n      sub\n      dup2\n      add\n      swap1\n      tag_39\n      swap2\n      swap1\n      tag_40\n      jump\t// in\n    tag_39:\n      tag_41\n      jump\t// in\n    tag_38:\n      stop\n        /* \"contracts/Contract.sol\":4049:4164  function viewMedRec()public view returns(string memory){... */\n    tag_5:\n      tag_42\n      tag_43\n      jump\t// in\n    tag_42:\n      mload(0x40)\n      tag_44\n      swap2\n      swap1\n      tag_45\n      jump\t// in\n    tag_44:\n      mload(0x40)\n      dup1\n      swap2\n      sub\n      swap1\n      return\n        /* \"contracts/Contract.sol\":926:1203  function addDrInfo(address dr_id, string memory _drInfo_hash) public{... */\n    tag_6:\n      tag_46\n      0x04\n      dup1\n      calldatasize\n      sub\n      dup2\n      add\n      swap1\n      tag_47\n      swap2\n      swap1\n      tag_40\n      jump\t// in\n    tag_47:\n      tag_48\n      jump\t// in\n    tag_46:\n      stop\n        /* \"contracts/Contract.sol\":1602:1684  function get_drtid() public view returns(address){... */\n    tag_7:\n      tag_49\n      tag_50\n      jump\t// in\n    tag_49:\n      mload(0x40)\n      tag_51\n      swap2\n      swap1\n      tag_52\n      jump\t// in\n    tag_51:\n      mload(0x40)\n      dup1\n      swap2\n      sub\n      swap1\n      return\n        /* \"contracts/Contract.sol\":507:535  address[] public Patient_ids */\n    tag_8:\n      tag_53\n      0x04\n      dup1\n      calldatasize\n      sub\n      dup2\n      add\n      swap1\n      tag_54\n      swap2\n      swap1\n      tag_55\n      jump\t// in\n    tag_54:\n      tag_56\n      jump\t// in\n    tag_53:\n      mload(0x40)\n      tag_57\n      swap2\n      swap1\n      tag_52\n      jump\t// in\n    tag_57:\n      mload(0x40)\n      dup1\n      swap2\n      sub\n      swap1\n      return\n        /* \"contracts/Contract.sol\":1410:1501  function addDoctor(address _newdr) external onlyAdmin() {... */\n    tag_9:\n      tag_58\n      0x04\n      dup1\n      calldatasize\n      sub\n      dup2\n      add\n      swap1\n      tag_59\n      swap2\n      swap1\n      tag_36\n      jump\t// in\n    tag_59:\n      tag_60\n      jump\t// in\n    tag_58:\n      stop\n        /* \"contracts/Contract.sol\":1507:1596  function delDr(address _accid) external onlyAdmin(){... */\n    tag_10:\n      tag_61\n      0x04\n      dup1\n      calldatasize\n      sub\n      dup2\n      add\n      swap1\n      tag_62\n      swap2\n      swap1\n      tag_36\n      jump\t// in\n    tag_62:\n      tag_63\n      jump\t// in\n    tag_61:\n      stop\n        /* \"contracts/Contract.sol\":1209:1404  function updateInfo(address dr_id, string memory _drInfo_hash) public{... */\n    tag_11:\n      tag_64\n      0x04\n      dup1\n      calldatasize\n      sub\n      dup2\n      add\n      swap1\n      tag_65\n      swap2\n      swap1\n      tag_40\n      jump\t// in\n    tag_65:\n      tag_66\n      jump\t// in\n    tag_64:\n      stop\n        /* \"contracts/Contract.sol\":541:569  string[] public RecordHashes */\n    tag_12:\n      tag_67\n      0x04\n      dup1\n      calldatasize\n      sub\n      dup2\n      add\n      swap1\n      tag_68\n      swap2\n      swap1\n      tag_55\n      jump\t// in\n    tag_68:\n      tag_69\n      jump\t// in\n    tag_67:\n      mload(0x40)\n      tag_70\n      swap2\n      swap1\n      tag_45\n      jump\t// in\n    tag_70:\n      mload(0x40)\n      dup1\n      swap2\n      sub\n      swap1\n      return\n        /* \"contracts/Contract.sol\":2137:2347  function getAllDrs(uint i) public view returns(address){... */\n    tag_13:\n      tag_71\n      0x04\n      dup1\n      calldatasize\n      sub\n      dup2\n      add\n      swap1\n      tag_72\n      swap2\n      swap1\n      tag_55\n      jump\t// in\n    tag_72:\n      tag_73\n      jump\t// in\n    tag_71:\n      mload(0x40)\n      tag_74\n      swap2\n      swap1\n      tag_52\n      jump\t// in\n    tag_74:\n      mload(0x40)\n      dup1\n      swap2\n      sub\n      swap1\n      return\n        /* \"contracts/Contract.sol\":1690:1756  function search(address _id)public{... */\n    tag_14:\n      tag_75\n      0x04\n      dup1\n      calldatasize\n      sub\n      dup2\n      add\n      swap1\n      tag_76\n      swap2\n      swap1\n      tag_36\n      jump\t// in\n    tag_76:\n      tag_77\n      jump\t// in\n    tag_75:\n      stop\n        /* \"contracts/Contract.sol\":2633:2736  function addPatient(address _newpatient) external onlyAdmin() {... */\n    tag_15:\n      tag_78\n      0x04\n      dup1\n      calldatasize\n      sub\n      dup2\n      add\n      swap1\n      tag_79\n      swap2\n      swap1\n      tag_36\n      jump\t// in\n    tag_79:\n      tag_80\n      jump\t// in\n    tag_78:\n      stop\n        /* \"contracts/Contract.sol\":3091:3169  function get() public view  returns(address){... */\n    tag_16:\n      tag_81\n      tag_82\n      jump\t// in\n    tag_81:\n      mload(0x40)\n      tag_83\n      swap2\n      swap1\n      tag_52\n      jump\t// in\n    tag_83:\n      mload(0x40)\n      dup1\n      swap2\n      sub\n      swap1\n      return\n        /* \"contracts/Contract.sol\":783:863  function getAdmin() public view returns(address){... */\n    tag_17:\n      tag_84\n      tag_85\n      jump\t// in\n    tag_84:\n      mload(0x40)\n      tag_86\n      swap2\n      swap1\n      tag_52\n      jump\t// in\n    tag_86:\n      mload(0x40)\n      dup1\n      swap2\n      sub\n      swap1\n      return\n        /* \"contracts/Contract.sol\":2486:2628  function isPat(address id) public view returns(string memory){... */\n    tag_18:\n      tag_87\n      0x04\n      dup1\n      calldatasize\n      sub\n      dup2\n      add\n      swap1\n      tag_88\n      swap2\n      swap1\n      tag_36\n      jump\t// in\n    tag_88:\n      tag_89\n      jump\t// in\n    tag_87:\n      mload(0x40)\n      tag_90\n      swap2\n      swap1\n      tag_45\n      jump\t// in\n    tag_90:\n      mload(0x40)\n      dup1\n      swap2\n      sub\n      swap1\n      return\n        /* \"contracts/Contract.sol\":2353:2442  function getDoctorCount() public view returns(uint){... */\n    tag_19:\n      tag_91\n      tag_92\n      jump\t// in\n    tag_91:\n      mload(0x40)\n      tag_93\n      swap2\n      swap1\n      tag_94\n      jump\t// in\n    tag_93:\n      mload(0x40)\n      dup1\n      swap2\n      sub\n      swap1\n      return\n        /* \"contracts/Contract.sol\":1762:1868  function getDrInfo() public view returns(string memory){... */\n    tag_20:\n      tag_95\n      tag_96\n      jump\t// in\n    tag_95:\n      mload(0x40)\n      tag_97\n      swap2\n      swap1\n      tag_45\n      jump\t// in\n    tag_97:\n      mload(0x40)\n      dup1\n      swap2\n      sub\n      swap1\n      return\n        /* \"contracts/Contract.sol\":2995:3086  function delPat(address _accid) external onlyAdmin(){... */\n    tag_21:\n      tag_98\n      0x04\n      dup1\n      calldatasize\n      sub\n      dup2\n      add\n      swap1\n      tag_99\n      swap2\n      swap1\n      tag_36\n      jump\t// in\n    tag_99:\n      tag_100\n      jump\t// in\n    tag_98:\n      stop\n        /* \"contracts/Contract.sol\":1987:2127  function isDr(address id) public view returns(string memory){... */\n    tag_22:\n      tag_101\n      0x04\n      dup1\n      calldatasize\n      sub\n      dup2\n      add\n      swap1\n      tag_102\n      swap2\n      swap1\n      tag_36\n      jump\t// in\n    tag_102:\n      tag_103\n      jump\t// in\n    tag_101:\n      mload(0x40)\n      tag_104\n      swap2\n      swap1\n      tag_45\n      jump\t// in\n    tag_104:\n      mload(0x40)\n      dup1\n      swap2\n      sub\n      swap1\n      return\n        /* \"contracts/Contract.sol\":478:501  address[] public Dr_ids */\n    tag_23:\n      tag_105\n      0x04\n      dup1\n      calldatasize\n      sub\n      dup2\n      add\n      swap1\n      tag_106\n      swap2\n      swap1\n      tag_55\n      jump\t// in\n    tag_106:\n      tag_107\n      jump\t// in\n    tag_105:\n      mload(0x40)\n      tag_108\n      swap2\n      swap1\n      tag_52\n      jump\t// in\n    tag_108:\n      mload(0x40)\n      dup1\n      swap2\n      sub\n      swap1\n      return\n        /* \"contracts/Contract.sol\":3266:3377  function getPatInfo(address iD)public view returns(string memory){... */\n    tag_24:\n      tag_109\n      0x04\n      dup1\n      calldatasize\n      sub\n      dup2\n      add\n      swap1\n      tag_110\n      swap2\n      swap1\n      tag_36\n      jump\t// in\n    tag_110:\n      tag_111\n      jump\t// in\n    tag_109:\n      mload(0x40)\n      tag_112\n      swap2\n      swap1\n      tag_45\n      jump\t// in\n    tag_112:\n      mload(0x40)\n      dup1\n      swap2\n      sub\n      swap1\n      return\n        /* \"contracts/Contract.sol\":2742:2902  function addRec(address _patid) external onlyDoctor() {... */\n    tag_25:\n      tag_113\n      0x04\n      dup1\n      calldatasize\n      sub\n      dup2\n      add\n      swap1\n      tag_114\n      swap2\n      swap1\n      tag_36\n      jump\t// in\n    tag_114:\n      tag_115\n      jump\t// in\n    tag_113:\n      stop\n        /* \"contracts/Contract.sol\":1874:1981  function getDr(address _id) public view returns(string memory){... */\n    tag_26:\n      tag_116\n      0x04\n      dup1\n      calldatasize\n      sub\n      dup2\n      add\n      swap1\n      tag_117\n      swap2\n      swap1\n      tag_36\n      jump\t// in\n    tag_117:\n      tag_118\n      jump\t// in\n    tag_116:\n      mload(0x40)\n      tag_119\n      swap2\n      swap1\n      tag_45\n      jump\t// in\n    tag_119:\n      mload(0x40)\n      dup1\n      swap2\n      sub\n      swap1\n      return\n        /* \"contracts/Contract.sol\":3174:3261  function get_patid() public view returns(address){... */\n    tag_27:\n      tag_120\n      tag_121\n      jump\t// in\n    tag_120:\n      mload(0x40)\n      tag_122\n      swap2\n      swap1\n      tag_52\n      jump\t// in\n    tag_122:\n      mload(0x40)\n      dup1\n      swap2\n      sub\n      swap1\n      return\n        /* \"contracts/Contract.sol\":3764:4043  function addMedRecord(string memory _recHash, address _pat_id) public{... */\n    tag_28:\n      tag_123\n      0x04\n      dup1\n      calldatasize\n      sub\n      dup2\n      add\n      swap1\n      tag_124\n      swap2\n      swap1\n      tag_125\n      jump\t// in\n    tag_124:\n      tag_126\n      jump\t// in\n    tag_123:\n      stop\n        /* \"contracts/Contract.sol\":2907:2989  function viewPatRec(address _patid) public{... */\n    tag_37:\n        /* \"contracts/Contract.sol\":2976:2982  _patid */\n      dup1\n        /* \"contracts/Contract.sol\":2959:2973  get_patient_id */\n      0x0b\n      0x00\n        /* \"contracts/Contract.sol\":2959:2982  get_patient_id = _patid */\n      0x0100\n      exp\n      dup2\n      sload\n      dup2\n      0xffffffffffffffffffffffffffffffffffffffff\n      mul\n      not\n      and\n      swap1\n      dup4\n      0xffffffffffffffffffffffffffffffffffffffff\n      and\n      mul\n      or\n      swap1\n      sstore\n      pop\n        /* \"contracts/Contract.sol\":2907:2989  function viewPatRec(address _patid) public{... */\n      pop\n      jump\t// out\n        /* \"contracts/Contract.sol\":3382:3704  function addPatInfo(address pat_id, string memory _patInfoHash) public {... */\n    tag_41:\n        /* \"contracts/Contract.sol\":3496:3500  true */\n      0x01\n        /* \"contracts/Contract.sol\":3471:3500  admin.has(msg.sender) == true */\n      iszero\n      iszero\n        /* \"contracts/Contract.sol\":3471:3492  admin.has(msg.sender) */\n      tag_130\n        /* \"contracts/Contract.sol\":3481:3491  msg.sender */\n      caller\n        /* \"contracts/Contract.sol\":3471:3476  admin */\n      0x00\n        /* \"contracts/Contract.sol\":3471:3480  admin.has */\n      tag_131\n      swap1\n        /* \"contracts/Contract.sol\":3471:3492  admin.has(msg.sender) */\n      swap2\n      swap1\n      0xffffffff\n      and\n      jump\t// in\n    tag_130:\n        /* \"contracts/Contract.sol\":3471:3500  admin.has(msg.sender) == true */\n      iszero\n      iszero\n      eq\n        /* \"contracts/Contract.sol\":3463:3532  require(admin.has(msg.sender) == true, 'Only you Can Add your info ') */\n      tag_132\n      jumpi\n      mload(0x40)\n      0x08c379a000000000000000000000000000000000000000000000000000000000\n      dup2\n      mstore\n      0x04\n      add\n      tag_133\n      swap1\n      tag_134\n      jump\t// in\n    tag_133:\n      mload(0x40)\n      dup1\n      swap2\n      sub\n      swap1\n      revert\n    tag_132:\n        /* \"contracts/Contract.sol\":3542:3565  Patient storage patInfo */\n      0x00\n        /* \"contracts/Contract.sol\":3568:3576  Patients */\n      0x04\n        /* \"contracts/Contract.sol\":3568:3588  Patients[msg.sender] */\n      0x00\n        /* \"contracts/Contract.sol\":3577:3587  msg.sender */\n      caller\n        /* \"contracts/Contract.sol\":3568:3588  Patients[msg.sender] */\n      0xffffffffffffffffffffffffffffffffffffffff\n      and\n      0xffffffffffffffffffffffffffffffffffffffff\n      and\n      dup2\n      mstore\n      0x20\n      add\n      swap1\n      dup2\n      mstore\n      0x20\n      add\n      0x00\n      keccak256\n        /* \"contracts/Contract.sol\":3542:3588  Patient storage patInfo = Patients[msg.sender] */\n      swap1\n      pop\n        /* \"contracts/Contract.sol\":3616:3628  _patInfoHash */\n      dup2\n        /* \"contracts/Contract.sol\":3598:3605  patInfo */\n      dup2\n        /* \"contracts/Contract.sol\":3598:3613  patInfo.patHash */\n      0x00\n      add\n        /* \"contracts/Contract.sol\":3598:3628  patInfo.patHash = _patInfoHash */\n      swap1\n      dup1\n      mload\n      swap1\n      0x20\n      add\n      swap1\n      tag_135\n      swap3\n      swap2\n      swap1\n      tag_136\n      jump\t// in\n    tag_135:\n      pop\n        /* \"contracts/Contract.sol\":3638:3649  Patient_ids */\n      0x07\n        /* \"contracts/Contract.sol\":3655:3665  msg.sender */\n      caller\n        /* \"contracts/Contract.sol\":3638:3666  Patient_ids.push(msg.sender) */\n      swap1\n      dup1\n      0x01\n      dup2\n      sload\n      add\n      dup1\n      dup3\n      sstore\n      dup1\n      swap2\n      pop\n      pop\n      0x01\n      swap1\n      sub\n      swap1\n      0x00\n      mstore\n      keccak256(0x00, 0x20)\n      add\n      0x00\n      swap1\n      swap2\n      swap1\n      swap2\n      swap1\n      swap2\n      0x0100\n      exp\n      dup2\n      sload\n      dup2\n      0xffffffffffffffffffffffffffffffffffffffff\n      mul\n      not\n      and\n      swap1\n      dup4\n      0xffffffffffffffffffffffffffffffffffffffff\n      and\n      mul\n      or\n      swap1\n      sstore\n      pop\n        /* \"contracts/Contract.sol\":3678:3697  patient.add(pat_id) */\n      tag_138\n        /* \"contracts/Contract.sol\":3690:3696  pat_id */\n      dup4\n        /* \"contracts/Contract.sol\":3678:3685  patient */\n      0x02\n        /* \"contracts/Contract.sol\":3678:3689  patient.add */\n      tag_127\n      swap1\n        /* \"contracts/Contract.sol\":3678:3697  patient.add(pat_id) */\n      swap2\n      swap1\n      0xffffffff\n      and\n      jump\t// in\n    tag_138:\n        /* \"contracts/Contract.sol\":3453:3704  {... */\n      pop\n        /* \"contracts/Contract.sol\":3382:3704  function addPatInfo(address pat_id, string memory _patInfoHash) public {... */\n      pop\n      pop\n      jump\t// out\n        /* \"contracts/Contract.sol\":4049:4164  function viewMedRec()public view returns(string memory){... */\n    tag_43:\n        /* \"contracts/Contract.sol\":4090:4103  string memory */\n      0x60\n        /* \"contracts/Contract.sol\":4122:4129  Records */\n      0x05\n        /* \"contracts/Contract.sol\":4122:4145  Records[get_patient_id] */\n      0x00\n        /* \"contracts/Contract.sol\":4130:4144  get_patient_id */\n      0x0b\n      0x00\n      swap1\n      sload\n      swap1\n      0x0100\n      exp\n      swap1\n      div\n      0xffffffffffffffffffffffffffffffffffffffff\n      and\n        /* \"contracts/Contract.sol\":4122:4145  Records[get_patient_id] */\n      0xffffffffffffffffffffffffffffffffffffffff\n      and\n      0xffffffffffffffffffffffffffffffffffffffff\n      and\n      dup2\n      mstore\n      0x20\n      add\n      swap1\n      dup2\n      mstore\n      0x20\n      add\n      0x00\n      keccak256\n        /* \"contracts/Contract.sol\":4122:4156  Records[get_patient_id].RecordHash */\n      0x00\n      add\n        /* \"contracts/Contract.sol\":4114:4157  return (Records[get_patient_id].RecordHash) */\n      dup1\n      sload\n      tag_140\n      swap1\n      tag_141\n      jump\t// in\n    tag_140:\n      dup1\n      0x1f\n      add\n      0x20\n      dup1\n      swap2\n      div\n      mul\n      0x20\n      add\n      mload(0x40)\n      swap1\n      dup2\n      add\n      0x40\n      mstore\n      dup1\n      swap3\n      swap2\n      swap1\n      dup2\n      dup2\n      mstore\n      0x20\n      add\n      dup3\n      dup1\n      sload\n      tag_142\n      swap1\n      tag_141\n      jump\t// in\n    tag_142:\n      dup1\n      iszero\n      tag_143\n      jumpi\n      dup1\n      0x1f\n      lt\n      tag_144\n      jumpi\n      0x0100\n      dup1\n      dup4\n      sload\n      div\n      mul\n      dup4\n      mstore\n      swap2\n      0x20\n      add\n      swap2\n      jump(tag_143)\n    tag_144:\n      dup3\n      add\n      swap2\n      swap1\n      0x00\n      mstore\n      keccak256(0x00, 0x20)\n      swap1\n    tag_145:\n      dup2\n      sload\n      dup2\n      mstore\n      swap1\n      0x01\n      add\n      swap1\n      0x20\n      add\n      dup1\n      dup4\n      gt\n      tag_145\n      jumpi\n      dup3\n      swap1\n      sub\n      0x1f\n      and\n      dup3\n      add\n      swap2\n    tag_143:\n      pop\n      pop\n      pop\n      pop\n      pop\n      swap1\n      pop\n        /* \"contracts/Contract.sol\":4049:4164  function viewMedRec()public view returns(string memory){... */\n      swap1\n      jump\t// out\n        /* \"contracts/Contract.sol\":926:1203  function addDrInfo(address dr_id, string memory _drInfo_hash) public{... */\n    tag_48:\n        /* \"contracts/Contract.sol\":1012:1033  admin.has(msg.sender) */\n      tag_147\n        /* \"contracts/Contract.sol\":1022:1032  msg.sender */\n      caller\n        /* \"contracts/Contract.sol\":1012:1017  admin */\n      0x00\n        /* \"contracts/Contract.sol\":1012:1021  admin.has */\n      tag_131\n      swap1\n        /* \"contracts/Contract.sol\":1012:1033  admin.has(msg.sender) */\n      swap2\n      swap1\n      0xffffffff\n      and\n      jump\t// in\n    tag_147:\n        /* \"contracts/Contract.sol\":1004:1053  require(admin.has(msg.sender), 'Only For Doctor') */\n      tag_148\n      jumpi\n      mload(0x40)\n      0x08c379a000000000000000000000000000000000000000000000000000000000\n      dup2\n      mstore\n      0x04\n      add\n      tag_149\n      swap1\n      tag_150\n      jump\t// in\n    tag_149:\n      mload(0x40)\n      dup1\n      swap2\n      sub\n      swap1\n      revert\n    tag_148:\n        /* \"contracts/Contract.sol\":1064:1085  Doctor storage drInfo */\n      0x00\n        /* \"contracts/Contract.sol\":1088:1095  Doctors */\n      0x03\n        /* \"contracts/Contract.sol\":1088:1102  Doctors[dr_id] */\n      0x00\n        /* \"contracts/Contract.sol\":1096:1101  dr_id */\n      dup5\n        /* \"contracts/Contract.sol\":1088:1102  Doctors[dr_id] */\n      0xffffffffffffffffffffffffffffffffffffffff\n      and\n      0xffffffffffffffffffffffffffffffffffffffff\n      and\n      dup2\n      mstore\n      0x20\n      add\n      swap1\n      dup2\n      mstore\n      0x20\n      add\n      0x00\n      keccak256\n        /* \"contracts/Contract.sol\":1064:1102  Doctor storage drInfo = Doctors[dr_id] */\n      swap1\n      pop\n        /* \"contracts/Contract.sol\":1128:1140  _drInfo_hash */\n      dup2\n        /* \"contracts/Contract.sol\":1112:1118  drInfo */\n      dup2\n        /* \"contracts/Contract.sol\":1112:1125  drInfo.drHash */\n      0x00\n      add\n        /* \"contracts/Contract.sol\":1112:1140  drInfo.drHash = _drInfo_hash */\n      swap1\n      dup1\n      mload\n      swap1\n      0x20\n      add\n      swap1\n      tag_151\n      swap3\n      swap2\n      swap1\n      tag_136\n      jump\t// in\n    tag_151:\n      pop\n        /* \"contracts/Contract.sol\":1150:1156  Dr_ids */\n      0x06\n        /* \"contracts/Contract.sol\":1162:1167  dr_id */\n      dup4\n        /* \"contracts/Contract.sol\":1150:1168  Dr_ids.push(dr_id) */\n      swap1\n      dup1\n      0x01\n      dup2\n      sload\n      add\n      dup1\n      dup3\n      sstore\n      dup1\n      swap2\n      pop\n      pop\n      0x01\n      swap1\n      sub\n      swap1\n      0x00\n      mstore\n      keccak256(0x00, 0x20)\n      add\n      0x00\n      swap1\n      swap2\n      swap1\n      swap2\n      swap1\n      swap2\n      0x0100\n      exp\n      dup2\n      sload\n      dup2\n      0xffffffffffffffffffffffffffffffffffffffff\n      mul\n      not\n      and\n      swap1\n      dup4\n      0xffffffffffffffffffffffffffffffffffffffff\n      and\n      mul\n      or\n      swap1\n      sstore\n      pop\n        /* \"contracts/Contract.sol\":1179:1196  doctor.add(dr_id) */\n      tag_153\n        /* \"contracts/Contract.sol\":1190:1195  dr_id */\n      dup4\n        /* \"contracts/Contract.sol\":1179:1185  doctor */\n      0x01\n        /* \"contracts/Contract.sol\":1179:1189  doctor.add */\n      tag_127\n      swap1\n        /* \"contracts/Contract.sol\":1179:1196  doctor.add(dr_id) */\n      swap2\n      swap1\n      0xffffffff\n      and\n      jump\t// in\n    tag_153:\n        /* \"contracts/Contract.sol\":994:1203  {... */\n      pop\n        /* \"contracts/Contract.sol\":926:1203  function addDrInfo(address dr_id, string memory _drInfo_hash) public{... */\n      pop\n      pop\n      jump\t// out\n        /* \"contracts/Contract.sol\":1602:1684  function get_drtid() public view returns(address){... */\n    tag_50:\n        /* \"contracts/Contract.sol\":1643:1650  address */\n      0x00\n        /* \"contracts/Contract.sol\":1668:1677  get_dr_id */\n      0x0c\n      0x00\n      swap1\n      sload\n      swap1\n      0x0100\n      exp\n      swap1\n      div\n      0xffffffffffffffffffffffffffffffffffffffff\n      and\n        /* \"contracts/Contract.sol\":1661:1677  return get_dr_id */\n      swap1\n      pop\n        /* \"contracts/Contract.sol\":1602:1684  function get_drtid() public view returns(address){... */\n      swap1\n      jump\t// out\n        /* \"contracts/Contract.sol\":507:535  address[] public Patient_ids */\n    tag_56:\n      0x07\n      dup2\n      dup2\n      sload\n      dup2\n      lt\n      tag_155\n      jumpi\n      0x00\n      dup1\n      revert\n    tag_155:\n      swap1\n      0x00\n      mstore\n      keccak256(0x00, 0x20)\n      add\n      0x00\n      swap2\n      pop\n      sload\n      swap1\n      0x0100\n      exp\n      swap1\n      div\n      0xffffffffffffffffffffffffffffffffffffffff\n      and\n      dup2\n      jump\t// out\n        /* \"contracts/Contract.sol\":1410:1501  function addDoctor(address _newdr) external onlyAdmin() {... */\n    tag_60:\n        /* \"contracts/Contract.sol\":4267:4271  true */\n      0x01\n        /* \"contracts/Contract.sol\":4242:4271  admin.has(msg.sender) == true */\n      iszero\n      iszero\n        /* \"contracts/Contract.sol\":4242:4263  admin.has(msg.sender) */\n      tag_158\n        /* \"contracts/Contract.sol\":4252:4262  msg.sender */\n      caller\n        /* \"contracts/Contract.sol\":4242:4247  admin */\n      0x00\n        /* \"contracts/Contract.sol\":4242:4251  admin.has */\n      tag_131\n      swap1\n        /* \"contracts/Contract.sol\":4242:4263  admin.has(msg.sender) */\n      swap2\n      swap1\n      0xffffffff\n      and\n      jump\t// in\n    tag_158:\n        /* \"contracts/Contract.sol\":4242:4271  admin.has(msg.sender) == true */\n      iszero\n      iszero\n      eq\n        /* \"contracts/Contract.sol\":4234:4298  require(admin.has(msg.sender) == true, 'Only Admin Can Do That') */\n      tag_159\n      jumpi\n      mload(0x40)\n      0x08c379a000000000000000000000000000000000000000000000000000000000\n      dup2\n      mstore\n      0x04\n      add\n      tag_160\n      swap1\n      tag_161\n      jump\t// in\n    tag_160:\n      mload(0x40)\n      dup1\n      swap2\n      sub\n      swap1\n      revert\n    tag_159:\n        /* \"contracts/Contract.sol\":1476:1494  doctor.add(_newdr) */\n      tag_163\n        /* \"contracts/Contract.sol\":1487:1493  _newdr */\n      dup2\n        /* \"contracts/Contract.sol\":1476:1482  doctor */\n      0x01\n        /* \"contracts/Contract.sol\":1476:1486  doctor.add */\n      tag_127\n      swap1\n        /* \"contracts/Contract.sol\":1476:1494  doctor.add(_newdr) */\n      swap2\n      swap1\n      0xffffffff\n      and\n      jump\t// in\n    tag_163:\n        /* \"contracts/Contract.sol\":1410:1501  function addDoctor(address _newdr) external onlyAdmin() {... */\n      pop\n      jump\t// out\n        /* \"contracts/Contract.sol\":1507:1596  function delDr(address _accid) external onlyAdmin(){... */\n    tag_63:\n        /* \"contracts/Contract.sol\":4267:4271  true */\n      0x01\n        /* \"contracts/Contract.sol\":4242:4271  admin.has(msg.sender) == true */\n      iszero\n      iszero\n        /* \"contracts/Contract.sol\":4242:4263  admin.has(msg.sender) */\n      tag_165\n        /* \"contracts/Contract.sol\":4252:4262  msg.sender */\n      caller\n        /* \"contracts/Contract.sol\":4242:4247  admin */\n      0x00\n        /* \"contracts/Contract.sol\":4242:4251  admin.has */\n      tag_131\n      swap1\n        /* \"contracts/Contract.sol\":4242:4263  admin.has(msg.sender) */\n      swap2\n      swap1\n      0xffffffff\n      and\n      jump\t// in\n    tag_165:\n        /* \"contracts/Contract.sol\":4242:4271  admin.has(msg.sender) == true */\n      iszero\n      iszero\n      eq\n        /* \"contracts/Contract.sol\":4234:4298  require(admin.has(msg.sender) == true, 'Only Admin Can Do That') */\n      tag_166\n      jumpi\n      mload(0x40)\n      0x08c379a000000000000000000000000000000000000000000000000000000000\n      dup2\n      mstore\n      0x04\n      add\n      tag_167\n      swap1\n      tag_161\n      jump\t// in\n    tag_167:\n      mload(0x40)\n      dup1\n      swap2\n      sub\n      swap1\n      revert\n    tag_166:\n        /* \"contracts/Contract.sol\":1568:1589  doctor.remove(_accid) */\n      tag_169\n        /* \"contracts/Contract.sol\":1582:1588  _accid */\n      dup2\n        /* \"contracts/Contract.sol\":1568:1574  doctor */\n      0x01\n        /* \"contracts/Contract.sol\":1568:1581  doctor.remove */\n      tag_170\n      swap1\n        /* \"contracts/Contract.sol\":1568:1589  doctor.remove(_accid) */\n      swap2\n      swap1\n      0xffffffff\n      and\n      jump\t// in\n    tag_169:\n        /* \"contracts/Contract.sol\":1507:1596  function delDr(address _accid) external onlyAdmin(){... */\n      pop\n      jump\t// out\n        /* \"contracts/Contract.sol\":1209:1404  function updateInfo(address dr_id, string memory _drInfo_hash) public{... */\n    tag_66:\n        /* \"contracts/Contract.sol\":1288:1309  Doctor storage drInfo */\n      0x00\n        /* \"contracts/Contract.sol\":1312:1319  Doctors */\n      0x03\n        /* \"contracts/Contract.sol\":1312:1331  Doctors[msg.sender] */\n      0x00\n        /* \"contracts/Contract.sol\":1320:1330  msg.sender */\n      caller\n        /* \"contracts/Contract.sol\":1312:1331  Doctors[msg.sender] */\n      0xffffffffffffffffffffffffffffffffffffffff\n      and\n      0xffffffffffffffffffffffffffffffffffffffff\n      and\n      dup2\n      mstore\n      0x20\n      add\n      swap1\n      dup2\n      mstore\n      0x20\n      add\n      0x00\n      keccak256\n        /* \"contracts/Contract.sol\":1288:1331  Doctor storage drInfo = Doctors[msg.sender] */\n      swap1\n      pop\n        /* \"contracts/Contract.sol\":1357:1369  _drInfo_hash */\n      dup2\n        /* \"contracts/Contract.sol\":1341:1347  drInfo */\n      dup2\n        /* \"contracts/Contract.sol\":1341:1354  drInfo.drHash */\n      0x00\n      add\n        /* \"contracts/Contract.sol\":1341:1369  drInfo.drHash = _drInfo_hash */\n      swap1\n      dup1\n      mload\n      swap1\n      0x20\n      add\n      swap1\n      tag_172\n      swap3\n      swap2\n      swap1\n      tag_136\n      jump\t// in\n    tag_172:\n      pop\n        /* \"contracts/Contract.sol\":1379:1385  Dr_ids */\n      0x06\n        /* \"contracts/Contract.sol\":1391:1396  dr_id */\n      dup4\n        /* \"contracts/Contract.sol\":1379:1397  Dr_ids.push(dr_id) */\n      swap1\n      dup1\n      0x01\n      dup2\n      sload\n      add\n      dup1\n      dup3\n      sstore\n      dup1\n      swap2\n      pop\n      pop\n      0x01\n      swap1\n      sub\n      swap1\n      0x00\n      mstore\n      keccak256(0x00, 0x20)\n      add\n      0x00\n      swap1\n      swap2\n      swap1\n      swap2\n      swap1\n      swap2\n      0x0100\n      exp\n      dup2\n      sload\n      dup2\n      0xffffffffffffffffffffffffffffffffffffffff\n      mul\n      not\n      and\n      swap1\n      dup4\n      0xffffffffffffffffffffffffffffffffffffffff\n      and\n      mul\n      or\n      swap1\n      sstore\n      pop\n        /* \"contracts/Contract.sol\":1278:1404  {... */\n      pop\n        /* \"contracts/Contract.sol\":1209:1404  function updateInfo(address dr_id, string memory _drInfo_hash) public{... */\n      pop\n      pop\n      jump\t// out\n        /* \"contracts/Contract.sol\":541:569  string[] public RecordHashes */\n    tag_69:\n      0x08\n      dup2\n      dup2\n      sload\n      dup2\n      lt\n      tag_174\n      jumpi\n      0x00\n      dup1\n      revert\n    tag_174:\n      swap1\n      0x00\n      mstore\n      keccak256(0x00, 0x20)\n      add\n      0x00\n      swap2\n      pop\n      swap1\n      pop\n      dup1\n      sload\n      tag_176\n      swap1\n      tag_141\n      jump\t// in\n    tag_176:\n      dup1\n      0x1f\n      add\n      0x20\n      dup1\n      swap2\n      div\n      mul\n      0x20\n      add\n      mload(0x40)\n      swap1\n      dup2\n      add\n      0x40\n      mstore\n      dup1\n      swap3\n      swap2\n      swap1\n      dup2\n      dup2\n      mstore\n      0x20\n      add\n      dup3\n      dup1\n      sload\n      tag_177\n      swap1\n      tag_141\n      jump\t// in\n    tag_177:\n      dup1\n      iszero\n      tag_178\n      jumpi\n      dup1\n      0x1f\n      lt\n      tag_179\n      jumpi\n      0x0100\n      dup1\n      dup4\n      sload\n      div\n      mul\n      dup4\n      mstore\n      swap2\n      0x20\n      add\n      swap2\n      jump(tag_178)\n    tag_179:\n      dup3\n      add\n      swap2\n      swap1\n      0x00\n      mstore\n      keccak256(0x00, 0x20)\n      swap1\n    tag_180:\n      dup2\n      sload\n      dup2\n      mstore\n      swap1\n      0x01\n      add\n      swap1\n      0x20\n      add\n      dup1\n      dup4\n      gt\n      tag_180\n      jumpi\n      dup3\n      swap1\n      sub\n      0x1f\n      and\n      dup3\n      add\n      swap2\n    tag_178:\n      pop\n      pop\n      pop\n      pop\n      pop\n      dup2\n      jump\t// out\n        /* \"contracts/Contract.sol\":2137:2347  function getAllDrs(uint i) public view returns(address){... */\n    tag_73:\n        /* \"contracts/Contract.sol\":2184:2191  address */\n      0x00\n        /* \"contracts/Contract.sol\":2330:2336  Dr_ids */\n      0x06\n        /* \"contracts/Contract.sol\":2337:2338  i */\n      dup3\n        /* \"contracts/Contract.sol\":2330:2339  Dr_ids[i] */\n      dup2\n      sload\n      dup2\n      lt\n      tag_182\n      jumpi\n      tag_183\n      tag_184\n      jump\t// in\n    tag_183:\n    tag_182:\n      swap1\n      0x00\n      mstore\n      keccak256(0x00, 0x20)\n      add\n      0x00\n      swap1\n      sload\n      swap1\n      0x0100\n      exp\n      swap1\n      div\n      0xffffffffffffffffffffffffffffffffffffffff\n      and\n        /* \"contracts/Contract.sol\":2323:2340  return(Dr_ids[i]) */\n      swap1\n      pop\n        /* \"contracts/Contract.sol\":2137:2347  function getAllDrs(uint i) public view returns(address){... */\n      swap2\n      swap1\n      pop\n      jump\t// out\n        /* \"contracts/Contract.sol\":1690:1756  function search(address _id)public{... */\n    tag_77:\n        /* \"contracts/Contract.sol\":1746:1749  _id */\n      dup1\n        /* \"contracts/Contract.sol\":1734:1743  get_dr_id */\n      0x0c\n      0x00\n        /* \"contracts/Contract.sol\":1734:1749  get_dr_id = _id */\n      0x0100\n      exp\n      dup2\n      sload\n      dup2\n      0xffffffffffffffffffffffffffffffffffffffff\n      mul\n      not\n      and\n      swap1\n      dup4\n      0xffffffffffffffffffffffffffffffffffffffff\n      and\n      mul\n      or\n      swap1\n      sstore\n      pop\n        /* \"contracts/Contract.sol\":1690:1756  function search(address _id)public{... */\n      pop\n      jump\t// out\n        /* \"contracts/Contract.sol\":2633:2736  function addPatient(address _newpatient) external onlyAdmin() {... */\n    tag_80:\n        /* \"contracts/Contract.sol\":4267:4271  true */\n      0x01\n        /* \"contracts/Contract.sol\":4242:4271  admin.has(msg.sender) == true */\n      iszero\n      iszero\n        /* \"contracts/Contract.sol\":4242:4263  admin.has(msg.sender) */\n      tag_188\n        /* \"contracts/Contract.sol\":4252:4262  msg.sender */\n      caller\n        /* \"contracts/Contract.sol\":4242:4247  admin */\n      0x00\n        /* \"contracts/Contract.sol\":4242:4251  admin.has */\n      tag_131\n      swap1\n        /* \"contracts/Contract.sol\":4242:4263  admin.has(msg.sender) */\n      swap2\n      swap1\n      0xffffffff\n      and\n      jump\t// in\n    tag_188:\n        /* \"contracts/Contract.sol\":4242:4271  admin.has(msg.sender) == true */\n      iszero\n      iszero\n      eq\n        /* \"contracts/Contract.sol\":4234:4298  require(admin.has(msg.sender) == true, 'Only Admin Can Do That') */\n      tag_189\n      jumpi\n      mload(0x40)\n      0x08c379a000000000000000000000000000000000000000000000000000000000\n      dup2\n      mstore\n      0x04\n      add\n      tag_190\n      swap1\n      tag_161\n      jump\t// in\n    tag_190:\n      mload(0x40)\n      dup1\n      swap2\n      sub\n      swap1\n      revert\n    tag_189:\n        /* \"contracts/Contract.sol\":2705:2729  patient.add(_newpatient) */\n      tag_192\n        /* \"contracts/Contract.sol\":2717:2728  _newpatient */\n      dup2\n        /* \"contracts/Contract.sol\":2705:2712  patient */\n      0x02\n        /* \"contracts/Contract.sol\":2705:2716  patient.add */\n      tag_127\n      swap1\n        /* \"contracts/Contract.sol\":2705:2729  patient.add(_newpatient) */\n      swap2\n      swap1\n      0xffffffff\n      and\n      jump\t// in\n    tag_192:\n        /* \"contracts/Contract.sol\":2633:2736  function addPatient(address _newpatient) external onlyAdmin() {... */\n      pop\n      jump\t// out\n        /* \"contracts/Contract.sol\":3091:3169  function get() public view  returns(address){... */\n    tag_82:\n        /* \"contracts/Contract.sol\":3127:3134  address */\n      0x00\n        /* \"contracts/Contract.sol\":3152:3162  msg.sender */\n      caller\n        /* \"contracts/Contract.sol\":3145:3162  return msg.sender */\n      swap1\n      pop\n        /* \"contracts/Contract.sol\":3091:3169  function get() public view  returns(address){... */\n      swap1\n      jump\t// out\n        /* \"contracts/Contract.sol\":783:863  function getAdmin() public view returns(address){... */\n    tag_85:\n        /* \"contracts/Contract.sol\":823:830  address */\n      0x00\n        /* \"contracts/Contract.sol\":848:856  admin_id */\n      0x0a\n      0x00\n      swap1\n      sload\n      swap1\n      0x0100\n      exp\n      swap1\n      div\n      0xffffffffffffffffffffffffffffffffffffffff\n      and\n        /* \"contracts/Contract.sol\":841:856  return admin_id */\n      swap1\n      pop\n        /* \"contracts/Contract.sol\":783:863  function getAdmin() public view returns(address){... */\n      swap1\n      jump\t// out\n        /* \"contracts/Contract.sol\":2486:2628  function isPat(address id) public view returns(string memory){... */\n    tag_89:\n        /* \"contracts/Contract.sol\":2533:2546  string memory */\n      0x60\n        /* \"contracts/Contract.sol\":2565:2580  patient.has(id) */\n      tag_196\n        /* \"contracts/Contract.sol\":2577:2579  id */\n      dup3\n        /* \"contracts/Contract.sol\":2565:2572  patient */\n      0x02\n        /* \"contracts/Contract.sol\":2565:2576  patient.has */\n      tag_131\n      swap1\n        /* \"contracts/Contract.sol\":2565:2580  patient.has(id) */\n      swap2\n      swap1\n      0xffffffff\n      and\n      jump\t// in\n    tag_196:\n        /* \"contracts/Contract.sol\":2557:2601  require(patient.has(id), \"Only for Doctors\") */\n      tag_197\n      jumpi\n      mload(0x40)\n      0x08c379a000000000000000000000000000000000000000000000000000000000\n      dup2\n      mstore\n      0x04\n      add\n      tag_198\n      swap1\n      tag_199\n      jump\t// in\n    tag_198:\n      mload(0x40)\n      dup1\n      swap2\n      sub\n      swap1\n      revert\n    tag_197:\n        /* \"contracts/Contract.sol\":2611:2621  return \"1\" */\n      mload(0x40)\n      dup1\n      0x40\n      add\n      0x40\n      mstore\n      dup1\n      0x01\n      dup2\n      mstore\n      0x20\n      add\n      0x3100000000000000000000000000000000000000000000000000000000000000\n      dup2\n      mstore\n      pop\n      swap1\n      pop\n        /* \"contracts/Contract.sol\":2486:2628  function isPat(address id) public view returns(string memory){... */\n      swap2\n      swap1\n      pop\n      jump\t// out\n        /* \"contracts/Contract.sol\":2353:2442  function getDoctorCount() public view returns(uint){... */\n    tag_92:\n        /* \"contracts/Contract.sol\":2399:2403  uint */\n      0x00\n        /* \"contracts/Contract.sol\":2421:2427  Dr_ids */\n      0x06\n        /* \"contracts/Contract.sol\":2421:2434  Dr_ids.length */\n      dup1\n      sload\n      swap1\n      pop\n        /* \"contracts/Contract.sol\":2414:2435  return(Dr_ids.length) */\n      swap1\n      pop\n        /* \"contracts/Contract.sol\":2353:2442  function getDoctorCount() public view returns(uint){... */\n      swap1\n      jump\t// out\n        /* \"contracts/Contract.sol\":1762:1868  function getDrInfo() public view returns(string memory){... */\n    tag_96:\n        /* \"contracts/Contract.sol\":1803:1816  string memory */\n      0x60\n        /* \"contracts/Contract.sol\":1835:1842  Doctors */\n      0x03\n        /* \"contracts/Contract.sol\":1835:1853  Doctors[get_dr_id] */\n      0x00\n        /* \"contracts/Contract.sol\":1843:1852  get_dr_id */\n      0x0c\n      0x00\n      swap1\n      sload\n      swap1\n      0x0100\n      exp\n      swap1\n      div\n      0xffffffffffffffffffffffffffffffffffffffff\n      and\n        /* \"contracts/Contract.sol\":1835:1853  Doctors[get_dr_id] */\n      0xffffffffffffffffffffffffffffffffffffffff\n      and\n      0xffffffffffffffffffffffffffffffffffffffff\n      and\n      dup2\n      mstore\n      0x20\n      add\n      swap1\n      dup2\n      mstore\n      0x20\n      add\n      0x00\n      keccak256\n        /* \"contracts/Contract.sol\":1835:1860  Doctors[get_dr_id].drHash */\n      0x00\n      add\n        /* \"contracts/Contract.sol\":1827:1861  return (Doctors[get_dr_id].drHash) */\n      dup1\n      sload\n      tag_202\n      swap1\n      tag_141\n      jump\t// in\n    tag_202:\n      dup1\n      0x1f\n      add\n      0x20\n      dup1\n      swap2\n      div\n      mul\n      0x20\n      add\n      mload(0x40)\n      swap1\n      dup2\n      add\n      0x40\n      mstore\n      dup1\n      swap3\n      swap2\n      swap1\n      dup2\n      dup2\n      mstore\n      0x20\n      add\n      dup3\n      dup1\n      sload\n      tag_203\n      swap1\n      tag_141\n      jump\t// in\n    tag_203:\n      dup1\n      iszero\n      tag_204\n      jumpi\n      dup1\n      0x1f\n      lt\n      tag_205\n      jumpi\n      0x0100\n      dup1\n      dup4\n      sload\n      div\n      mul\n      dup4\n      mstore\n      swap2\n      0x20\n      add\n      swap2\n      jump(tag_204)\n    tag_205:\n      dup3\n      add\n      swap2\n      swap1\n      0x00\n      mstore\n      keccak256(0x00, 0x20)\n      swap1\n    tag_206:\n      dup2\n      sload\n      dup2\n      mstore\n      swap1\n      0x01\n      add\n      swap1\n      0x20\n      add\n      dup1\n      dup4\n      gt\n      tag_206\n      jumpi\n      dup3\n      swap1\n      sub\n      0x1f\n      and\n      dup3\n      add\n      swap2\n    tag_204:\n      pop\n      pop\n      pop\n      pop\n      pop\n      swap1\n      pop\n        /* \"contracts/Contract.sol\":1762:1868  function getDrInfo() public view returns(string memory){... */\n      swap1\n      jump\t// out\n        /* \"contracts/Contract.sol\":2995:3086  function delPat(address _accid) external onlyAdmin(){... */\n    tag_100:\n        /* \"contracts/Contract.sol\":4267:4271  true */\n      0x01\n        /* \"contracts/Contract.sol\":4242:4271  admin.has(msg.sender) == true */\n      iszero\n      iszero\n        /* \"contracts/Contract.sol\":4242:4263  admin.has(msg.sender) */\n      tag_208\n        /* \"contracts/Contract.sol\":4252:4262  msg.sender */\n      caller\n        /* \"contracts/Contract.sol\":4242:4247  admin */\n      0x00\n        /* \"contracts/Contract.sol\":4242:4251  admin.has */\n      tag_131\n      swap1\n        /* \"contracts/Contract.sol\":4242:4263  admin.has(msg.sender) */\n      swap2\n      swap1\n      0xffffffff\n      and\n      jump\t// in\n    tag_208:\n        /* \"contracts/Contract.sol\":4242:4271  admin.has(msg.sender) == true */\n      iszero\n      iszero\n      eq\n        /* \"contracts/Contract.sol\":4234:4298  require(admin.has(msg.sender) == true, 'Only Admin Can Do That') */\n      tag_209\n      jumpi\n      mload(0x40)\n      0x08c379a000000000000000000000000000000000000000000000000000000000\n      dup2\n      mstore\n      0x04\n      add\n      tag_210\n      swap1\n      tag_161\n      jump\t// in\n    tag_210:\n      mload(0x40)\n      dup1\n      swap2\n      sub\n      swap1\n      revert\n    tag_209:\n        /* \"contracts/Contract.sol\":3057:3079  patient.remove(_accid) */\n      tag_212\n        /* \"contracts/Contract.sol\":3072:3078  _accid */\n      dup2\n        /* \"contracts/Contract.sol\":3057:3064  patient */\n      0x02\n        /* \"contracts/Contract.sol\":3057:3071  patient.remove */\n      tag_170\n      swap1\n        /* \"contracts/Contract.sol\":3057:3079  patient.remove(_accid) */\n      swap2\n      swap1\n      0xffffffff\n      and\n      jump\t// in\n    tag_212:\n        /* \"contracts/Contract.sol\":2995:3086  function delPat(address _accid) external onlyAdmin(){... */\n      pop\n      jump\t// out\n        /* \"contracts/Contract.sol\":1987:2127  function isDr(address id) public view returns(string memory){... */\n    tag_103:\n        /* \"contracts/Contract.sol\":2033:2046  string memory */\n      0x60\n        /* \"contracts/Contract.sol\":2065:2079  doctor.has(id) */\n      tag_214\n        /* \"contracts/Contract.sol\":2076:2078  id */\n      dup3\n        /* \"contracts/Contract.sol\":2065:2071  doctor */\n      0x01\n        /* \"contracts/Contract.sol\":2065:2075  doctor.has */\n      tag_131\n      swap1\n        /* \"contracts/Contract.sol\":2065:2079  doctor.has(id) */\n      swap2\n      swap1\n      0xffffffff\n      and\n      jump\t// in\n    tag_214:\n        /* \"contracts/Contract.sol\":2057:2100  require(doctor.has(id), \"Only for Doctors\") */\n      tag_215\n      jumpi\n      mload(0x40)\n      0x08c379a000000000000000000000000000000000000000000000000000000000\n      dup2\n      mstore\n      0x04\n      add\n      tag_216\n      swap1\n      tag_199\n      jump\t// in\n    tag_216:\n      mload(0x40)\n      dup1\n      swap2\n      sub\n      swap1\n      revert\n    tag_215:\n        /* \"contracts/Contract.sol\":2110:2120  return \"1\" */\n      mload(0x40)\n      dup1\n      0x40\n      add\n      0x40\n      mstore\n      dup1\n      0x01\n      dup2\n      mstore\n      0x20\n      add\n      0x3100000000000000000000000000000000000000000000000000000000000000\n      dup2\n      mstore\n      pop\n      swap1\n      pop\n        /* \"contracts/Contract.sol\":1987:2127  function isDr(address id) public view returns(string memory){... */\n      swap2\n      swap1\n      pop\n      jump\t// out\n        /* \"contracts/Contract.sol\":478:501  address[] public Dr_ids */\n    tag_107:\n      0x06\n      dup2\n      dup2\n      sload\n      dup2\n      lt\n      tag_217\n      jumpi\n      0x00\n      dup1\n      revert\n    tag_217:\n      swap1\n      0x00\n      mstore\n      keccak256(0x00, 0x20)\n      add\n      0x00\n      swap2\n      pop\n      sload\n      swap1\n      0x0100\n      exp\n      swap1\n      div\n      0xffffffffffffffffffffffffffffffffffffffff\n      and\n      dup2\n      jump\t// out\n        /* \"contracts/Contract.sol\":3266:3377  function getPatInfo(address iD)public view returns(string memory){... */\n    tag_111:\n        /* \"contracts/Contract.sol\":3317:3330  string memory */\n      0x60\n        /* \"contracts/Contract.sol\":3349:3357  Patients */\n      0x04\n        /* \"contracts/Contract.sol\":3349:3361  Patients[iD] */\n      0x00\n        /* \"contracts/Contract.sol\":3358:3360  iD */\n      dup4\n        /* \"contracts/Contract.sol\":3349:3361  Patients[iD] */\n      0xffffffffffffffffffffffffffffffffffffffff\n      and\n      0xffffffffffffffffffffffffffffffffffffffff\n      and\n      dup2\n      mstore\n      0x20\n      add\n      swap1\n      dup2\n      mstore\n      0x20\n      add\n      0x00\n      keccak256\n        /* \"contracts/Contract.sol\":3349:3369  Patients[iD].patHash */\n      0x00\n      add\n        /* \"contracts/Contract.sol\":3341:3370  return (Patients[iD].patHash) */\n      dup1\n      sload\n      tag_220\n      swap1\n      tag_141\n      jump\t// in\n    tag_220:\n      dup1\n      0x1f\n      add\n      0x20\n      dup1\n      swap2\n      div\n      mul\n      0x20\n      add\n      mload(0x40)\n      swap1\n      dup2\n      add\n      0x40\n      mstore\n      dup1\n      swap3\n      swap2\n      swap1\n      dup2\n      dup2\n      mstore\n      0x20\n      add\n      dup3\n      dup1\n      sload\n      tag_221\n      swap1\n      tag_141\n      jump\t// in\n    tag_221:\n      dup1\n      iszero\n      tag_222\n      jumpi\n      dup1\n      0x1f\n      lt\n      tag_223\n      jumpi\n      0x0100\n      dup1\n      dup4\n      sload\n      div\n      mul\n      dup4\n      mstore\n      swap2\n      0x20\n      add\n      swap2\n      jump(tag_222)\n    tag_223:\n      dup3\n      add\n      swap2\n      swap1\n      0x00\n      mstore\n      keccak256(0x00, 0x20)\n      swap1\n    tag_224:\n      dup2\n      sload\n      dup2\n      mstore\n      swap1\n      0x01\n      add\n      swap1\n      0x20\n      add\n      dup1\n      dup4\n      gt\n      tag_224\n      jumpi\n      dup3\n      swap1\n      sub\n      0x1f\n      and\n      dup3\n      add\n      swap2\n    tag_222:\n      pop\n      pop\n      pop\n      pop\n      pop\n      swap1\n      pop\n        /* \"contracts/Contract.sol\":3266:3377  function getPatInfo(address iD)public view returns(string memory){... */\n      swap2\n      swap1\n      pop\n      jump\t// out\n        /* \"contracts/Contract.sol\":2742:2902  function addRec(address _patid) external onlyDoctor() {... */\n    tag_115:\n        /* \"contracts/Contract.sol\":4386:4390  true */\n      0x01\n        /* \"contracts/Contract.sol\":4360:4390  doctor.has(msg.sender) == true */\n      iszero\n      iszero\n        /* \"contracts/Contract.sol\":4360:4382  doctor.has(msg.sender) */\n      tag_226\n        /* \"contracts/Contract.sol\":4371:4381  msg.sender */\n      caller\n        /* \"contracts/Contract.sol\":4360:4366  doctor */\n      0x01\n        /* \"contracts/Contract.sol\":4360:4370  doctor.has */\n      tag_131\n      swap1\n        /* \"contracts/Contract.sol\":4360:4382  doctor.has(msg.sender) */\n      swap2\n      swap1\n      0xffffffff\n      and\n      jump\t// in\n    tag_226:\n        /* \"contracts/Contract.sol\":4360:4390  doctor.has(msg.sender) == true */\n      iszero\n      iszero\n      eq\n        /* \"contracts/Contract.sol\":4352:4418  require(doctor.has(msg.sender) == true, 'Only Doctor Can Do That') */\n      tag_227\n      jumpi\n      mload(0x40)\n      0x08c379a000000000000000000000000000000000000000000000000000000000\n      dup2\n      mstore\n      0x04\n      add\n      tag_228\n      swap1\n      tag_229\n      jump\t// in\n    tag_228:\n      mload(0x40)\n      dup1\n      swap2\n      sub\n      swap1\n      revert\n    tag_227:\n        /* \"contracts/Contract.sol\":2837:2841  true */\n      0x01\n        /* \"contracts/Contract.sol\":2814:2841  patient.has(_patid) == true */\n      iszero\n      iszero\n        /* \"contracts/Contract.sol\":2814:2833  patient.has(_patid) */\n      tag_231\n        /* \"contracts/Contract.sol\":2826:2832  _patid */\n      dup3\n        /* \"contracts/Contract.sol\":2814:2821  patient */\n      0x02\n        /* \"contracts/Contract.sol\":2814:2825  patient.has */\n      tag_131\n      swap1\n        /* \"contracts/Contract.sol\":2814:2833  patient.has(_patid) */\n      swap2\n      swap1\n      0xffffffff\n      and\n      jump\t// in\n    tag_231:\n        /* \"contracts/Contract.sol\":2814:2841  patient.has(_patid) == true */\n      iszero\n      iszero\n      eq\n        /* \"contracts/Contract.sol\":2806:2862  require(patient.has(_patid) == true, \"is not a Patient\") */\n      tag_232\n      jumpi\n      mload(0x40)\n      0x08c379a000000000000000000000000000000000000000000000000000000000\n      dup2\n      mstore\n      0x04\n      add\n      tag_233\n      swap1\n      tag_234\n      jump\t// in\n    tag_233:\n      mload(0x40)\n      dup1\n      swap2\n      sub\n      swap1\n      revert\n    tag_232:\n        /* \"contracts/Contract.sol\":2889:2895  _patid */\n      dup1\n        /* \"contracts/Contract.sol\":2872:2886  get_patient_id */\n      0x0b\n      0x00\n        /* \"contracts/Contract.sol\":2872:2895  get_patient_id = _patid */\n      0x0100\n      exp\n      dup2\n      sload\n      dup2\n      0xffffffffffffffffffffffffffffffffffffffff\n      mul\n      not\n      and\n      swap1\n      dup4\n      0xffffffffffffffffffffffffffffffffffffffff\n      and\n      mul\n      or\n      swap1\n      sstore\n      pop\n        /* \"contracts/Contract.sol\":2742:2902  function addRec(address _patid) external onlyDoctor() {... */\n      pop\n      jump\t// out\n        /* \"contracts/Contract.sol\":1874:1981  function getDr(address _id) public view returns(string memory){... */\n    tag_118:\n        /* \"contracts/Contract.sol\":1922:1935  string memory */\n      0x60\n        /* \"contracts/Contract.sol\":1954:1961  Doctors */\n      0x03\n        /* \"contracts/Contract.sol\":1954:1966  Doctors[_id] */\n      0x00\n        /* \"contracts/Contract.sol\":1962:1965  _id */\n      dup4\n        /* \"contracts/Contract.sol\":1954:1966  Doctors[_id] */\n      0xffffffffffffffffffffffffffffffffffffffff\n      and\n      0xffffffffffffffffffffffffffffffffffffffff\n      and\n      dup2\n      mstore\n      0x20\n      add\n      swap1\n      dup2\n      mstore\n      0x20\n      add\n      0x00\n      keccak256\n        /* \"contracts/Contract.sol\":1954:1973  Doctors[_id].drHash */\n      0x00\n      add\n        /* \"contracts/Contract.sol\":1946:1974  return (Doctors[_id].drHash) */\n      dup1\n      sload\n      tag_236\n      swap1\n      tag_141\n      jump\t// in\n    tag_236:\n      dup1\n      0x1f\n      add\n      0x20\n      dup1\n      swap2\n      div\n      mul\n      0x20\n      add\n      mload(0x40)\n      swap1\n      dup2\n      add\n      0x40\n      mstore\n      dup1\n      swap3\n      swap2\n      swap1\n      dup2\n      dup2\n      mstore\n      0x20\n      add\n      dup3\n      dup1\n      sload\n      tag_237\n      swap1\n      tag_141\n      jump\t// in\n    tag_237:\n      dup1\n      iszero\n      tag_238\n      jumpi\n      dup1\n      0x1f\n      lt\n      tag_239\n      jumpi\n      0x0100\n      dup1\n      dup4\n      sload\n      div\n      mul\n      dup4\n      mstore\n      swap2\n      0x20\n      add\n      swap2\n      jump(tag_238)\n    tag_239:\n      dup3\n      add\n      swap2\n      swap1\n      0x00\n      mstore\n      keccak256(0x00, 0x20)\n      swap1\n    tag_240:\n      dup2\n      sload\n      dup2\n      mstore\n      swap1\n      0x01\n      add\n      swap1\n      0x20\n      add\n      dup1\n      dup4\n      gt\n      tag_240\n      jumpi\n      dup3\n      swap1\n      sub\n      0x1f\n      and\n      dup3\n      add\n      swap2\n    tag_238:\n      pop\n      pop\n      pop\n      pop\n      pop\n      swap1\n      pop\n        /* \"contracts/Contract.sol\":1874:1981  function getDr(address _id) public view returns(string memory){... */\n      swap2\n      swap1\n      pop\n      jump\t// out\n        /* \"contracts/Contract.sol\":3174:3261  function get_patid() public view returns(address){... */\n    tag_121:\n        /* \"contracts/Contract.sol\":3215:3222  address */\n      0x00\n        /* \"contracts/Contract.sol\":3240:3254  get_patient_id */\n      0x0b\n      0x00\n      swap1\n      sload\n      swap1\n      0x0100\n      exp\n      swap1\n      div\n      0xffffffffffffffffffffffffffffffffffffffff\n      and\n        /* \"contracts/Contract.sol\":3233:3254  return get_patient_id */\n      swap1\n      pop\n        /* \"contracts/Contract.sol\":3174:3261  function get_patid() public view returns(address){... */\n      swap1\n      jump\t// out\n        /* \"contracts/Contract.sol\":3764:4043  function addMedRecord(string memory _recHash, address _pat_id) public{... */\n    tag_126:\n        /* \"contracts/Contract.sol\":3877:3881  true */\n      0x01\n        /* \"contracts/Contract.sol\":3851:3881  doctor.has(msg.sender) == true */\n      iszero\n      iszero\n        /* \"contracts/Contract.sol\":3851:3873  doctor.has(msg.sender) */\n      tag_243\n        /* \"contracts/Contract.sol\":3862:3872  msg.sender */\n      caller\n        /* \"contracts/Contract.sol\":3851:3857  doctor */\n      0x01\n        /* \"contracts/Contract.sol\":3851:3861  doctor.has */\n      tag_131\n      swap1\n        /* \"contracts/Contract.sol\":3851:3873  doctor.has(msg.sender) */\n      swap2\n      swap1\n      0xffffffff\n      and\n      jump\t// in\n    tag_243:\n        /* \"contracts/Contract.sol\":3851:3881  doctor.has(msg.sender) == true */\n      iszero\n      iszero\n      eq\n        /* \"contracts/Contract.sol\":3843:3909  require(doctor.has(msg.sender) == true, 'Only Doctor Can Do That') */\n      tag_244\n      jumpi\n      mload(0x40)\n      0x08c379a000000000000000000000000000000000000000000000000000000000\n      dup2\n      mstore\n      0x04\n      add\n      tag_245\n      swap1\n      tag_229\n      jump\t// in\n    tag_245:\n      mload(0x40)\n      dup1\n      swap2\n      sub\n      swap1\n      revert\n    tag_244:\n        /* \"contracts/Contract.sol\":3920:3941  MedRec storage record */\n      0x00\n        /* \"contracts/Contract.sol\":3944:3951  Records */\n      0x05\n        /* \"contracts/Contract.sol\":3944:3960  Records[_pat_id] */\n      0x00\n        /* \"contracts/Contract.sol\":3952:3959  _pat_id */\n      dup4\n        /* \"contracts/Contract.sol\":3944:3960  Records[_pat_id] */\n      0xffffffffffffffffffffffffffffffffffffffff\n      and\n      0xffffffffffffffffffffffffffffffffffffffff\n      and\n      dup2\n      mstore\n      0x20\n      add\n      swap1\n      dup2\n      mstore\n      0x20\n      add\n      0x00\n      keccak256\n        /* \"contracts/Contract.sol\":3920:3960  MedRec storage record = Records[_pat_id] */\n      swap1\n      pop\n        /* \"contracts/Contract.sol\":3990:3998  _recHash */\n      dup3\n        /* \"contracts/Contract.sol\":3970:3976  record */\n      dup2\n        /* \"contracts/Contract.sol\":3970:3987  record.RecordHash */\n      0x00\n      add\n        /* \"contracts/Contract.sol\":3970:3998  record.RecordHash = _recHash */\n      swap1\n      dup1\n      mload\n      swap1\n      0x20\n      add\n      swap1\n      tag_246\n      swap3\n      swap2\n      swap1\n      tag_136\n      jump\t// in\n    tag_246:\n      pop\n        /* \"contracts/Contract.sol\":4008:4020  RecordHashes */\n      0x08\n        /* \"contracts/Contract.sol\":4026:4034  _recHash */\n      dup4\n        /* \"contracts/Contract.sol\":4008:4035  RecordHashes.push(_recHash) */\n      swap1\n      dup1\n      0x01\n      dup2\n      sload\n      add\n      dup1\n      dup3\n      sstore\n      dup1\n      swap2\n      pop\n      pop\n      0x01\n      swap1\n      sub\n      swap1\n      0x00\n      mstore\n      keccak256(0x00, 0x20)\n      add\n      0x00\n      swap1\n      swap2\n      swap1\n      swap2\n      swap1\n      swap2\n      pop\n      swap1\n      dup1\n      mload\n      swap1\n      0x20\n      add\n      swap1\n      tag_248\n      swap3\n      swap2\n      swap1\n      tag_136\n      jump\t// in\n    tag_248:\n      pop\n        /* \"contracts/Contract.sol\":3833:4043  {... */\n      pop\n        /* \"contracts/Contract.sol\":3764:4043  function addMedRecord(string memory _recHash, address _pat_id) public{... */\n      pop\n      pop\n      jump\t// out\n        /* \"contracts/Roles.sol\":293:468  function add(Role storage role, address account) internal {... */\n    tag_127:\n        /* \"contracts/Roles.sol\":370:388  has(role, account) */\n      tag_250\n        /* \"contracts/Roles.sol\":374:378  role */\n      dup3\n        /* \"contracts/Roles.sol\":380:387  account */\n      dup3\n        /* \"contracts/Roles.sol\":370:373  has */\n      tag_131\n        /* \"contracts/Roles.sol\":370:388  has(role, account) */\n      jump\t// in\n    tag_250:\n        /* \"contracts/Roles.sol\":369:388  !has(role, account) */\n      iszero\n        /* \"contracts/Roles.sol\":361:424  require(!has(role, account), \"Roles: account already has role\") */\n      tag_251\n      jumpi\n      mload(0x40)\n      0x08c379a000000000000000000000000000000000000000000000000000000000\n      dup2\n      mstore\n      0x04\n      add\n      tag_252\n      swap1\n      tag_253\n      jump\t// in\n    tag_252:\n      mload(0x40)\n      dup1\n      swap2\n      sub\n      swap1\n      revert\n    tag_251:\n        /* \"contracts/Roles.sol\":457:461  true */\n      0x01\n        /* \"contracts/Roles.sol\":434:438  role */\n      dup3\n        /* \"contracts/Roles.sol\":434:445  role.bearer */\n      0x00\n      add\n        /* \"contracts/Roles.sol\":434:454  role.bearer[account] */\n      0x00\n        /* \"contracts/Roles.sol\":446:453  account */\n      dup4\n        /* \"contracts/Roles.sol\":434:454  role.bearer[account] */\n      0xffffffffffffffffffffffffffffffffffffffff\n      and\n      0xffffffffffffffffffffffffffffffffffffffff\n      and\n      dup2\n      mstore\n      0x20\n      add\n      swap1\n      dup2\n      mstore\n      0x20\n      add\n      0x00\n      keccak256\n      0x00\n        /* \"contracts/Roles.sol\":434:461  role.bearer[account] = true */\n      0x0100\n      exp\n      dup2\n      sload\n      dup2\n      0xff\n      mul\n      not\n      and\n      swap1\n      dup4\n      iszero\n      iszero\n      mul\n      or\n      swap1\n      sstore\n      pop\n        /* \"contracts/Roles.sol\":293:468  function add(Role storage role, address account) internal {... */\n      pop\n      pop\n      jump\t// out\n        /* \"contracts/Roles.sol\":812:1012  function has(Role storage role, address account) internal view returns (bool) {... */\n    tag_131:\n        /* \"contracts/Roles.sol\":884:888  bool */\n      0x00\n        /* \"contracts/Roles.sol\":927:928  0 */\n      dup1\n        /* \"contracts/Roles.sol\":908:929  account != address(0) */\n      0xffffffffffffffffffffffffffffffffffffffff\n      and\n        /* \"contracts/Roles.sol\":908:915  account */\n      dup3\n        /* \"contracts/Roles.sol\":908:929  account != address(0) */\n      0xffffffffffffffffffffffffffffffffffffffff\n      and\n      sub\n        /* \"contracts/Roles.sol\":900:968  require(account != address(0), \"Roles: account is the zero address\") */\n      tag_255\n      jumpi\n      mload(0x40)\n      0x08c379a000000000000000000000000000000000000000000000000000000000\n      dup2\n      mstore\n      0x04\n      add\n      tag_256\n      swap1\n      tag_257\n      jump\t// in\n    tag_256:\n      mload(0x40)\n      dup1\n      swap2\n      sub\n      swap1\n      revert\n    tag_255:\n        /* \"contracts/Roles.sol\":985:989  role */\n      dup3\n        /* \"contracts/Roles.sol\":985:996  role.bearer */\n      0x00\n      add\n        /* \"contracts/Roles.sol\":985:1005  role.bearer[account] */\n      0x00\n        /* \"contracts/Roles.sol\":997:1004  account */\n      dup4\n        /* \"contracts/Roles.sol\":985:1005  role.bearer[account] */\n      0xffffffffffffffffffffffffffffffffffffffff\n      and\n      0xffffffffffffffffffffffffffffffffffffffff\n      and\n      dup2\n      mstore\n      0x20\n      add\n      swap1\n      dup2\n      mstore\n      0x20\n      add\n      0x00\n      keccak256\n      0x00\n      swap1\n      sload\n      swap1\n      0x0100\n      exp\n      swap1\n      div\n      0xff\n      and\n        /* \"contracts/Roles.sol\":978:1005  return role.bearer[account] */\n      swap1\n      pop\n        /* \"contracts/Roles.sol\":812:1012  function has(Role storage role, address account) internal view returns (bool) {... */\n      swap3\n      swap2\n      pop\n      pop\n      jump\t// out\n        /* \"contracts/Roles.sol\":543:723  function remove(Role storage role, address account) internal {... */\n    tag_170:\n        /* \"contracts/Roles.sol\":622:640  has(role, account) */\n      tag_259\n        /* \"contracts/Roles.sol\":626:630  role */\n      dup3\n        /* \"contracts/Roles.sol\":632:639  account */\n      dup3\n        /* \"contracts/Roles.sol\":622:625  has */\n      tag_131\n        /* \"contracts/Roles.sol\":622:640  has(role, account) */\n      jump\t// in\n    tag_259:\n        /* \"contracts/Roles.sol\":614:678  require(has(role, account), \"Roles: account does not have role\") */\n      tag_260\n      jumpi\n      mload(0x40)\n      0x08c379a000000000000000000000000000000000000000000000000000000000\n      dup2\n      mstore\n      0x04\n      add\n      tag_261\n      swap1\n      tag_262\n      jump\t// in\n    tag_261:\n      mload(0x40)\n      dup1\n      swap2\n      sub\n      swap1\n      revert\n    tag_260:\n        /* \"contracts/Roles.sol\":711:716  false */\n      0x00\n        /* \"contracts/Roles.sol\":688:692  role */\n      dup3\n        /* \"contracts/Roles.sol\":688:699  role.bearer */\n      0x00\n      add\n        /* \"contracts/Roles.sol\":688:708  role.bearer[account] */\n      0x00\n        /* \"contracts/Roles.sol\":700:707  account */\n      dup4\n        /* \"contracts/Roles.sol\":688:708  role.bearer[account] */\n      0xffffffffffffffffffffffffffffffffffffffff\n      and\n      0xffffffffffffffffffffffffffffffffffffffff\n      and\n      dup2\n      mstore\n      0x20\n      add\n      swap1\n      dup2\n      mstore\n      0x20\n      add\n      0x00\n      keccak256\n      0x00\n        /* \"contracts/Roles.sol\":688:716  role.bearer[account] = false */\n      0x0100\n      exp\n      dup2\n      sload\n      dup2\n      0xff\n      mul\n      not\n      and\n      swap1\n      dup4\n      iszero\n      iszero\n      mul\n      or\n      swap1\n      sstore\n      pop\n        /* \"contracts/Roles.sol\":543:723  function remove(Role storage role, address account) internal {... */\n      pop\n      pop\n      jump\t// out\n    tag_136:\n      dup3\n      dup1\n      sload\n      tag_263\n      swap1\n      tag_141\n      jump\t// in\n    tag_263:\n      swap1\n      0x00\n      mstore\n      keccak256(0x00, 0x20)\n      swap1\n      0x1f\n      add\n      0x20\n      swap1\n      div\n      dup2\n      add\n      swap3\n      dup3\n      tag_265\n      jumpi\n      0x00\n      dup6\n      sstore\n      jump(tag_264)\n    tag_265:\n      dup3\n      0x1f\n      lt\n      tag_266\n      jumpi\n      dup1\n      mload\n      not(0xff)\n      and\n      dup4\n      dup1\n      add\n      or\n      dup6\n      sstore\n      jump(tag_264)\n    tag_266:\n      dup3\n      dup1\n      add\n      0x01\n      add\n      dup6\n      sstore\n      dup3\n      iszero\n      tag_264\n      jumpi\n      swap2\n      dup3\n      add\n    tag_267:\n      dup3\n      dup2\n      gt\n      iszero\n      tag_268\n      jumpi\n      dup3\n      mload\n      dup3\n      sstore\n      swap2\n      0x20\n      add\n      swap2\n      swap1\n      0x01\n      add\n      swap1\n      jump(tag_267)\n    tag_268:\n    tag_264:\n      pop\n      swap1\n      pop\n      tag_269\n      swap2\n      swap1\n      tag_270\n      jump\t// in\n    tag_269:\n      pop\n      swap1\n      jump\t// out\n    tag_270:\n    tag_271:\n      dup1\n      dup3\n      gt\n      iszero\n      tag_272\n      jumpi\n      0x00\n      dup2\n      0x00\n      swap1\n      sstore\n      pop\n      0x01\n      add\n      jump(tag_271)\n    tag_272:\n      pop\n      swap1\n      jump\t// out\n        /* \"#utility.yul\":7:82   */\n    tag_273:\n        /* \"#utility.yul\":40:46   */\n      0x00\n        /* \"#utility.yul\":73:75   */\n      0x40\n        /* \"#utility.yul\":67:76   */\n      mload\n        /* \"#utility.yul\":57:76   */\n      swap1\n      pop\n        /* \"#utility.yul\":7:82   */\n      swap1\n      jump\t// out\n        /* \"#utility.yul\":88:205   */\n    tag_274:\n        /* \"#utility.yul\":197:198   */\n      0x00\n        /* \"#utility.yul\":194:195   */\n      dup1\n        /* \"#utility.yul\":187:199   */\n      revert\n        /* \"#utility.yul\":211:328   */\n    tag_275:\n        /* \"#utility.yul\":320:321   */\n      0x00\n        /* \"#utility.yul\":317:318   */\n      dup1\n        /* \"#utility.yul\":310:322   */\n      revert\n        /* \"#utility.yul\":334:460   */\n    tag_276:\n        /* \"#utility.yul\":371:378   */\n      0x00\n        /* \"#utility.yul\":411:453   */\n      0xffffffffffffffffffffffffffffffffffffffff\n        /* \"#utility.yul\":404:409   */\n      dup3\n        /* \"#utility.yul\":400:454   */\n      and\n        /* \"#utility.yul\":389:454   */\n      swap1\n      pop\n        /* \"#utility.yul\":334:460   */\n      swap2\n      swap1\n      pop\n      jump\t// out\n        /* \"#utility.yul\":466:562   */\n    tag_277:\n        /* \"#utility.yul\":503:510   */\n      0x00\n        /* \"#utility.yul\":532:556   */\n      tag_324\n        /* \"#utility.yul\":550:555   */\n      dup3\n        /* \"#utility.yul\":532:556   */\n      tag_276\n      jump\t// in\n    tag_324:\n        /* \"#utility.yul\":521:556   */\n      swap1\n      pop\n        /* \"#utility.yul\":466:562   */\n      swap2\n      swap1\n      pop\n      jump\t// out\n        /* \"#utility.yul\":568:690   */\n    tag_278:\n        /* \"#utility.yul\":641:665   */\n      tag_326\n        /* \"#utility.yul\":659:664   */\n      dup2\n        /* \"#utility.yul\":641:665   */\n      tag_277\n      jump\t// in\n    tag_326:\n        /* \"#utility.yul\":634:639   */\n      dup2\n        /* \"#utility.yul\":631:666   */\n      eq\n        /* \"#utility.yul\":621:684   */\n      tag_327\n      jumpi\n        /* \"#utility.yul\":680:681   */\n      0x00\n        /* \"#utility.yul\":677:678   */\n      dup1\n        /* \"#utility.yul\":670:682   */\n      revert\n        /* \"#utility.yul\":621:684   */\n    tag_327:\n        /* \"#utility.yul\":568:690   */\n      pop\n      jump\t// out\n        /* \"#utility.yul\":696:835   */\n    tag_279:\n        /* \"#utility.yul\":742:747   */\n      0x00\n        /* \"#utility.yul\":780:786   */\n      dup2\n        /* \"#utility.yul\":767:787   */\n      calldataload\n        /* \"#utility.yul\":758:787   */\n      swap1\n      pop\n        /* \"#utility.yul\":796:829   */\n      tag_329\n        /* \"#utility.yul\":823:828   */\n      dup2\n        /* \"#utility.yul\":796:829   */\n      tag_278\n      jump\t// in\n    tag_329:\n        /* \"#utility.yul\":696:835   */\n      swap3\n      swap2\n      pop\n      pop\n      jump\t// out\n        /* \"#utility.yul\":841:1170   */\n    tag_36:\n        /* \"#utility.yul\":900:906   */\n      0x00\n        /* \"#utility.yul\":949:951   */\n      0x20\n        /* \"#utility.yul\":937:946   */\n      dup3\n        /* \"#utility.yul\":928:935   */\n      dup5\n        /* \"#utility.yul\":924:947   */\n      sub\n        /* \"#utility.yul\":920:952   */\n      slt\n        /* \"#utility.yul\":917:1036   */\n      iszero\n      tag_331\n      jumpi\n        /* \"#utility.yul\":955:1034   */\n      tag_332\n      tag_274\n      jump\t// in\n    tag_332:\n        /* \"#utility.yul\":917:1036   */\n    tag_331:\n        /* \"#utility.yul\":1075:1076   */\n      0x00\n        /* \"#utility.yul\":1100:1153   */\n      tag_333\n        /* \"#utility.yul\":1145:1152   */\n      dup5\n        /* \"#utility.yul\":1136:1142   */\n      dup3\n        /* \"#utility.yul\":1125:1134   */\n      dup6\n        /* \"#utility.yul\":1121:1143   */\n      add\n        /* \"#utility.yul\":1100:1153   */\n      tag_279\n      jump\t// in\n    tag_333:\n        /* \"#utility.yul\":1090:1153   */\n      swap2\n      pop\n        /* \"#utility.yul\":1046:1163   */\n      pop\n        /* \"#utility.yul\":841:1170   */\n      swap3\n      swap2\n      pop\n      pop\n      jump\t// out\n        /* \"#utility.yul\":1176:1293   */\n    tag_280:\n        /* \"#utility.yul\":1285:1286   */\n      0x00\n        /* \"#utility.yul\":1282:1283   */\n      dup1\n        /* \"#utility.yul\":1275:1287   */\n      revert\n        /* \"#utility.yul\":1299:1416   */\n    tag_281:\n        /* \"#utility.yul\":1408:1409   */\n      0x00\n        /* \"#utility.yul\":1405:1406   */\n      dup1\n        /* \"#utility.yul\":1398:1410   */\n      revert\n        /* \"#utility.yul\":1422:1524   */\n    tag_282:\n        /* \"#utility.yul\":1463:1469   */\n      0x00\n        /* \"#utility.yul\":1514:1516   */\n      0x1f\n        /* \"#utility.yul\":1510:1517   */\n      not\n        /* \"#utility.yul\":1505:1507   */\n      0x1f\n        /* \"#utility.yul\":1498:1503   */\n      dup4\n        /* \"#utility.yul\":1494:1508   */\n      add\n        /* \"#utility.yul\":1490:1518   */\n      and\n        /* \"#utility.yul\":1480:1518   */\n      swap1\n      pop\n        /* \"#utility.yul\":1422:1524   */\n      swap2\n      swap1\n      pop\n      jump\t// out\n        /* \"#utility.yul\":1530:1710   */\n    tag_283:\n        /* \"#utility.yul\":1578:1655   */\n      0x4e487b7100000000000000000000000000000000000000000000000000000000\n        /* \"#utility.yul\":1575:1576   */\n      0x00\n        /* \"#utility.yul\":1568:1656   */\n      mstore\n        /* \"#utility.yul\":1675:1679   */\n      0x41\n        /* \"#utility.yul\":1672:1673   */\n      0x04\n        /* \"#utility.yul\":1665:1680   */\n      mstore\n        /* \"#utility.yul\":1699:1703   */\n      0x24\n        /* \"#utility.yul\":1696:1697   */\n      0x00\n        /* \"#utility.yul\":1689:1704   */\n      revert\n        /* \"#utility.yul\":1716:1997   */\n    tag_284:\n        /* \"#utility.yul\":1799:1826   */\n      tag_339\n        /* \"#utility.yul\":1821:1825   */\n      dup3\n        /* \"#utility.yul\":1799:1826   */\n      tag_282\n      jump\t// in\n    tag_339:\n        /* \"#utility.yul\":1791:1797   */\n      dup2\n        /* \"#utility.yul\":1787:1827   */\n      add\n        /* \"#utility.yul\":1929:1935   */\n      dup2\n        /* \"#utility.yul\":1917:1927   */\n      dup2\n        /* \"#utility.yul\":1914:1936   */\n      lt\n        /* \"#utility.yul\":1893:1911   */\n      0xffffffffffffffff\n        /* \"#utility.yul\":1881:1891   */\n      dup3\n        /* \"#utility.yul\":1878:1912   */\n      gt\n        /* \"#utility.yul\":1875:1937   */\n      or\n        /* \"#utility.yul\":1872:1960   */\n      iszero\n      tag_340\n      jumpi\n        /* \"#utility.yul\":1940:1958   */\n      tag_341\n      tag_283\n      jump\t// in\n    tag_341:\n        /* \"#utility.yul\":1872:1960   */\n    tag_340:\n        /* \"#utility.yul\":1980:1990   */\n      dup1\n        /* \"#utility.yul\":1976:1978   */\n      0x40\n        /* \"#utility.yul\":1969:1991   */\n      mstore\n        /* \"#utility.yul\":1759:1997   */\n      pop\n        /* \"#utility.yul\":1716:1997   */\n      pop\n      pop\n      jump\t// out\n        /* \"#utility.yul\":2003:2132   */\n    tag_285:\n        /* \"#utility.yul\":2037:2043   */\n      0x00\n        /* \"#utility.yul\":2064:2084   */\n      tag_343\n      tag_273\n      jump\t// in\n    tag_343:\n        /* \"#utility.yul\":2054:2084   */\n      swap1\n      pop\n        /* \"#utility.yul\":2093:2126   */\n      tag_344\n        /* \"#utility.yul\":2121:2125   */\n      dup3\n        /* \"#utility.yul\":2113:2119   */\n      dup3\n        /* \"#utility.yul\":2093:2126   */\n      tag_284\n      jump\t// in\n    tag_344:\n        /* \"#utility.yul\":2003:2132   */\n      swap2\n      swap1\n      pop\n      jump\t// out\n        /* \"#utility.yul\":2138:2446   */\n    tag_286:\n        /* \"#utility.yul\":2200:2204   */\n      0x00\n        /* \"#utility.yul\":2290:2308   */\n      0xffffffffffffffff\n        /* \"#utility.yul\":2282:2288   */\n      dup3\n        /* \"#utility.yul\":2279:2309   */\n      gt\n        /* \"#utility.yul\":2276:2332   */\n      iszero\n      tag_346\n      jumpi\n        /* \"#utility.yul\":2312:2330   */\n      tag_347\n      tag_283\n      jump\t// in\n    tag_347:\n        /* \"#utility.yul\":2276:2332   */\n    tag_346:\n        /* \"#utility.yul\":2350:2379   */\n      tag_348\n        /* \"#utility.yul\":2372:2378   */\n      dup3\n        /* \"#utility.yul\":2350:2379   */\n      tag_282\n      jump\t// in\n    tag_348:\n        /* \"#utility.yul\":2342:2379   */\n      swap1\n      pop\n        /* \"#utility.yul\":2434:2438   */\n      0x20\n        /* \"#utility.yul\":2428:2432   */\n      dup2\n        /* \"#utility.yul\":2424:2439   */\n      add\n        /* \"#utility.yul\":2416:2439   */\n      swap1\n      pop\n        /* \"#utility.yul\":2138:2446   */\n      swap2\n      swap1\n      pop\n      jump\t// out\n        /* \"#utility.yul\":2452:2606   */\n    tag_287:\n        /* \"#utility.yul\":2536:2542   */\n      dup3\n        /* \"#utility.yul\":2531:2534   */\n      dup2\n        /* \"#utility.yul\":2526:2529   */\n      dup4\n        /* \"#utility.yul\":2513:2543   */\n      calldatacopy\n        /* \"#utility.yul\":2598:2599   */\n      0x00\n        /* \"#utility.yul\":2589:2595   */\n      dup4\n        /* \"#utility.yul\":2584:2587   */\n      dup4\n        /* \"#utility.yul\":2580:2596   */\n      add\n        /* \"#utility.yul\":2573:2600   */\n      mstore\n        /* \"#utility.yul\":2452:2606   */\n      pop\n      pop\n      pop\n      jump\t// out\n        /* \"#utility.yul\":2612:3024   */\n    tag_288:\n        /* \"#utility.yul\":2690:2695   */\n      0x00\n        /* \"#utility.yul\":2715:2781   */\n      tag_351\n        /* \"#utility.yul\":2731:2780   */\n      tag_352\n        /* \"#utility.yul\":2773:2779   */\n      dup5\n        /* \"#utility.yul\":2731:2780   */\n      tag_286\n      jump\t// in\n    tag_352:\n        /* \"#utility.yul\":2715:2781   */\n      tag_285\n      jump\t// in\n    tag_351:\n        /* \"#utility.yul\":2706:2781   */\n      swap1\n      pop\n        /* \"#utility.yul\":2804:2810   */\n      dup3\n        /* \"#utility.yul\":2797:2802   */\n      dup2\n        /* \"#utility.yul\":2790:2811   */\n      mstore\n        /* \"#utility.yul\":2842:2846   */\n      0x20\n        /* \"#utility.yul\":2835:2840   */\n      dup2\n        /* \"#utility.yul\":2831:2847   */\n      add\n        /* \"#utility.yul\":2880:2883   */\n      dup5\n        /* \"#utility.yul\":2871:2877   */\n      dup5\n        /* \"#utility.yul\":2866:2869   */\n      dup5\n        /* \"#utility.yul\":2862:2878   */\n      add\n        /* \"#utility.yul\":2859:2884   */\n      gt\n        /* \"#utility.yul\":2856:2968   */\n      iszero\n      tag_353\n      jumpi\n        /* \"#utility.yul\":2887:2966   */\n      tag_354\n      tag_281\n      jump\t// in\n    tag_354:\n        /* \"#utility.yul\":2856:2968   */\n    tag_353:\n        /* \"#utility.yul\":2977:3018   */\n      tag_355\n        /* \"#utility.yul\":3011:3017   */\n      dup5\n        /* \"#utility.yul\":3006:3009   */\n      dup3\n        /* \"#utility.yul\":3001:3004   */\n      dup6\n        /* \"#utility.yul\":2977:3018   */\n      tag_287\n      jump\t// in\n    tag_355:\n        /* \"#utility.yul\":2696:3024   */\n      pop\n        /* \"#utility.yul\":2612:3024   */\n      swap4\n      swap3\n      pop\n      pop\n      pop\n      jump\t// out\n        /* \"#utility.yul\":3044:3384   */\n    tag_289:\n        /* \"#utility.yul\":3100:3105   */\n      0x00\n        /* \"#utility.yul\":3149:3152   */\n      dup3\n        /* \"#utility.yul\":3142:3146   */\n      0x1f\n        /* \"#utility.yul\":3134:3140   */\n      dup4\n        /* \"#utility.yul\":3130:3147   */\n      add\n        /* \"#utility.yul\":3126:3153   */\n      slt\n        /* \"#utility.yul\":3116:3238   */\n      tag_357\n      jumpi\n        /* \"#utility.yul\":3157:3236   */\n      tag_358\n      tag_280\n      jump\t// in\n    tag_358:\n        /* \"#utility.yul\":3116:3238   */\n    tag_357:\n        /* \"#utility.yul\":3274:3280   */\n      dup2\n        /* \"#utility.yul\":3261:3281   */\n      calldataload\n        /* \"#utility.yul\":3299:3378   */\n      tag_359\n        /* \"#utility.yul\":3374:3377   */\n      dup5\n        /* \"#utility.yul\":3366:3372   */\n      dup3\n        /* \"#utility.yul\":3359:3363   */\n      0x20\n        /* \"#utility.yul\":3351:3357   */\n      dup7\n        /* \"#utility.yul\":3347:3364   */\n      add\n        /* \"#utility.yul\":3299:3378   */\n      tag_288\n      jump\t// in\n    tag_359:\n        /* \"#utility.yul\":3290:3378   */\n      swap2\n      pop\n        /* \"#utility.yul\":3106:3384   */\n      pop\n        /* \"#utility.yul\":3044:3384   */\n      swap3\n      swap2\n      pop\n      pop\n      jump\t// out\n        /* \"#utility.yul\":3390:4044   */\n    tag_40:\n        /* \"#utility.yul\":3468:3474   */\n      0x00\n        /* \"#utility.yul\":3476:3482   */\n      dup1\n        /* \"#utility.yul\":3525:3527   */\n      0x40\n        /* \"#utility.yul\":3513:3522   */\n      dup4\n        /* \"#utility.yul\":3504:3511   */\n      dup6\n        /* \"#utility.yul\":3500:3523   */\n      sub\n        /* \"#utility.yul\":3496:3528   */\n      slt\n        /* \"#utility.yul\":3493:3612   */\n      iszero\n      tag_361\n      jumpi\n        /* \"#utility.yul\":3531:3610   */\n      tag_362\n      tag_274\n      jump\t// in\n    tag_362:\n        /* \"#utility.yul\":3493:3612   */\n    tag_361:\n        /* \"#utility.yul\":3651:3652   */\n      0x00\n        /* \"#utility.yul\":3676:3729   */\n      tag_363\n        /* \"#utility.yul\":3721:3728   */\n      dup6\n        /* \"#utility.yul\":3712:3718   */\n      dup3\n        /* \"#utility.yul\":3701:3710   */\n      dup7\n        /* \"#utility.yul\":3697:3719   */\n      add\n        /* \"#utility.yul\":3676:3729   */\n      tag_279\n      jump\t// in\n    tag_363:\n        /* \"#utility.yul\":3666:3729   */\n      swap3\n      pop\n        /* \"#utility.yul\":3622:3739   */\n      pop\n        /* \"#utility.yul\":3806:3808   */\n      0x20\n        /* \"#utility.yul\":3795:3804   */\n      dup4\n        /* \"#utility.yul\":3791:3809   */\n      add\n        /* \"#utility.yul\":3778:3810   */\n      calldataload\n        /* \"#utility.yul\":3837:3855   */\n      0xffffffffffffffff\n        /* \"#utility.yul\":3829:3835   */\n      dup2\n        /* \"#utility.yul\":3826:3856   */\n      gt\n        /* \"#utility.yul\":3823:3940   */\n      iszero\n      tag_364\n      jumpi\n        /* \"#utility.yul\":3859:3938   */\n      tag_365\n      tag_275\n      jump\t// in\n    tag_365:\n        /* \"#utility.yul\":3823:3940   */\n    tag_364:\n        /* \"#utility.yul\":3964:4027   */\n      tag_366\n        /* \"#utility.yul\":4019:4026   */\n      dup6\n        /* \"#utility.yul\":4010:4016   */\n      dup3\n        /* \"#utility.yul\":3999:4008   */\n      dup7\n        /* \"#utility.yul\":3995:4017   */\n      add\n        /* \"#utility.yul\":3964:4027   */\n      tag_289\n      jump\t// in\n    tag_366:\n        /* \"#utility.yul\":3954:4027   */\n      swap2\n      pop\n        /* \"#utility.yul\":3749:4037   */\n      pop\n        /* \"#utility.yul\":3390:4044   */\n      swap3\n      pop\n      swap3\n      swap1\n      pop\n      jump\t// out\n        /* \"#utility.yul\":4050:4149   */\n    tag_290:\n        /* \"#utility.yul\":4102:4108   */\n      0x00\n        /* \"#utility.yul\":4136:4141   */\n      dup2\n        /* \"#utility.yul\":4130:4142   */\n      mload\n        /* \"#utility.yul\":4120:4142   */\n      swap1\n      pop\n        /* \"#utility.yul\":4050:4149   */\n      swap2\n      swap1\n      pop\n      jump\t// out\n        /* \"#utility.yul\":4155:4324   */\n    tag_291:\n        /* \"#utility.yul\":4239:4250   */\n      0x00\n        /* \"#utility.yul\":4273:4279   */\n      dup3\n        /* \"#utility.yul\":4268:4271   */\n      dup3\n        /* \"#utility.yul\":4261:4280   */\n      mstore\n        /* \"#utility.yul\":4313:4317   */\n      0x20\n        /* \"#utility.yul\":4308:4311   */\n      dup3\n        /* \"#utility.yul\":4304:4318   */\n      add\n        /* \"#utility.yul\":4289:4318   */\n      swap1\n      pop\n        /* \"#utility.yul\":4155:4324   */\n      swap3\n      swap2\n      pop\n      pop\n      jump\t// out\n        /* \"#utility.yul\":4330:4637   */\n    tag_292:\n        /* \"#utility.yul\":4398:4399   */\n      0x00\n        /* \"#utility.yul\":4408:4521   */\n    tag_370:\n        /* \"#utility.yul\":4422:4428   */\n      dup4\n        /* \"#utility.yul\":4419:4420   */\n      dup2\n        /* \"#utility.yul\":4416:4429   */\n      lt\n        /* \"#utility.yul\":4408:4521   */\n      iszero\n      tag_372\n      jumpi\n        /* \"#utility.yul\":4507:4508   */\n      dup1\n        /* \"#utility.yul\":4502:4505   */\n      dup3\n        /* \"#utility.yul\":4498:4509   */\n      add\n        /* \"#utility.yul\":4492:4510   */\n      mload\n        /* \"#utility.yul\":4488:4489   */\n      dup2\n        /* \"#utility.yul\":4483:4486   */\n      dup5\n        /* \"#utility.yul\":4479:4490   */\n      add\n        /* \"#utility.yul\":4472:4511   */\n      mstore\n        /* \"#utility.yul\":4444:4446   */\n      0x20\n        /* \"#utility.yul\":4441:4442   */\n      dup2\n        /* \"#utility.yul\":4437:4447   */\n      add\n        /* \"#utility.yul\":4432:4447   */\n      swap1\n      pop\n        /* \"#utility.yul\":4408:4521   */\n      jump(tag_370)\n    tag_372:\n        /* \"#utility.yul\":4539:4545   */\n      dup4\n        /* \"#utility.yul\":4536:4537   */\n      dup2\n        /* \"#utility.yul\":4533:4546   */\n      gt\n        /* \"#utility.yul\":4530:4631   */\n      iszero\n      tag_373\n      jumpi\n        /* \"#utility.yul\":4619:4620   */\n      0x00\n        /* \"#utility.yul\":4610:4616   */\n      dup5\n        /* \"#utility.yul\":4605:4608   */\n      dup5\n        /* \"#utility.yul\":4601:4617   */\n      add\n        /* \"#utility.yul\":4594:4621   */\n      mstore\n        /* \"#utility.yul\":4530:4631   */\n    tag_373:\n        /* \"#utility.yul\":4379:4637   */\n      pop\n        /* \"#utility.yul\":4330:4637   */\n      pop\n      pop\n      pop\n      jump\t// out\n        /* \"#utility.yul\":4643:5007   */\n    tag_293:\n        /* \"#utility.yul\":4731:4734   */\n      0x00\n        /* \"#utility.yul\":4759:4798   */\n      tag_375\n        /* \"#utility.yul\":4792:4797   */\n      dup3\n        /* \"#utility.yul\":4759:4798   */\n      tag_290\n      jump\t// in\n    tag_375:\n        /* \"#utility.yul\":4814:4885   */\n      tag_376\n        /* \"#utility.yul\":4878:4884   */\n      dup2\n        /* \"#utility.yul\":4873:4876   */\n      dup6\n        /* \"#utility.yul\":4814:4885   */\n      tag_291\n      jump\t// in\n    tag_376:\n        /* \"#utility.yul\":4807:4885   */\n      swap4\n      pop\n        /* \"#utility.yul\":4894:4946   */\n      tag_377\n        /* \"#utility.yul\":4939:4945   */\n      dup2\n        /* \"#utility.yul\":4934:4937   */\n      dup6\n        /* \"#utility.yul\":4927:4931   */\n      0x20\n        /* \"#utility.yul\":4920:4925   */\n      dup7\n        /* \"#utility.yul\":4916:4932   */\n      add\n        /* \"#utility.yul\":4894:4946   */\n      tag_292\n      jump\t// in\n    tag_377:\n        /* \"#utility.yul\":4971:5000   */\n      tag_378\n        /* \"#utility.yul\":4993:4999   */\n      dup2\n        /* \"#utility.yul\":4971:5000   */\n      tag_282\n      jump\t// in\n    tag_378:\n        /* \"#utility.yul\":4966:4969   */\n      dup5\n        /* \"#utility.yul\":4962:5001   */\n      add\n        /* \"#utility.yul\":4955:5001   */\n      swap2\n      pop\n        /* \"#utility.yul\":4735:5007   */\n      pop\n        /* \"#utility.yul\":4643:5007   */\n      swap3\n      swap2\n      pop\n      pop\n      jump\t// out\n        /* \"#utility.yul\":5013:5326   */\n    tag_45:\n        /* \"#utility.yul\":5126:5130   */\n      0x00\n        /* \"#utility.yul\":5164:5166   */\n      0x20\n        /* \"#utility.yul\":5153:5162   */\n      dup3\n        /* \"#utility.yul\":5149:5167   */\n      add\n        /* \"#utility.yul\":5141:5167   */\n      swap1\n      pop\n        /* \"#utility.yul\":5213:5222   */\n      dup2\n        /* \"#utility.yul\":5207:5211   */\n      dup2\n        /* \"#utility.yul\":5203:5223   */\n      sub\n        /* \"#utility.yul\":5199:5200   */\n      0x00\n        /* \"#utility.yul\":5188:5197   */\n      dup4\n        /* \"#utility.yul\":5184:5201   */\n      add\n        /* \"#utility.yul\":5177:5224   */\n      mstore\n        /* \"#utility.yul\":5241:5319   */\n      tag_380\n        /* \"#utility.yul\":5314:5318   */\n      dup2\n        /* \"#utility.yul\":5305:5311   */\n      dup5\n        /* \"#utility.yul\":5241:5319   */\n      tag_293\n      jump\t// in\n    tag_380:\n        /* \"#utility.yul\":5233:5319   */\n      swap1\n      pop\n        /* \"#utility.yul\":5013:5326   */\n      swap3\n      swap2\n      pop\n      pop\n      jump\t// out\n        /* \"#utility.yul\":5332:5450   */\n    tag_294:\n        /* \"#utility.yul\":5419:5443   */\n      tag_382\n        /* \"#utility.yul\":5437:5442   */\n      dup2\n        /* \"#utility.yul\":5419:5443   */\n      tag_277\n      jump\t// in\n    tag_382:\n        /* \"#utility.yul\":5414:5417   */\n      dup3\n        /* \"#utility.yul\":5407:5444   */\n      mstore\n        /* \"#utility.yul\":5332:5450   */\n      pop\n      pop\n      jump\t// out\n        /* \"#utility.yul\":5456:5678   */\n    tag_52:\n        /* \"#utility.yul\":5549:5553   */\n      0x00\n        /* \"#utility.yul\":5587:5589   */\n      0x20\n        /* \"#utility.yul\":5576:5585   */\n      dup3\n        /* \"#utility.yul\":5572:5590   */\n      add\n        /* \"#utility.yul\":5564:5590   */\n      swap1\n      pop\n        /* \"#utility.yul\":5600:5671   */\n      tag_384\n        /* \"#utility.yul\":5668:5669   */\n      0x00\n        /* \"#utility.yul\":5657:5666   */\n      dup4\n        /* \"#utility.yul\":5653:5670   */\n      add\n        /* \"#utility.yul\":5644:5650   */\n      dup5\n        /* \"#utility.yul\":5600:5671   */\n      tag_294\n      jump\t// in\n    tag_384:\n        /* \"#utility.yul\":5456:5678   */\n      swap3\n      swap2\n      pop\n      pop\n      jump\t// out\n        /* \"#utility.yul\":5684:5761   */\n    tag_295:\n        /* \"#utility.yul\":5721:5728   */\n      0x00\n        /* \"#utility.yul\":5750:5755   */\n      dup2\n        /* \"#utility.yul\":5739:5755   */\n      swap1\n      pop\n        /* \"#utility.yul\":5684:5761   */\n      swap2\n      swap1\n      pop\n      jump\t// out\n        /* \"#utility.yul\":5767:5889   */\n    tag_296:\n        /* \"#utility.yul\":5840:5864   */\n      tag_387\n        /* \"#utility.yul\":5858:5863   */\n      dup2\n        /* \"#utility.yul\":5840:5864   */\n      tag_295\n      jump\t// in\n    tag_387:\n        /* \"#utility.yul\":5833:5838   */\n      dup2\n        /* \"#utility.yul\":5830:5865   */\n      eq\n        /* \"#utility.yul\":5820:5883   */\n      tag_388\n      jumpi\n        /* \"#utility.yul\":5879:5880   */\n      0x00\n        /* \"#utility.yul\":5876:5877   */\n      dup1\n        /* \"#utility.yul\":5869:5881   */\n      revert\n        /* \"#utility.yul\":5820:5883   */\n    tag_388:\n        /* \"#utility.yul\":5767:5889   */\n      pop\n      jump\t// out\n        /* \"#utility.yul\":5895:6034   */\n    tag_297:\n        /* \"#utility.yul\":5941:5946   */\n      0x00\n        /* \"#utility.yul\":5979:5985   */\n      dup2\n        /* \"#utility.yul\":5966:5986   */\n      calldataload\n        /* \"#utility.yul\":5957:5986   */\n      swap1\n      pop\n        /* \"#utility.yul\":5995:6028   */\n      tag_390\n        /* \"#utility.yul\":6022:6027   */\n      dup2\n        /* \"#utility.yul\":5995:6028   */\n      tag_296\n      jump\t// in\n    tag_390:\n        /* \"#utility.yul\":5895:6034   */\n      swap3\n      swap2\n      pop\n      pop\n      jump\t// out\n        /* \"#utility.yul\":6040:6369   */\n    tag_55:\n        /* \"#utility.yul\":6099:6105   */\n      0x00\n        /* \"#utility.yul\":6148:6150   */\n      0x20\n        /* \"#utility.yul\":6136:6145   */\n      dup3\n        /* \"#utility.yul\":6127:6134   */\n      dup5\n        /* \"#utility.yul\":6123:6146   */\n      sub\n        /* \"#utility.yul\":6119:6151   */\n      slt\n        /* \"#utility.yul\":6116:6235   */\n      iszero\n      tag_392\n      jumpi\n        /* \"#utility.yul\":6154:6233   */\n      tag_393\n      tag_274\n      jump\t// in\n    tag_393:\n        /* \"#utility.yul\":6116:6235   */\n    tag_392:\n        /* \"#utility.yul\":6274:6275   */\n      0x00\n        /* \"#utility.yul\":6299:6352   */\n      tag_394\n        /* \"#utility.yul\":6344:6351   */\n      dup5\n        /* \"#utility.yul\":6335:6341   */\n      dup3\n        /* \"#utility.yul\":6324:6333   */\n      dup6\n        /* \"#utility.yul\":6320:6342   */\n      add\n        /* \"#utility.yul\":6299:6352   */\n      tag_297\n      jump\t// in\n    tag_394:\n        /* \"#utility.yul\":6289:6352   */\n      swap2\n      pop\n        /* \"#utility.yul\":6245:6362   */\n      pop\n        /* \"#utility.yul\":6040:6369   */\n      swap3\n      swap2\n      pop\n      pop\n      jump\t// out\n        /* \"#utility.yul\":6375:6493   */\n    tag_298:\n        /* \"#utility.yul\":6462:6486   */\n      tag_396\n        /* \"#utility.yul\":6480:6485   */\n      dup2\n        /* \"#utility.yul\":6462:6486   */\n      tag_295\n      jump\t// in\n    tag_396:\n        /* \"#utility.yul\":6457:6460   */\n      dup3\n        /* \"#utility.yul\":6450:6487   */\n      mstore\n        /* \"#utility.yul\":6375:6493   */\n      pop\n      pop\n      jump\t// out\n        /* \"#utility.yul\":6499:6721   */\n    tag_94:\n        /* \"#utility.yul\":6592:6596   */\n      0x00\n        /* \"#utility.yul\":6630:6632   */\n      0x20\n        /* \"#utility.yul\":6619:6628   */\n      dup3\n        /* \"#utility.yul\":6615:6633   */\n      add\n        /* \"#utility.yul\":6607:6633   */\n      swap1\n      pop\n        /* \"#utility.yul\":6643:6714   */\n      tag_398\n        /* \"#utility.yul\":6711:6712   */\n      0x00\n        /* \"#utility.yul\":6700:6709   */\n      dup4\n        /* \"#utility.yul\":6696:6713   */\n      add\n        /* \"#utility.yul\":6687:6693   */\n      dup5\n        /* \"#utility.yul\":6643:6714   */\n      tag_298\n      jump\t// in\n    tag_398:\n        /* \"#utility.yul\":6499:6721   */\n      swap3\n      swap2\n      pop\n      pop\n      jump\t// out\n        /* \"#utility.yul\":6727:7381   */\n    tag_125:\n        /* \"#utility.yul\":6805:6811   */\n      0x00\n        /* \"#utility.yul\":6813:6819   */\n      dup1\n        /* \"#utility.yul\":6862:6864   */\n      0x40\n        /* \"#utility.yul\":6850:6859   */\n      dup4\n        /* \"#utility.yul\":6841:6848   */\n      dup6\n        /* \"#utility.yul\":6837:6860   */\n      sub\n        /* \"#utility.yul\":6833:6865   */\n      slt\n        /* \"#utility.yul\":6830:6949   */\n      iszero\n      tag_400\n      jumpi\n        /* \"#utility.yul\":6868:6947   */\n      tag_401\n      tag_274\n      jump\t// in\n    tag_401:\n        /* \"#utility.yul\":6830:6949   */\n    tag_400:\n        /* \"#utility.yul\":7016:7017   */\n      0x00\n        /* \"#utility.yul\":7005:7014   */\n      dup4\n        /* \"#utility.yul\":7001:7018   */\n      add\n        /* \"#utility.yul\":6988:7019   */\n      calldataload\n        /* \"#utility.yul\":7046:7064   */\n      0xffffffffffffffff\n        /* \"#utility.yul\":7038:7044   */\n      dup2\n        /* \"#utility.yul\":7035:7065   */\n      gt\n        /* \"#utility.yul\":7032:7149   */\n      iszero\n      tag_402\n      jumpi\n        /* \"#utility.yul\":7068:7147   */\n      tag_403\n      tag_275\n      jump\t// in\n    tag_403:\n        /* \"#utility.yul\":7032:7149   */\n    tag_402:\n        /* \"#utility.yul\":7173:7236   */\n      tag_404\n        /* \"#utility.yul\":7228:7235   */\n      dup6\n        /* \"#utility.yul\":7219:7225   */\n      dup3\n        /* \"#utility.yul\":7208:7217   */\n      dup7\n        /* \"#utility.yul\":7204:7226   */\n      add\n        /* \"#utility.yul\":7173:7236   */\n      tag_289\n      jump\t// in\n    tag_404:\n        /* \"#utility.yul\":7163:7236   */\n      swap3\n      pop\n        /* \"#utility.yul\":6959:7246   */\n      pop\n        /* \"#utility.yul\":7285:7287   */\n      0x20\n        /* \"#utility.yul\":7311:7364   */\n      tag_405\n        /* \"#utility.yul\":7356:7363   */\n      dup6\n        /* \"#utility.yul\":7347:7353   */\n      dup3\n        /* \"#utility.yul\":7336:7345   */\n      dup7\n        /* \"#utility.yul\":7332:7354   */\n      add\n        /* \"#utility.yul\":7311:7364   */\n      tag_279\n      jump\t// in\n    tag_405:\n        /* \"#utility.yul\":7301:7364   */\n      swap2\n      pop\n        /* \"#utility.yul\":7256:7374   */\n      pop\n        /* \"#utility.yul\":6727:7381   */\n      swap3\n      pop\n      swap3\n      swap1\n      pop\n      jump\t// out\n        /* \"#utility.yul\":7387:7564   */\n    tag_299:\n        /* \"#utility.yul\":7527:7556   */\n      0x4f6e6c7920796f752043616e2041646420796f757220696e666f200000000000\n        /* \"#utility.yul\":7523:7524   */\n      0x00\n        /* \"#utility.yul\":7515:7521   */\n      dup3\n        /* \"#utility.yul\":7511:7525   */\n      add\n        /* \"#utility.yul\":7504:7557   */\n      mstore\n        /* \"#utility.yul\":7387:7564   */\n      pop\n      jump\t// out\n        /* \"#utility.yul\":7570:7936   */\n    tag_300:\n        /* \"#utility.yul\":7712:7715   */\n      0x00\n        /* \"#utility.yul\":7733:7800   */\n      tag_408\n        /* \"#utility.yul\":7797:7799   */\n      0x1b\n        /* \"#utility.yul\":7792:7795   */\n      dup4\n        /* \"#utility.yul\":7733:7800   */\n      tag_291\n      jump\t// in\n    tag_408:\n        /* \"#utility.yul\":7726:7800   */\n      swap2\n      pop\n        /* \"#utility.yul\":7809:7902   */\n      tag_409\n        /* \"#utility.yul\":7898:7901   */\n      dup3\n        /* \"#utility.yul\":7809:7902   */\n      tag_299\n      jump\t// in\n    tag_409:\n        /* \"#utility.yul\":7927:7929   */\n      0x20\n        /* \"#utility.yul\":7922:7925   */\n      dup3\n        /* \"#utility.yul\":7918:7930   */\n      add\n        /* \"#utility.yul\":7911:7930   */\n      swap1\n      pop\n        /* \"#utility.yul\":7570:7936   */\n      swap2\n      swap1\n      pop\n      jump\t// out\n        /* \"#utility.yul\":7942:8361   */\n    tag_134:\n        /* \"#utility.yul\":8108:8112   */\n      0x00\n        /* \"#utility.yul\":8146:8148   */\n      0x20\n        /* \"#utility.yul\":8135:8144   */\n      dup3\n        /* \"#utility.yul\":8131:8149   */\n      add\n        /* \"#utility.yul\":8123:8149   */\n      swap1\n      pop\n        /* \"#utility.yul\":8195:8204   */\n      dup2\n        /* \"#utility.yul\":8189:8193   */\n      dup2\n        /* \"#utility.yul\":8185:8205   */\n      sub\n        /* \"#utility.yul\":8181:8182   */\n      0x00\n        /* \"#utility.yul\":8170:8179   */\n      dup4\n        /* \"#utility.yul\":8166:8183   */\n      add\n        /* \"#utility.yul\":8159:8206   */\n      mstore\n        /* \"#utility.yul\":8223:8354   */\n      tag_411\n        /* \"#utility.yul\":8349:8353   */\n      dup2\n        /* \"#utility.yul\":8223:8354   */\n      tag_300\n      jump\t// in\n    tag_411:\n        /* \"#utility.yul\":8215:8354   */\n      swap1\n      pop\n        /* \"#utility.yul\":7942:8361   */\n      swap2\n      swap1\n      pop\n      jump\t// out\n        /* \"#utility.yul\":8367:8547   */\n    tag_301:\n        /* \"#utility.yul\":8415:8492   */\n      0x4e487b7100000000000000000000000000000000000000000000000000000000\n        /* \"#utility.yul\":8412:8413   */\n      0x00\n        /* \"#utility.yul\":8405:8493   */\n      mstore\n        /* \"#utility.yul\":8512:8516   */\n      0x22\n        /* \"#utility.yul\":8509:8510   */\n      0x04\n        /* \"#utility.yul\":8502:8517   */\n      mstore\n        /* \"#utility.yul\":8536:8540   */\n      0x24\n        /* \"#utility.yul\":8533:8534   */\n      0x00\n        /* \"#utility.yul\":8526:8541   */\n      revert\n        /* \"#utility.yul\":8553:8873   */\n    tag_141:\n        /* \"#utility.yul\":8597:8603   */\n      0x00\n        /* \"#utility.yul\":8634:8635   */\n      0x02\n        /* \"#utility.yul\":8628:8632   */\n      dup3\n        /* \"#utility.yul\":8624:8636   */\n      div\n        /* \"#utility.yul\":8614:8636   */\n      swap1\n      pop\n        /* \"#utility.yul\":8681:8682   */\n      0x01\n        /* \"#utility.yul\":8675:8679   */\n      dup3\n        /* \"#utility.yul\":8671:8683   */\n      and\n        /* \"#utility.yul\":8702:8720   */\n      dup1\n        /* \"#utility.yul\":8692:8773   */\n      tag_414\n      jumpi\n        /* \"#utility.yul\":8758:8762   */\n      0x7f\n        /* \"#utility.yul\":8750:8756   */\n      dup3\n        /* \"#utility.yul\":8746:8763   */\n      and\n        /* \"#utility.yul\":8736:8763   */\n      swap2\n      pop\n        /* \"#utility.yul\":8692:8773   */\n    tag_414:\n        /* \"#utility.yul\":8820:8822   */\n      0x20\n        /* \"#utility.yul\":8812:8818   */\n      dup3\n        /* \"#utility.yul\":8809:8823   */\n      lt\n        /* \"#utility.yul\":8789:8807   */\n      dup2\n        /* \"#utility.yul\":8786:8824   */\n      sub\n        /* \"#utility.yul\":8783:8867   */\n      tag_415\n      jumpi\n        /* \"#utility.yul\":8839:8857   */\n      tag_416\n      tag_301\n      jump\t// in\n    tag_416:\n        /* \"#utility.yul\":8783:8867   */\n    tag_415:\n        /* \"#utility.yul\":8604:8873   */\n      pop\n        /* \"#utility.yul\":8553:8873   */\n      swap2\n      swap1\n      pop\n      jump\t// out\n        /* \"#utility.yul\":8879:9044   */\n    tag_302:\n        /* \"#utility.yul\":9019:9036   */\n      0x4f6e6c7920466f7220446f63746f720000000000000000000000000000000000\n        /* \"#utility.yul\":9015:9016   */\n      0x00\n        /* \"#utility.yul\":9007:9013   */\n      dup3\n        /* \"#utility.yul\":9003:9017   */\n      add\n        /* \"#utility.yul\":8996:9037   */\n      mstore\n        /* \"#utility.yul\":8879:9044   */\n      pop\n      jump\t// out\n        /* \"#utility.yul\":9050:9416   */\n    tag_303:\n        /* \"#utility.yul\":9192:9195   */\n      0x00\n        /* \"#utility.yul\":9213:9280   */\n      tag_419\n        /* \"#utility.yul\":9277:9279   */\n      0x0f\n        /* \"#utility.yul\":9272:9275   */\n      dup4\n        /* \"#utility.yul\":9213:9280   */\n      tag_291\n      jump\t// in\n    tag_419:\n        /* \"#utility.yul\":9206:9280   */\n      swap2\n      pop\n        /* \"#utility.yul\":9289:9382   */\n      tag_420\n        /* \"#utility.yul\":9378:9381   */\n      dup3\n        /* \"#utility.yul\":9289:9382   */\n      tag_302\n      jump\t// in\n    tag_420:\n        /* \"#utility.yul\":9407:9409   */\n      0x20\n        /* \"#utility.yul\":9402:9405   */\n      dup3\n        /* \"#utility.yul\":9398:9410   */\n      add\n        /* \"#utility.yul\":9391:9410   */\n      swap1\n      pop\n        /* \"#utility.yul\":9050:9416   */\n      swap2\n      swap1\n      pop\n      jump\t// out\n        /* \"#utility.yul\":9422:9841   */\n    tag_150:\n        /* \"#utility.yul\":9588:9592   */\n      0x00\n        /* \"#utility.yul\":9626:9628   */\n      0x20\n        /* \"#utility.yul\":9615:9624   */\n      dup3\n        /* \"#utility.yul\":9611:9629   */\n      add\n        /* \"#utility.yul\":9603:9629   */\n      swap1\n      pop\n        /* \"#utility.yul\":9675:9684   */\n      dup2\n        /* \"#utility.yul\":9669:9673   */\n      dup2\n        /* \"#utility.yul\":9665:9685   */\n      sub\n        /* \"#utility.yul\":9661:9662   */\n      0x00\n        /* \"#utility.yul\":9650:9659   */\n      dup4\n        /* \"#utility.yul\":9646:9663   */\n      add\n        /* \"#utility.yul\":9639:9686   */\n      mstore\n        /* \"#utility.yul\":9703:9834   */\n      tag_422\n        /* \"#utility.yul\":9829:9833   */\n      dup2\n        /* \"#utility.yul\":9703:9834   */\n      tag_303\n      jump\t// in\n    tag_422:\n        /* \"#utility.yul\":9695:9834   */\n      swap1\n      pop\n        /* \"#utility.yul\":9422:9841   */\n      swap2\n      swap1\n      pop\n      jump\t// out\n        /* \"#utility.yul\":9847:10019   */\n    tag_304:\n        /* \"#utility.yul\":9987:10011   */\n      0x4f6e6c792041646d696e2043616e20446f205468617400000000000000000000\n        /* \"#utility.yul\":9983:9984   */\n      0x00\n        /* \"#utility.yul\":9975:9981   */\n      dup3\n        /* \"#utility.yul\":9971:9985   */\n      add\n        /* \"#utility.yul\":9964:10012   */\n      mstore\n        /* \"#utility.yul\":9847:10019   */\n      pop\n      jump\t// out\n        /* \"#utility.yul\":10025:10391   */\n    tag_305:\n        /* \"#utility.yul\":10167:10170   */\n      0x00\n        /* \"#utility.yul\":10188:10255   */\n      tag_425\n        /* \"#utility.yul\":10252:10254   */\n      0x16\n        /* \"#utility.yul\":10247:10250   */\n      dup4\n        /* \"#utility.yul\":10188:10255   */\n      tag_291\n      jump\t// in\n    tag_425:\n        /* \"#utility.yul\":10181:10255   */\n      swap2\n      pop\n        /* \"#utility.yul\":10264:10357   */\n      tag_426\n        /* \"#utility.yul\":10353:10356   */\n      dup3\n        /* \"#utility.yul\":10264:10357   */\n      tag_304\n      jump\t// in\n    tag_426:\n        /* \"#utility.yul\":10382:10384   */\n      0x20\n        /* \"#utility.yul\":10377:10380   */\n      dup3\n        /* \"#utility.yul\":10373:10385   */\n      add\n        /* \"#utility.yul\":10366:10385   */\n      swap1\n      pop\n        /* \"#utility.yul\":10025:10391   */\n      swap2\n      swap1\n      pop\n      jump\t// out\n        /* \"#utility.yul\":10397:10816   */\n    tag_161:\n        /* \"#utility.yul\":10563:10567   */\n      0x00\n        /* \"#utility.yul\":10601:10603   */\n      0x20\n        /* \"#utility.yul\":10590:10599   */\n      dup3\n        /* \"#utility.yul\":10586:10604   */\n      add\n        /* \"#utility.yul\":10578:10604   */\n      swap1\n      pop\n        /* \"#utility.yul\":10650:10659   */\n      dup2\n        /* \"#utility.yul\":10644:10648   */\n      dup2\n        /* \"#utility.yul\":10640:10660   */\n      sub\n        /* \"#utility.yul\":10636:10637   */\n      0x00\n        /* \"#utility.yul\":10625:10634   */\n      dup4\n        /* \"#utility.yul\":10621:10638   */\n      add\n        /* \"#utility.yul\":10614:10661   */\n      mstore\n        /* \"#utility.yul\":10678:10809   */\n      tag_428\n        /* \"#utility.yul\":10804:10808   */\n      dup2\n        /* \"#utility.yul\":10678:10809   */\n      tag_305\n      jump\t// in\n    tag_428:\n        /* \"#utility.yul\":10670:10809   */\n      swap1\n      pop\n        /* \"#utility.yul\":10397:10816   */\n      swap2\n      swap1\n      pop\n      jump\t// out\n        /* \"#utility.yul\":10822:11002   */\n    tag_184:\n        /* \"#utility.yul\":10870:10947   */\n      0x4e487b7100000000000000000000000000000000000000000000000000000000\n        /* \"#utility.yul\":10867:10868   */\n      0x00\n        /* \"#utility.yul\":10860:10948   */\n      mstore\n        /* \"#utility.yul\":10967:10971   */\n      0x32\n        /* \"#utility.yul\":10964:10965   */\n      0x04\n        /* \"#utility.yul\":10957:10972   */\n      mstore\n        /* \"#utility.yul\":10991:10995   */\n      0x24\n        /* \"#utility.yul\":10988:10989   */\n      0x00\n        /* \"#utility.yul\":10981:10996   */\n      revert\n        /* \"#utility.yul\":11008:11174   */\n    tag_306:\n        /* \"#utility.yul\":11148:11166   */\n      0x4f6e6c7920666f7220446f63746f727300000000000000000000000000000000\n        /* \"#utility.yul\":11144:11145   */\n      0x00\n        /* \"#utility.yul\":11136:11142   */\n      dup3\n        /* \"#utility.yul\":11132:11146   */\n      add\n        /* \"#utility.yul\":11125:11167   */\n      mstore\n        /* \"#utility.yul\":11008:11174   */\n      pop\n      jump\t// out\n        /* \"#utility.yul\":11180:11546   */\n    tag_307:\n        /* \"#utility.yul\":11322:11325   */\n      0x00\n        /* \"#utility.yul\":11343:11410   */\n      tag_432\n        /* \"#utility.yul\":11407:11409   */\n      0x10\n        /* \"#utility.yul\":11402:11405   */\n      dup4\n        /* \"#utility.yul\":11343:11410   */\n      tag_291\n      jump\t// in\n    tag_432:\n        /* \"#utility.yul\":11336:11410   */\n      swap2\n      pop\n        /* \"#utility.yul\":11419:11512   */\n      tag_433\n        /* \"#utility.yul\":11508:11511   */\n      dup3\n        /* \"#utility.yul\":11419:11512   */\n      tag_306\n      jump\t// in\n    tag_433:\n        /* \"#utility.yul\":11537:11539   */\n      0x20\n        /* \"#utility.yul\":11532:11535   */\n      dup3\n        /* \"#utility.yul\":11528:11540   */\n      add\n        /* \"#utility.yul\":11521:11540   */\n      swap1\n      pop\n        /* \"#utility.yul\":11180:11546   */\n      swap2\n      swap1\n      pop\n      jump\t// out\n        /* \"#utility.yul\":11552:11971   */\n    tag_199:\n        /* \"#utility.yul\":11718:11722   */\n      0x00\n        /* \"#utility.yul\":11756:11758   */\n      0x20\n        /* \"#utility.yul\":11745:11754   */\n      dup3\n        /* \"#utility.yul\":11741:11759   */\n      add\n        /* \"#utility.yul\":11733:11759   */\n      swap1\n      pop\n        /* \"#utility.yul\":11805:11814   */\n      dup2\n        /* \"#utility.yul\":11799:11803   */\n      dup2\n        /* \"#utility.yul\":11795:11815   */\n      sub\n        /* \"#utility.yul\":11791:11792   */\n      0x00\n        /* \"#utility.yul\":11780:11789   */\n      dup4\n        /* \"#utility.yul\":11776:11793   */\n      add\n        /* \"#utility.yul\":11769:11816   */\n      mstore\n        /* \"#utility.yul\":11833:11964   */\n      tag_435\n        /* \"#utility.yul\":11959:11963   */\n      dup2\n        /* \"#utility.yul\":11833:11964   */\n      tag_307\n      jump\t// in\n    tag_435:\n        /* \"#utility.yul\":11825:11964   */\n      swap1\n      pop\n        /* \"#utility.yul\":11552:11971   */\n      swap2\n      swap1\n      pop\n      jump\t// out\n        /* \"#utility.yul\":11977:12150   */\n    tag_308:\n        /* \"#utility.yul\":12117:12142   */\n      0x4f6e6c7920446f63746f722043616e20446f2054686174000000000000000000\n        /* \"#utility.yul\":12113:12114   */\n      0x00\n        /* \"#utility.yul\":12105:12111   */\n      dup3\n        /* \"#utility.yul\":12101:12115   */\n      add\n        /* \"#utility.yul\":12094:12143   */\n      mstore\n        /* \"#utility.yul\":11977:12150   */\n      pop\n      jump\t// out\n        /* \"#utility.yul\":12156:12522   */\n    tag_309:\n        /* \"#utility.yul\":12298:12301   */\n      0x00\n        /* \"#utility.yul\":12319:12386   */\n      tag_438\n        /* \"#utility.yul\":12383:12385   */\n      0x17\n        /* \"#utility.yul\":12378:12381   */\n      dup4\n        /* \"#utility.yul\":12319:12386   */\n      tag_291\n      jump\t// in\n    tag_438:\n        /* \"#utility.yul\":12312:12386   */\n      swap2\n      pop\n        /* \"#utility.yul\":12395:12488   */\n      tag_439\n        /* \"#utility.yul\":12484:12487   */\n      dup3\n        /* \"#utility.yul\":12395:12488   */\n      tag_308\n      jump\t// in\n    tag_439:\n        /* \"#utility.yul\":12513:12515   */\n      0x20\n        /* \"#utility.yul\":12508:12511   */\n      dup3\n        /* \"#utility.yul\":12504:12516   */\n      add\n        /* \"#utility.yul\":12497:12516   */\n      swap1\n      pop\n        /* \"#utility.yul\":12156:12522   */\n      swap2\n      swap1\n      pop\n      jump\t// out\n        /* \"#utility.yul\":12528:12947   */\n    tag_229:\n        /* \"#utility.yul\":12694:12698   */\n      0x00\n        /* \"#utility.yul\":12732:12734   */\n      0x20\n        /* \"#utility.yul\":12721:12730   */\n      dup3\n        /* \"#utility.yul\":12717:12735   */\n      add\n        /* \"#utility.yul\":12709:12735   */\n      swap1\n      pop\n        /* \"#utility.yul\":12781:12790   */\n      dup2\n        /* \"#utility.yul\":12775:12779   */\n      dup2\n        /* \"#utility.yul\":12771:12791   */\n      sub\n        /* \"#utility.yul\":12767:12768   */\n      0x00\n        /* \"#utility.yul\":12756:12765   */\n      dup4\n        /* \"#utility.yul\":12752:12769   */\n      add\n        /* \"#utility.yul\":12745:12792   */\n      mstore\n        /* \"#utility.yul\":12809:12940   */\n      tag_441\n        /* \"#utility.yul\":12935:12939   */\n      dup2\n        /* \"#utility.yul\":12809:12940   */\n      tag_309\n      jump\t// in\n    tag_441:\n        /* \"#utility.yul\":12801:12940   */\n      swap1\n      pop\n        /* \"#utility.yul\":12528:12947   */\n      swap2\n      swap1\n      pop\n      jump\t// out\n        /* \"#utility.yul\":12953:13119   */\n    tag_310:\n        /* \"#utility.yul\":13093:13111   */\n      0x6973206e6f7420612050617469656e7400000000000000000000000000000000\n        /* \"#utility.yul\":13089:13090   */\n      0x00\n        /* \"#utility.yul\":13081:13087   */\n      dup3\n        /* \"#utility.yul\":13077:13091   */\n      add\n        /* \"#utility.yul\":13070:13112   */\n      mstore\n        /* \"#utility.yul\":12953:13119   */\n      pop\n      jump\t// out\n        /* \"#utility.yul\":13125:13491   */\n    tag_311:\n        /* \"#utility.yul\":13267:13270   */\n      0x00\n        /* \"#utility.yul\":13288:13355   */\n      tag_444\n        /* \"#utility.yul\":13352:13354   */\n      0x10\n        /* \"#utility.yul\":13347:13350   */\n      dup4\n        /* \"#utility.yul\":13288:13355   */\n      tag_291\n      jump\t// in\n    tag_444:\n        /* \"#utility.yul\":13281:13355   */\n      swap2\n      pop\n        /* \"#utility.yul\":13364:13457   */\n      tag_445\n        /* \"#utility.yul\":13453:13456   */\n      dup3\n        /* \"#utility.yul\":13364:13457   */\n      tag_310\n      jump\t// in\n    tag_445:\n        /* \"#utility.yul\":13482:13484   */\n      0x20\n        /* \"#utility.yul\":13477:13480   */\n      dup3\n        /* \"#utility.yul\":13473:13485   */\n      add\n        /* \"#utility.yul\":13466:13485   */\n      swap1\n      pop\n        /* \"#utility.yul\":13125:13491   */\n      swap2\n      swap1\n      pop\n      jump\t// out\n        /* \"#utility.yul\":13497:13916   */\n    tag_234:\n        /* \"#utility.yul\":13663:13667   */\n      0x00\n        /* \"#utility.yul\":13701:13703   */\n      0x20\n        /* \"#utility.yul\":13690:13699   */\n      dup3\n        /* \"#utility.yul\":13686:13704   */\n      add\n        /* \"#utility.yul\":13678:13704   */\n      swap1\n      pop\n        /* \"#utility.yul\":13750:13759   */\n      dup2\n        /* \"#utility.yul\":13744:13748   */\n      dup2\n        /* \"#utility.yul\":13740:13760   */\n      sub\n        /* \"#utility.yul\":13736:13737   */\n      0x00\n        /* \"#utility.yul\":13725:13734   */\n      dup4\n        /* \"#utility.yul\":13721:13738   */\n      add\n        /* \"#utility.yul\":13714:13761   */\n      mstore\n        /* \"#utility.yul\":13778:13909   */\n      tag_447\n        /* \"#utility.yul\":13904:13908   */\n      dup2\n        /* \"#utility.yul\":13778:13909   */\n      tag_311\n      jump\t// in\n    tag_447:\n        /* \"#utility.yul\":13770:13909   */\n      swap1\n      pop\n        /* \"#utility.yul\":13497:13916   */\n      swap2\n      swap1\n      pop\n      jump\t// out\n        /* \"#utility.yul\":13922:14103   */\n    tag_312:\n        /* \"#utility.yul\":14062:14095   */\n      0x526f6c65733a206163636f756e7420616c72656164792068617320726f6c6500\n        /* \"#utility.yul\":14058:14059   */\n      0x00\n        /* \"#utility.yul\":14050:14056   */\n      dup3\n        /* \"#utility.yul\":14046:14060   */\n      add\n        /* \"#utility.yul\":14039:14096   */\n      mstore\n        /* \"#utility.yul\":13922:14103   */\n      pop\n      jump\t// out\n        /* \"#utility.yul\":14109:14475   */\n    tag_313:\n        /* \"#utility.yul\":14251:14254   */\n      0x00\n        /* \"#utility.yul\":14272:14339   */\n      tag_450\n        /* \"#utility.yul\":14336:14338   */\n      0x1f\n        /* \"#utility.yul\":14331:14334   */\n      dup4\n        /* \"#utility.yul\":14272:14339   */\n      tag_291\n      jump\t// in\n    tag_450:\n        /* \"#utility.yul\":14265:14339   */\n      swap2\n      pop\n        /* \"#utility.yul\":14348:14441   */\n      tag_451\n        /* \"#utility.yul\":14437:14440   */\n      dup3\n        /* \"#utility.yul\":14348:14441   */\n      tag_312\n      jump\t// in\n    tag_451:\n        /* \"#utility.yul\":14466:14468   */\n      0x20\n        /* \"#utility.yul\":14461:14464   */\n      dup3\n        /* \"#utility.yul\":14457:14469   */\n      add\n        /* \"#utility.yul\":14450:14469   */\n      swap1\n      pop\n        /* \"#utility.yul\":14109:14475   */\n      swap2\n      swap1\n      pop\n      jump\t// out\n        /* \"#utility.yul\":14481:14900   */\n    tag_253:\n        /* \"#utility.yul\":14647:14651   */\n      0x00\n        /* \"#utility.yul\":14685:14687   */\n      0x20\n        /* \"#utility.yul\":14674:14683   */\n      dup3\n        /* \"#utility.yul\":14670:14688   */\n      add\n        /* \"#utility.yul\":14662:14688   */\n      swap1\n      pop\n        /* \"#utility.yul\":14734:14743   */\n      dup2\n        /* \"#utility.yul\":14728:14732   */\n      dup2\n        /* \"#utility.yul\":14724:14744   */\n      sub\n        /* \"#utility.yul\":14720:14721   */\n      0x00\n        /* \"#utility.yul\":14709:14718   */\n      dup4\n        /* \"#utility.yul\":14705:14722   */\n      add\n        /* \"#utility.yul\":14698:14745   */\n      mstore\n        /* \"#utility.yul\":14762:14893   */\n      tag_453\n        /* \"#utility.yul\":14888:14892   */\n      dup2\n        /* \"#utility.yul\":14762:14893   */\n      tag_313\n      jump\t// in\n    tag_453:\n        /* \"#utility.yul\":14754:14893   */\n      swap1\n      pop\n        /* \"#utility.yul\":14481:14900   */\n      swap2\n      swap1\n      pop\n      jump\t// out\n        /* \"#utility.yul\":14906:15127   */\n    tag_314:\n        /* \"#utility.yul\":15046:15080   */\n      0x526f6c65733a206163636f756e7420697320746865207a65726f206164647265\n        /* \"#utility.yul\":15042:15043   */\n      0x00\n        /* \"#utility.yul\":15034:15040   */\n      dup3\n        /* \"#utility.yul\":15030:15044   */\n      add\n        /* \"#utility.yul\":15023:15081   */\n      mstore\n        /* \"#utility.yul\":15115:15119   */\n      0x7373000000000000000000000000000000000000000000000000000000000000\n        /* \"#utility.yul\":15110:15112   */\n      0x20\n        /* \"#utility.yul\":15102:15108   */\n      dup3\n        /* \"#utility.yul\":15098:15113   */\n      add\n        /* \"#utility.yul\":15091:15120   */\n      mstore\n        /* \"#utility.yul\":14906:15127   */\n      pop\n      jump\t// out\n        /* \"#utility.yul\":15133:15499   */\n    tag_315:\n        /* \"#utility.yul\":15275:15278   */\n      0x00\n        /* \"#utility.yul\":15296:15363   */\n      tag_456\n        /* \"#utility.yul\":15360:15362   */\n      0x22\n        /* \"#utility.yul\":15355:15358   */\n      dup4\n        /* \"#utility.yul\":15296:15363   */\n      tag_291\n      jump\t// in\n    tag_456:\n        /* \"#utility.yul\":15289:15363   */\n      swap2\n      pop\n        /* \"#utility.yul\":15372:15465   */\n      tag_457\n        /* \"#utility.yul\":15461:15464   */\n      dup3\n        /* \"#utility.yul\":15372:15465   */\n      tag_314\n      jump\t// in\n    tag_457:\n        /* \"#utility.yul\":15490:15492   */\n      0x40\n        /* \"#utility.yul\":15485:15488   */\n      dup3\n        /* \"#utility.yul\":15481:15493   */\n      add\n        /* \"#utility.yul\":15474:15493   */\n      swap1\n      pop\n        /* \"#utility.yul\":15133:15499   */\n      swap2\n      swap1\n      pop\n      jump\t// out\n        /* \"#utility.yul\":15505:15924   */\n    tag_257:\n        /* \"#utility.yul\":15671:15675   */\n      0x00\n        /* \"#utility.yul\":15709:15711   */\n      0x20\n        /* \"#utility.yul\":15698:15707   */\n      dup3\n        /* \"#utility.yul\":15694:15712   */\n      add\n        /* \"#utility.yul\":15686:15712   */\n      swap1\n      pop\n        /* \"#utility.yul\":15758:15767   */\n      dup2\n        /* \"#utility.yul\":15752:15756   */\n      dup2\n        /* \"#utility.yul\":15748:15768   */\n      sub\n        /* \"#utility.yul\":15744:15745   */\n      0x00\n        /* \"#utility.yul\":15733:15742   */\n      dup4\n        /* \"#utility.yul\":15729:15746   */\n      add\n        /* \"#utility.yul\":15722:15769   */\n      mstore\n        /* \"#utility.yul\":15786:15917   */\n      tag_459\n        /* \"#utility.yul\":15912:15916   */\n      dup2\n        /* \"#utility.yul\":15786:15917   */\n      tag_315\n      jump\t// in\n    tag_459:\n        /* \"#utility.yul\":15778:15917   */\n      swap1\n      pop\n        /* \"#utility.yul\":15505:15924   */\n      swap2\n      swap1\n      pop\n      jump\t// out\n        /* \"#utility.yul\":15930:16150   */\n    tag_316:\n        /* \"#utility.yul\":16070:16104   */\n      0x526f6c65733a206163636f756e7420646f6573206e6f74206861766520726f6c\n        /* \"#utility.yul\":16066:16067   */\n      0x00\n        /* \"#utility.yul\":16058:16064   */\n      dup3\n        /* \"#utility.yul\":16054:16068   */\n      add\n        /* \"#utility.yul\":16047:16105   */\n      mstore\n        /* \"#utility.yul\":16139:16142   */\n      0x6500000000000000000000000000000000000000000000000000000000000000\n        /* \"#utility.yul\":16134:16136   */\n      0x20\n        /* \"#utility.yul\":16126:16132   */\n      dup3\n        /* \"#utility.yul\":16122:16137   */\n      add\n        /* \"#utility.yul\":16115:16143   */\n      mstore\n        /* \"#utility.yul\":15930:16150   */\n      pop\n      jump\t// out\n        /* \"#utility.yul\":16156:16522   */\n    tag_317:\n        /* \"#utility.yul\":16298:16301   */\n      0x00\n        /* \"#utility.yul\":16319:16386   */\n      tag_462\n        /* \"#utility.yul\":16383:16385   */\n      0x21\n        /* \"#utility.yul\":16378:16381   */\n      dup4\n        /* \"#utility.yul\":16319:16386   */\n      tag_291\n      jump\t// in\n    tag_462:\n        /* \"#utility.yul\":16312:16386   */\n      swap2\n      pop\n        /* \"#utility.yul\":16395:16488   */\n      tag_463\n        /* \"#utility.yul\":16484:16487   */\n      dup3\n        /* \"#utility.yul\":16395:16488   */\n      tag_316\n      jump\t// in\n    tag_463:\n        /* \"#utility.yul\":16513:16515   */\n      0x40\n        /* \"#utility.yul\":16508:16511   */\n      dup3\n        /* \"#utility.yul\":16504:16516   */\n      add\n        /* \"#utility.yul\":16497:16516   */\n      swap1\n      pop\n        /* \"#utility.yul\":16156:16522   */\n      swap2\n      swap1\n      pop\n      jump\t// out\n        /* \"#utility.yul\":16528:16947   */\n    tag_262:\n        /* \"#utility.yul\":16694:16698   */\n      0x00\n        /* \"#utility.yul\":16732:16734   */\n      0x20\n        /* \"#utility.yul\":16721:16730   */\n      dup3\n        /* \"#utility.yul\":16717:16735   */\n      add\n        /* \"#utility.yul\":16709:16735   */\n      swap1\n      pop\n        /* \"#utility.yul\":16781:16790   */\n      dup2\n        /* \"#utility.yul\":16775:16779   */\n      dup2\n        /* \"#utility.yul\":16771:16791   */\n      sub\n        /* \"#utility.yul\":16767:16768   */\n      0x00\n        /* \"#utility.yul\":16756:16765   */\n      dup4\n        /* \"#utility.yul\":16752:16769   */\n      add\n        /* \"#utility.yul\":16745:16792   */\n      mstore\n        /* \"#utility.yul\":16809:16940   */\n      tag_465\n        /* \"#utility.yul\":16935:16939   */\n      dup2\n        /* \"#utility.yul\":16809:16940   */\n      tag_317\n      jump\t// in\n    tag_465:\n        /* \"#utility.yul\":16801:16940   */\n      swap1\n      pop\n        /* \"#utility.yul\":16528:16947   */\n      swap2\n      swap1\n      pop\n      jump\t// out\n\n    auxdata: 0xa2646970667358221220b7c7c6b0570effe7310f6c7088235fff8a394489ca7c7dfc5ba78ca4a6ea553664736f6c634300080d0033\n}\n",
				"bytecode": {
					"linkReferences": {},
					"object": "60806040523480156200001157600080fd5b5033600a60006101000a81548173ffffffffffffffffffffffffffffffffffffffff021916908373ffffffffffffffffffffffffffffffffffffffff16021790555062000090600a60009054906101000a900473ffffffffffffffffffffffffffffffffffffffff1660006200009660201b6200132e1790919060201c565b6200032e565b620000a882826200014960201b60201c565b15620000eb576040517f08c379a0000000000000000000000000000000000000000000000000000000008152600401620000e29062000274565b60405180910390fd5b60018260000160008373ffffffffffffffffffffffffffffffffffffffff1673ffffffffffffffffffffffffffffffffffffffff16815260200190815260200160002060006101000a81548160ff0219169083151502179055505050565b60008073ffffffffffffffffffffffffffffffffffffffff168273ffffffffffffffffffffffffffffffffffffffff1603620001bc576040517f08c379a0000000000000000000000000000000000000000000000000000000008152600401620001b3906200030c565b60405180910390fd5b8260000160008373ffffffffffffffffffffffffffffffffffffffff1673ffffffffffffffffffffffffffffffffffffffff16815260200190815260200160002060009054906101000a900460ff16905092915050565b600082825260208201905092915050565b7f526f6c65733a206163636f756e7420616c72656164792068617320726f6c6500600082015250565b60006200025c601f8362000213565b9150620002698262000224565b602082019050919050565b600060208201905081810360008301526200028f816200024d565b9050919050565b7f526f6c65733a206163636f756e7420697320746865207a65726f20616464726560008201527f7373000000000000000000000000000000000000000000000000000000000000602082015250565b6000620002f460228362000213565b9150620003018262000296565b604082019050919050565b600060208201905081810360008301526200032781620002e5565b9050919050565b611ec2806200033e6000396000f3fe608060405234801561001057600080fd5b506004361061018e5760003560e01c80636d4ce63c116100de578063be95687311610097578063d2fce6cc11610071578063d2fce6cc14610493578063d4fd45c4146104af578063ddf8f98b146104df578063f1a1d7d5146104fd5761018e565b8063be95687314610403578063c979783f14610433578063cc572914146104635761018e565b80636d4ce63c1461033f5780636e9960c31461035d578063720d5b4b1461037b57806379111c1c146103ab57806392bed5ce146103c95780639fd06774146103e75761018e565b80634780468f1161014b57806358dae14f1161012557806358dae14f146102a75780635ea592b0146102d7578063657a2512146103075780636d263ceb146103235761018e565b80634780468f146102535780634fe6c9501461026f578063538b30ae1461028b5761018e565b8063047f66c31461019357806311f67285146101af57806313d65d3a146101cb57806317335a95146101e95780631c7fb129146102055780632f4a4dcb14610223575b600080fd5b6101ad60048036038101906101a89190611659565b610519565b005b6101c960048036038101906101c491906117cc565b61055d565b005b6101d361068f565b6040516101e091906118b0565b60405180910390f35b61020360048036038101906101fe91906117cc565b610783565b005b61020d6108ae565b60405161021a91906118e1565b60405180910390f35b61023d60048036038101906102389190611932565b6108d8565b60405161024a91906118e1565b60405180910390f35b61026d60048036038101906102689190611659565b610917565b005b61028960048036038101906102849190611659565b610988565b005b6102a560048036038101906102a091906117cc565b6109f9565b005b6102c160048036038101906102bc9190611932565b610abd565b6040516102ce91906118b0565b60405180910390f35b6102f160048036038101906102ec9190611932565b610b69565b6040516102fe91906118e1565b60405180910390f35b610321600480360381019061031c9190611659565b610bb1565b005b61033d60048036038101906103389190611659565b610bf5565b005b610347610c66565b60405161035491906118e1565b60405180910390f35b610365610c6e565b60405161037291906118e1565b60405180910390f35b61039560048036038101906103909190611659565b610c98565b6040516103a291906118b0565b60405180910390f35b6103b3610d2a565b6040516103c0919061196e565b60405180910390f35b6103d1610d37565b6040516103de91906118b0565b60405180910390f35b61040160048036038101906103fc9190611659565b610e2b565b005b61041d60048036038101906104189190611659565b610e9c565b60405161042a91906118b0565b60405180910390f35b61044d60048036038101906104489190611932565b610f2e565b60405161045a91906118e1565b60405180910390f35b61047d60048036038101906104789190611659565b610f6d565b60405161048a91906118b0565b60405180910390f35b6104ad60048036038101906104a89190611659565b611041565b005b6104c960048036038101906104c49190611659565b611139565b6040516104d691906118b0565b60405180910390f35b6104e761120d565b6040516104f491906118e1565b60405180910390f35b61051760048036038101906105129190611989565b611237565b005b80600b60006101000a81548173ffffffffffffffffffffffffffffffffffffffff021916908373ffffffffffffffffffffffffffffffffffffffff16021790555050565b600115156105753360006113d690919063ffffffff16565b1515146105b7576040517f08c379a00000000000000000000000000000000000000000000000000000000081526004016105ae90611a31565b60405180910390fd5b6000600460003373ffffffffffffffffffffffffffffffffffffffff1673ffffffffffffffffffffffffffffffffffffffff168152602001908152602001600020905081816000019080519060200190610612929190611544565b506007339080600181540180825580915050600190039060005260206000200160009091909190916101000a81548173ffffffffffffffffffffffffffffffffffffffff021916908373ffffffffffffffffffffffffffffffffffffffff16021790555061068a83600261132e90919063ffffffff16565b505050565b606060056000600b60009054906101000a900473ffffffffffffffffffffffffffffffffffffffff1673ffffffffffffffffffffffffffffffffffffffff1673ffffffffffffffffffffffffffffffffffffffff168152602001908152602001600020600001805461070090611a80565b80601f016020809104026020016040519081016040528092919081815260200182805461072c90611a80565b80156107795780601f1061074e57610100808354040283529160200191610779565b820191906000526020600020905b81548152906001019060200180831161075c57829003601f168201915b5050505050905090565b6107973360006113d690919063ffffffff16565b6107d6576040517f08c379a00000000000000000000000000000000000000000000000000000000081526004016107cd90611afd565b60405180910390fd5b6000600360008473ffffffffffffffffffffffffffffffffffffffff1673ffffffffffffffffffffffffffffffffffffffff168152602001908152602001600020905081816000019080519060200190610831929190611544565b506006839080600181540180825580915050600190039060005260206000200160009091909190916101000a81548173ffffffffffffffffffffffffffffffffffffffff021916908373ffffffffffffffffffffffffffffffffffffffff1602179055506108a983600161132e90919063ffffffff16565b505050565b6000600c60009054906101000a900473ffffffffffffffffffffffffffffffffffffffff16905090565b600781815481106108e857600080fd5b906000526020600020016000915054906101000a900473ffffffffffffffffffffffffffffffffffffffff1681565b6001151561092f3360006113d690919063ffffffff16565b151514610971576040517f08c379a000000000000000000000000000000000000000000000000000000000815260040161096890611b69565b60405180910390fd5b61098581600161132e90919063ffffffff16565b50565b600115156109a03360006113d690919063ffffffff16565b1515146109e2576040517f08c379a00000000000000000000000000000000000000000000000000000000081526004016109d990611b69565b60405180910390fd5b6109f681600161149d90919063ffffffff16565b50565b6000600360003373ffffffffffffffffffffffffffffffffffffffff1673ffffffffffffffffffffffffffffffffffffffff168152602001908152602001600020905081816000019080519060200190610a54929190611544565b506006839080600181540180825580915050600190039060005260206000200160009091909190916101000a81548173ffffffffffffffffffffffffffffffffffffffff021916908373ffffffffffffffffffffffffffffffffffffffff160217905550505050565b60088181548110610acd57600080fd5b906000526020600020016000915090508054610ae890611a80565b80601f0160208091040260200160405190810160405280929190818152602001828054610b1490611a80565b8015610b615780601f10610b3657610100808354040283529160200191610b61565b820191906000526020600020905b815481529060010190602001808311610b4457829003601f168201915b505050505081565b600060068281548110610b7f57610b7e611b89565b5b9060005260206000200160009054906101000a900473ffffffffffffffffffffffffffffffffffffffff169050919050565b80600c60006101000a81548173ffffffffffffffffffffffffffffffffffffffff021916908373ffffffffffffffffffffffffffffffffffffffff16021790555050565b60011515610c0d3360006113d690919063ffffffff16565b151514610c4f576040517f08c379a0000000000000000000000000000000000000000000000000000000008152600401610c4690611b69565b60405180910390fd5b610c6381600261132e90919063ffffffff16565b50565b600033905090565b6000600a60009054906101000a900473ffffffffffffffffffffffffffffffffffffffff16905090565b6060610cae8260026113d690919063ffffffff16565b610ced576040517f08c379a0000000000000000000000000000000000000000000000000000000008152600401610ce490611c04565b60405180910390fd5b6040518060400160405280600181526020017f31000000000000000000000000000000000000000000000000000000000000008152509050919050565b6000600680549050905090565b606060036000600c60009054906101000a900473ffffffffffffffffffffffffffffffffffffffff1673ffffffffffffffffffffffffffffffffffffffff1673ffffffffffffffffffffffffffffffffffffffff1681526020019081526020016000206000018054610da890611a80565b80601f0160208091040260200160405190810160405280929190818152602001828054610dd490611a80565b8015610e215780601f10610df657610100808354040283529160200191610e21565b820191906000526020600020905b815481529060010190602001808311610e0457829003601f168201915b5050505050905090565b60011515610e433360006113d690919063ffffffff16565b151514610e85576040517f08c379a0000000000000000000000000000000000000000000000000000000008152600401610e7c90611b69565b60405180910390fd5b610e9981600261149d90919063ffffffff16565b50565b6060610eb28260016113d690919063ffffffff16565b610ef1576040517f08c379a0000000000000000000000000000000000000000000000000000000008152600401610ee890611c04565b60405180910390fd5b6040518060400160405280600181526020017f31000000000000000000000000000000000000000000000000000000000000008152509050919050565b60068181548110610f3e57600080fd5b906000526020600020016000915054906101000a900473ffffffffffffffffffffffffffffffffffffffff1681565b6060600460008373ffffffffffffffffffffffffffffffffffffffff1673ffffffffffffffffffffffffffffffffffffffff1681526020019081526020016000206000018054610fbc90611a80565b80601f0160208091040260200160405190810160405280929190818152602001828054610fe890611a80565b80156110355780601f1061100a57610100808354040283529160200191611035565b820191906000526020600020905b81548152906001019060200180831161101857829003601f168201915b50505050509050919050565b600115156110593360016113d690919063ffffffff16565b15151461109b576040517f08c379a000000000000000000000000000000000000000000000000000000000815260040161109290611c70565b60405180910390fd5b600115156110b38260026113d690919063ffffffff16565b1515146110f5576040517f08c379a00000000000000000000000000000000000000000000000000000000081526004016110ec90611cdc565b60405180910390fd5b80600b60006101000a81548173ffffffffffffffffffffffffffffffffffffffff021916908373ffffffffffffffffffffffffffffffffffffffff16021790555050565b6060600360008373ffffffffffffffffffffffffffffffffffffffff1673ffffffffffffffffffffffffffffffffffffffff168152602001908152602001600020600001805461118890611a80565b80601f01602080910402602001604051908101604052809291908181526020018280546111b490611a80565b80156112015780601f106111d657610100808354040283529160200191611201565b820191906000526020600020905b8154815290600101906020018083116111e457829003601f168201915b50505050509050919050565b6000600b60009054906101000a900473ffffffffffffffffffffffffffffffffffffffff16905090565b6001151561124f3360016113d690919063ffffffff16565b151514611291576040517f08c379a000000000000000000000000000000000000000000000000000000000815260040161128890611c70565b60405180910390fd5b6000600560008373ffffffffffffffffffffffffffffffffffffffff1673ffffffffffffffffffffffffffffffffffffffff1681526020019081526020016000209050828160000190805190602001906112ec929190611544565b50600883908060018154018082558091505060019003906000526020600020016000909190919091509080519060200190611328929190611544565b50505050565b61133882826113d6565b15611378576040517f08c379a000000000000000000000000000000000000000000000000000000000815260040161136f90611d48565b60405180910390fd5b60018260000160008373ffffffffffffffffffffffffffffffffffffffff1673ffffffffffffffffffffffffffffffffffffffff16815260200190815260200160002060006101000a81548160ff0219169083151502179055505050565b60008073ffffffffffffffffffffffffffffffffffffffff168273ffffffffffffffffffffffffffffffffffffffff1603611446576040517f08c379a000000000000000000000000000000000000000000000000000000000815260040161143d90611dda565b60405180910390fd5b8260000160008373ffffffffffffffffffffffffffffffffffffffff1673ffffffffffffffffffffffffffffffffffffffff16815260200190815260200160002060009054906101000a900460ff16905092915050565b6114a782826113d6565b6114e6576040517f08c379a00000000000000000000000000000000000000000000000000000000081526004016114dd90611e6c565b60405180910390fd5b60008260000160008373ffffffffffffffffffffffffffffffffffffffff1673ffffffffffffffffffffffffffffffffffffffff16815260200190815260200160002060006101000a81548160ff0219169083151502179055505050565b82805461155090611a80565b90600052602060002090601f01602090048101928261157257600085556115b9565b82601f1061158b57805160ff19168380011785556115b9565b828001600101855582156115b9579182015b828111156115b857825182559160200191906001019061159d565b5b5090506115c691906115ca565b5090565b5b808211156115e35760008160009055506001016115cb565b5090565b6000604051905090565b600080fd5b600080fd5b600073ffffffffffffffffffffffffffffffffffffffff82169050919050565b6000611626826115fb565b9050919050565b6116368161161b565b811461164157600080fd5b50565b6000813590506116538161162d565b92915050565b60006020828403121561166f5761166e6115f1565b5b600061167d84828501611644565b91505092915050565b600080fd5b600080fd5b6000601f19601f8301169050919050565b7f4e487b7100000000000000000000000000000000000000000000000000000000600052604160045260246000fd5b6116d982611690565b810181811067ffffffffffffffff821117156116f8576116f76116a1565b5b80604052505050565b600061170b6115e7565b905061171782826116d0565b919050565b600067ffffffffffffffff821115611737576117366116a1565b5b61174082611690565b9050602081019050919050565b82818337600083830152505050565b600061176f61176a8461171c565b611701565b90508281526020810184848401111561178b5761178a61168b565b5b61179684828561174d565b509392505050565b600082601f8301126117b3576117b2611686565b5b81356117c384826020860161175c565b91505092915050565b600080604083850312156117e3576117e26115f1565b5b60006117f185828601611644565b925050602083013567ffffffffffffffff811115611812576118116115f6565b5b61181e8582860161179e565b9150509250929050565b600081519050919050565b600082825260208201905092915050565b60005b83811015611862578082015181840152602081019050611847565b83811115611871576000848401525b50505050565b600061188282611828565b61188c8185611833565b935061189c818560208601611844565b6118a581611690565b840191505092915050565b600060208201905081810360008301526118ca8184611877565b905092915050565b6118db8161161b565b82525050565b60006020820190506118f660008301846118d2565b92915050565b6000819050919050565b61190f816118fc565b811461191a57600080fd5b50565b60008135905061192c81611906565b92915050565b600060208284031215611948576119476115f1565b5b60006119568482850161191d565b91505092915050565b611968816118fc565b82525050565b6000602082019050611983600083018461195f565b92915050565b600080604083850312156119a05761199f6115f1565b5b600083013567ffffffffffffffff8111156119be576119bd6115f6565b5b6119ca8582860161179e565b92505060206119db85828601611644565b9150509250929050565b7f4f6e6c7920796f752043616e2041646420796f757220696e666f200000000000600082015250565b6000611a1b601b83611833565b9150611a26826119e5565b602082019050919050565b60006020820190508181036000830152611a4a81611a0e565b9050919050565b7f4e487b7100000000000000000000000000000000000000000000000000000000600052602260045260246000fd5b60006002820490506001821680611a9857607f821691505b602082108103611aab57611aaa611a51565b5b50919050565b7f4f6e6c7920466f7220446f63746f720000000000000000000000000000000000600082015250565b6000611ae7600f83611833565b9150611af282611ab1565b602082019050919050565b60006020820190508181036000830152611b1681611ada565b9050919050565b7f4f6e6c792041646d696e2043616e20446f205468617400000000000000000000600082015250565b6000611b53601683611833565b9150611b5e82611b1d565b602082019050919050565b60006020820190508181036000830152611b8281611b46565b9050919050565b7f4e487b7100000000000000000000000000000000000000000000000000000000600052603260045260246000fd5b7f4f6e6c7920666f7220446f63746f727300000000000000000000000000000000600082015250565b6000611bee601083611833565b9150611bf982611bb8565b602082019050919050565b60006020820190508181036000830152611c1d81611be1565b9050919050565b7f4f6e6c7920446f63746f722043616e20446f2054686174000000000000000000600082015250565b6000611c5a601783611833565b9150611c6582611c24565b602082019050919050565b60006020820190508181036000830152611c8981611c4d565b9050919050565b7f6973206e6f7420612050617469656e7400000000000000000000000000000000600082015250565b6000611cc6601083611833565b9150611cd182611c90565b602082019050919050565b60006020820190508181036000830152611cf581611cb9565b9050919050565b7f526f6c65733a206163636f756e7420616c72656164792068617320726f6c6500600082015250565b6000611d32601f83611833565b9150611d3d82611cfc565b602082019050919050565b60006020820190508181036000830152611d6181611d25565b9050919050565b7f526f6c65733a206163636f756e7420697320746865207a65726f20616464726560008201527f7373000000000000000000000000000000000000000000000000000000000000602082015250565b6000611dc4602283611833565b9150611dcf82611d68565b604082019050919050565b60006020820190508181036000830152611df381611db7565b9050919050565b7f526f6c65733a206163636f756e7420646f6573206e6f74206861766520726f6c60008201527f6500000000000000000000000000000000000000000000000000000000000000602082015250565b6000611e56602183611833565b9150611e6182611dfa565b604082019050919050565b60006020820190508181036000830152611e8581611e49565b905091905056fea2646970667358221220b7c7c6b0570effe7310f6c7088235fff8a394489ca7c7dfc5ba78ca4a6ea553664736f6c634300080d0033",
					"opcodes": "PUSH1 0x80 PUSH1 0x40 MSTORE CALLVALUE DUP1 ISZERO PUSH3 0x11 JUMPI PUSH1 0x0 DUP1 REVERT JUMPDEST POP CALLER PUSH1 0xA PUSH1 0x0 PUSH2 0x100 EXP DUP2 SLOAD DUP2 PUSH20 0xFFFFFFFFFFFFFFFFFFFFFFFFFFFFFFFFFFFFFFFF MUL NOT AND SWAP1 DUP4 PUSH20 0xFFFFFFFFFFFFFFFFFFFFFFFFFFFFFFFFFFFFFFFF AND MUL OR SWAP1 SSTORE POP PUSH3 0x90 PUSH1 0xA PUSH1 0x0 SWAP1 SLOAD SWAP1 PUSH2 0x100 EXP SWAP1 DIV PUSH20 0xFFFFFFFFFFFFFFFFFFFFFFFFFFFFFFFFFFFFFFFF AND PUSH1 0x0 PUSH3 0x96 PUSH1 0x20 SHL PUSH3 0x132E OR SWAP1 SWAP2 SWAP1 PUSH1 0x20 SHR JUMP JUMPDEST PUSH3 0x32E JUMP JUMPDEST PUSH3 0xA8 DUP3 DUP3 PUSH3 0x149 PUSH1 0x20 SHL PUSH1 0x20 SHR JUMP JUMPDEST ISZERO PUSH3 0xEB JUMPI PUSH1 0x40 MLOAD PUSH32 0x8C379A000000000000000000000000000000000000000000000000000000000 DUP2 MSTORE PUSH1 0x4 ADD PUSH3 0xE2 SWAP1 PUSH3 0x274 JUMP JUMPDEST PUSH1 0x40 MLOAD DUP1 SWAP2 SUB SWAP1 REVERT JUMPDEST PUSH1 0x1 DUP3 PUSH1 0x0 ADD PUSH1 0x0 DUP4 PUSH20 0xFFFFFFFFFFFFFFFFFFFFFFFFFFFFFFFFFFFFFFFF AND PUSH20 0xFFFFFFFFFFFFFFFFFFFFFFFFFFFFFFFFFFFFFFFF AND DUP2 MSTORE PUSH1 0x20 ADD SWAP1 DUP2 MSTORE PUSH1 0x20 ADD PUSH1 0x0 KECCAK256 PUSH1 0x0 PUSH2 0x100 EXP DUP2 SLOAD DUP2 PUSH1 0xFF MUL NOT AND SWAP1 DUP4 ISZERO ISZERO MUL OR SWAP1 SSTORE POP POP POP JUMP JUMPDEST PUSH1 0x0 DUP1 PUSH20 0xFFFFFFFFFFFFFFFFFFFFFFFFFFFFFFFFFFFFFFFF AND DUP3 PUSH20 0xFFFFFFFFFFFFFFFFFFFFFFFFFFFFFFFFFFFFFFFF AND SUB PUSH3 0x1BC JUMPI PUSH1 0x40 MLOAD PUSH32 0x8C379A000000000000000000000000000000000000000000000000000000000 DUP2 MSTORE PUSH1 0x4 ADD PUSH3 0x1B3 SWAP1 PUSH3 0x30C JUMP JUMPDEST PUSH1 0x40 MLOAD DUP1 SWAP2 SUB SWAP1 REVERT JUMPDEST DUP3 PUSH1 0x0 ADD PUSH1 0x0 DUP4 PUSH20 0xFFFFFFFFFFFFFFFFFFFFFFFFFFFFFFFFFFFFFFFF AND PUSH20 0xFFFFFFFFFFFFFFFFFFFFFFFFFFFFFFFFFFFFFFFF AND DUP2 MSTORE PUSH1 0x20 ADD SWAP1 DUP2 MSTORE PUSH1 0x20 ADD PUSH1 0x0 KECCAK256 PUSH1 0x0 SWAP1 SLOAD SWAP1 PUSH2 0x100 EXP SWAP1 DIV PUSH1 0xFF AND SWAP1 POP SWAP3 SWAP2 POP POP JUMP JUMPDEST PUSH1 0x0 DUP3 DUP3 MSTORE PUSH1 0x20 DUP3 ADD SWAP1 POP SWAP3 SWAP2 POP POP JUMP JUMPDEST PUSH32 0x526F6C65733A206163636F756E7420616C72656164792068617320726F6C6500 PUSH1 0x0 DUP3 ADD MSTORE POP JUMP JUMPDEST PUSH1 0x0 PUSH3 0x25C PUSH1 0x1F DUP4 PUSH3 0x213 JUMP JUMPDEST SWAP2 POP PUSH3 0x269 DUP3 PUSH3 0x224 JUMP JUMPDEST PUSH1 0x20 DUP3 ADD SWAP1 POP SWAP2 SWAP1 POP JUMP JUMPDEST PUSH1 0x0 PUSH1 0x20 DUP3 ADD SWAP1 POP DUP2 DUP2 SUB PUSH1 0x0 DUP4 ADD MSTORE PUSH3 0x28F DUP2 PUSH3 0x24D JUMP JUMPDEST SWAP1 POP SWAP2 SWAP1 POP JUMP JUMPDEST PUSH32 0x526F6C65733A206163636F756E7420697320746865207A65726F206164647265 PUSH1 0x0 DUP3 ADD MSTORE PUSH32 0x7373000000000000000000000000000000000000000000000000000000000000 PUSH1 0x20 DUP3 ADD MSTORE POP JUMP JUMPDEST PUSH1 0x0 PUSH3 0x2F4 PUSH1 0x22 DUP4 PUSH3 0x213 JUMP JUMPDEST SWAP2 POP PUSH3 0x301 DUP3 PUSH3 0x296 JUMP JUMPDEST PUSH1 0x40 DUP3 ADD SWAP1 POP SWAP2 SWAP1 POP JUMP JUMPDEST PUSH1 0x0 PUSH1 0x20 DUP3 ADD SWAP1 POP DUP2 DUP2 SUB PUSH1 0x0 DUP4 ADD MSTORE PUSH3 0x327 DUP2 PUSH3 0x2E5 JUMP JUMPDEST SWAP1 POP SWAP2 SWAP1 POP JUMP JUMPDEST PUSH2 0x1EC2 DUP1 PUSH3 0x33E PUSH1 0x0 CODECOPY PUSH1 0x0 RETURN INVALID PUSH1 0x80 PUSH1 0x40 MSTORE CALLVALUE DUP1 ISZERO PUSH2 0x10 JUMPI PUSH1 0x0 DUP1 REVERT JUMPDEST POP PUSH1 0x4 CALLDATASIZE LT PUSH2 0x18E JUMPI PUSH1 0x0 CALLDATALOAD PUSH1 0xE0 SHR DUP1 PUSH4 0x6D4CE63C GT PUSH2 0xDE JUMPI DUP1 PUSH4 0xBE956873 GT PUSH2 0x97 JUMPI DUP1 PUSH4 0xD2FCE6CC GT PUSH2 0x71 JUMPI DUP1 PUSH4 0xD2FCE6CC EQ PUSH2 0x493 JUMPI DUP1 PUSH4 0xD4FD45C4 EQ PUSH2 0x4AF JUMPI DUP1 PUSH4 0xDDF8F98B EQ PUSH2 0x4DF JUMPI DUP1 PUSH4 0xF1A1D7D5 EQ PUSH2 0x4FD JUMPI PUSH2 0x18E JUMP JUMPDEST DUP1 PUSH4 0xBE956873 EQ PUSH2 0x403 JUMPI DUP1 PUSH4 0xC979783F EQ PUSH2 0x433 JUMPI DUP1 PUSH4 0xCC572914 EQ PUSH2 0x463 JUMPI PUSH2 0x18E JUMP JUMPDEST DUP1 PUSH4 0x6D4CE63C EQ PUSH2 0x33F JUMPI DUP1 PUSH4 0x6E9960C3 EQ PUSH2 0x35D JUMPI DUP1 PUSH4 0x720D5B4B EQ PUSH2 0x37B JUMPI DUP1 PUSH4 0x79111C1C EQ PUSH2 0x3AB JUMPI DUP1 PUSH4 0x92BED5CE EQ PUSH2 0x3C9 JUMPI DUP1 PUSH4 0x9FD06774 EQ PUSH2 0x3E7 JUMPI PUSH2 0x18E JUMP JUMPDEST DUP1 PUSH4 0x4780468F GT PUSH2 0x14B JUMPI DUP1 PUSH4 0x58DAE14F GT PUSH2 0x125 JUMPI DUP1 PUSH4 0x58DAE14F EQ PUSH2 0x2A7 JUMPI DUP1 PUSH4 0x5EA592B0 EQ PUSH2 0x2D7 JUMPI DUP1 PUSH4 0x657A2512 EQ PUSH2 0x307 JUMPI DUP1 PUSH4 0x6D263CEB EQ PUSH2 0x323 JUMPI PUSH2 0x18E JUMP JUMPDEST DUP1 PUSH4 0x4780468F EQ PUSH2 0x253 JUMPI DUP1 PUSH4 0x4FE6C950 EQ PUSH2 0x26F JUMPI DUP1 PUSH4 0x538B30AE EQ PUSH2 0x28B JUMPI PUSH2 0x18E JUMP JUMPDEST DUP1 PUSH4 0x47F66C3 EQ PUSH2 0x193 JUMPI DUP1 PUSH4 0x11F67285 EQ PUSH2 0x1AF JUMPI DUP1 PUSH4 0x13D65D3A EQ PUSH2 0x1CB JUMPI DUP1 PUSH4 0x17335A95 EQ PUSH2 0x1E9 JUMPI DUP1 PUSH4 0x1C7FB129 EQ PUSH2 0x205 JUMPI DUP1 PUSH4 0x2F4A4DCB EQ PUSH2 0x223 JUMPI JUMPDEST PUSH1 0x0 DUP1 REVERT JUMPDEST PUSH2 0x1AD PUSH1 0x4 DUP1 CALLDATASIZE SUB DUP2 ADD SWAP1 PUSH2 0x1A8 SWAP2 SWAP1 PUSH2 0x1659 JUMP JUMPDEST PUSH2 0x519 JUMP JUMPDEST STOP JUMPDEST PUSH2 0x1C9 PUSH1 0x4 DUP1 CALLDATASIZE SUB DUP2 ADD SWAP1 PUSH2 0x1C4 SWAP2 SWAP1 PUSH2 0x17CC JUMP JUMPDEST PUSH2 0x55D JUMP JUMPDEST STOP JUMPDEST PUSH2 0x1D3 PUSH2 0x68F JUMP JUMPDEST PUSH1 0x40 MLOAD PUSH2 0x1E0 SWAP2 SWAP1 PUSH2 0x18B0 JUMP JUMPDEST PUSH1 0x40 MLOAD DUP1 SWAP2 SUB SWAP1 RETURN JUMPDEST PUSH2 0x203 PUSH1 0x4 DUP1 CALLDATASIZE SUB DUP2 ADD SWAP1 PUSH2 0x1FE SWAP2 SWAP1 PUSH2 0x17CC JUMP JUMPDEST PUSH2 0x783 JUMP JUMPDEST STOP JUMPDEST PUSH2 0x20D PUSH2 0x8AE JUMP JUMPDEST PUSH1 0x40 MLOAD PUSH2 0x21A SWAP2 SWAP1 PUSH2 0x18E1 JUMP JUMPDEST PUSH1 0x40 MLOAD DUP1 SWAP2 SUB SWAP1 RETURN JUMPDEST PUSH2 0x23D PUSH1 0x4 DUP1 CALLDATASIZE SUB DUP2 ADD SWAP1 PUSH2 0x238 SWAP2 SWAP1 PUSH2 0x1932 JUMP JUMPDEST PUSH2 0x8D8 JUMP JUMPDEST PUSH1 0x40 MLOAD PUSH2 0x24A SWAP2 SWAP1 PUSH2 0x18E1 JUMP JUMPDEST PUSH1 0x40 MLOAD DUP1 SWAP2 SUB SWAP1 RETURN JUMPDEST PUSH2 0x26D PUSH1 0x4 DUP1 CALLDATASIZE SUB DUP2 ADD SWAP1 PUSH2 0x268 SWAP2 SWAP1 PUSH2 0x1659 JUMP JUMPDEST PUSH2 0x917 JUMP JUMPDEST STOP JUMPDEST PUSH2 0x289 PUSH1 0x4 DUP1 CALLDATASIZE SUB DUP2 ADD SWAP1 PUSH2 0x284 SWAP2 SWAP1 PUSH2 0x1659 JUMP JUMPDEST PUSH2 0x988 JUMP JUMPDEST STOP JUMPDEST PUSH2 0x2A5 PUSH1 0x4 DUP1 CALLDATASIZE SUB DUP2 ADD SWAP1 PUSH2 0x2A0 SWAP2 SWAP1 PUSH2 0x17CC JUMP JUMPDEST PUSH2 0x9F9 JUMP JUMPDEST STOP JUMPDEST PUSH2 0x2C1 PUSH1 0x4 DUP1 CALLDATASIZE SUB DUP2 ADD SWAP1 PUSH2 0x2BC SWAP2 SWAP1 PUSH2 0x1932 JUMP JUMPDEST PUSH2 0xABD JUMP JUMPDEST PUSH1 0x40 MLOAD PUSH2 0x2CE SWAP2 SWAP1 PUSH2 0x18B0 JUMP JUMPDEST PUSH1 0x40 MLOAD DUP1 SWAP2 SUB SWAP1 RETURN JUMPDEST PUSH2 0x2F1 PUSH1 0x4 DUP1 CALLDATASIZE SUB DUP2 ADD SWAP1 PUSH2 0x2EC SWAP2 SWAP1 PUSH2 0x1932 JUMP JUMPDEST PUSH2 0xB69 JUMP JUMPDEST PUSH1 0x40 MLOAD PUSH2 0x2FE SWAP2 SWAP1 PUSH2 0x18E1 JUMP JUMPDEST PUSH1 0x40 MLOAD DUP1 SWAP2 SUB SWAP1 RETURN JUMPDEST PUSH2 0x321 PUSH1 0x4 DUP1 CALLDATASIZE SUB DUP2 ADD SWAP1 PUSH2 0x31C SWAP2 SWAP1 PUSH2 0x1659 JUMP JUMPDEST PUSH2 0xBB1 JUMP JUMPDEST STOP JUMPDEST PUSH2 0x33D PUSH1 0x4 DUP1 CALLDATASIZE SUB DUP2 ADD SWAP1 PUSH2 0x338 SWAP2 SWAP1 PUSH2 0x1659 JUMP JUMPDEST PUSH2 0xBF5 JUMP JUMPDEST STOP JUMPDEST PUSH2 0x347 PUSH2 0xC66 JUMP JUMPDEST PUSH1 0x40 MLOAD PUSH2 0x354 SWAP2 SWAP1 PUSH2 0x18E1 JUMP JUMPDEST PUSH1 0x40 MLOAD DUP1 SWAP2 SUB SWAP1 RETURN JUMPDEST PUSH2 0x365 PUSH2 0xC6E JUMP JUMPDEST PUSH1 0x40 MLOAD PUSH2 0x372 SWAP2 SWAP1 PUSH2 0x18E1 JUMP JUMPDEST PUSH1 0x40 MLOAD DUP1 SWAP2 SUB SWAP1 RETURN JUMPDEST PUSH2 0x395 PUSH1 0x4 DUP1 CALLDATASIZE SUB DUP2 ADD SWAP1 PUSH2 0x390 SWAP2 SWAP1 PUSH2 0x1659 JUMP JUMPDEST PUSH2 0xC98 JUMP JUMPDEST PUSH1 0x40 MLOAD PUSH2 0x3A2 SWAP2 SWAP1 PUSH2 0x18B0 JUMP JUMPDEST PUSH1 0x40 MLOAD DUP1 SWAP2 SUB SWAP1 RETURN JUMPDEST PUSH2 0x3B3 PUSH2 0xD2A JUMP JUMPDEST PUSH1 0x40 MLOAD PUSH2 0x3C0 SWAP2 SWAP1 PUSH2 0x196E JUMP JUMPDEST PUSH1 0x40 MLOAD DUP1 SWAP2 SUB SWAP1 RETURN JUMPDEST PUSH2 0x3D1 PUSH2 0xD37 JUMP JUMPDEST PUSH1 0x40 MLOAD PUSH2 0x3DE SWAP2 SWAP1 PUSH2 0x18B0 JUMP JUMPDEST PUSH1 0x40 MLOAD DUP1 SWAP2 SUB SWAP1 RETURN JUMPDEST PUSH2 0x401 PUSH1 0x4 DUP1 CALLDATASIZE SUB DUP2 ADD SWAP1 PUSH2 0x3FC SWAP2 SWAP1 PUSH2 0x1659 JUMP JUMPDEST PUSH2 0xE2B JUMP JUMPDEST STOP JUMPDEST PUSH2 0x41D PUSH1 0x4 DUP1 CALLDATASIZE SUB DUP2 ADD SWAP1 PUSH2 0x418 SWAP2 SWAP1 PUSH2 0x1659 JUMP JUMPDEST PUSH2 0xE9C JUMP JUMPDEST PUSH1 0x40 MLOAD PUSH2 0x42A SWAP2 SWAP1 PUSH2 0x18B0 JUMP JUMPDEST PUSH1 0x40 MLOAD DUP1 SWAP2 SUB SWAP1 RETURN JUMPDEST PUSH2 0x44D PUSH1 0x4 DUP1 CALLDATASIZE SUB DUP2 ADD SWAP1 PUSH2 0x448 SWAP2 SWAP1 PUSH2 0x1932 JUMP JUMPDEST PUSH2 0xF2E JUMP JUMPDEST PUSH1 0x40 MLOAD PUSH2 0x45A SWAP2 SWAP1 PUSH2 0x18E1 JUMP JUMPDEST PUSH1 0x40 MLOAD DUP1 SWAP2 SUB SWAP1 RETURN JUMPDEST PUSH2 0x47D PUSH1 0x4 DUP1 CALLDATASIZE SUB DUP2 ADD SWAP1 PUSH2 0x478 SWAP2 SWAP1 PUSH2 0x1659 JUMP JUMPDEST PUSH2 0xF6D JUMP JUMPDEST PUSH1 0x40 MLOAD PUSH2 0x48A SWAP2 SWAP1 PUSH2 0x18B0 JUMP JUMPDEST PUSH1 0x40 MLOAD DUP1 SWAP2 SUB SWAP1 RETURN JUMPDEST PUSH2 0x4AD PUSH1 0x4 DUP1 CALLDATASIZE SUB DUP2 ADD SWAP1 PUSH2 0x4A8 SWAP2 SWAP1 PUSH2 0x1659 JUMP JUMPDEST PUSH2 0x1041 JUMP JUMPDEST STOP JUMPDEST PUSH2 0x4C9 PUSH1 0x4 DUP1 CALLDATASIZE SUB DUP2 ADD SWAP1 PUSH2 0x4C4 SWAP2 SWAP1 PUSH2 0x1659 JUMP JUMPDEST PUSH2 0x1139 JUMP JUMPDEST PUSH1 0x40 MLOAD PUSH2 0x4D6 SWAP2 SWAP1 PUSH2 0x18B0 JUMP JUMPDEST PUSH1 0x40 MLOAD DUP1 SWAP2 SUB SWAP1 RETURN JUMPDEST PUSH2 0x4E7 PUSH2 0x120D JUMP JUMPDEST PUSH1 0x40 MLOAD PUSH2 0x4F4 SWAP2 SWAP1 PUSH2 0x18E1 JUMP JUMPDEST PUSH1 0x40 MLOAD DUP1 SWAP2 SUB SWAP1 RETURN JUMPDEST PUSH2 0x517 PUSH1 0x4 DUP1 CALLDATASIZE SUB DUP2 ADD SWAP1 PUSH2 0x512 SWAP2 SWAP1 PUSH2 0x1989 JUMP JUMPDEST PUSH2 0x1237 JUMP JUMPDEST STOP JUMPDEST DUP1 PUSH1 0xB PUSH1 0x0 PUSH2 0x100 EXP DUP2 SLOAD DUP2 PUSH20 0xFFFFFFFFFFFFFFFFFFFFFFFFFFFFFFFFFFFFFFFF MUL NOT AND SWAP1 DUP4 PUSH20 0xFFFFFFFFFFFFFFFFFFFFFFFFFFFFFFFFFFFFFFFF AND MUL OR SWAP1 SSTORE POP POP JUMP JUMPDEST PUSH1 0x1 ISZERO ISZERO PUSH2 0x575 CALLER PUSH1 0x0 PUSH2 0x13D6 SWAP1 SWAP2 SWAP1 PUSH4 0xFFFFFFFF AND JUMP JUMPDEST ISZERO ISZERO EQ PUSH2 0x5B7 JUMPI PUSH1 0x40 MLOAD PUSH32 0x8C379A000000000000000000000000000000000000000000000000000000000 DUP2 MSTORE PUSH1 0x4 ADD PUSH2 0x5AE SWAP1 PUSH2 0x1A31 JUMP JUMPDEST PUSH1 0x40 MLOAD DUP1 SWAP2 SUB SWAP1 REVERT JUMPDEST PUSH1 0x0 PUSH1 0x4 PUSH1 0x0 CALLER PUSH20 0xFFFFFFFFFFFFFFFFFFFFFFFFFFFFFFFFFFFFFFFF AND PUSH20 0xFFFFFFFFFFFFFFFFFFFFFFFFFFFFFFFFFFFFFFFF AND DUP2 MSTORE PUSH1 0x20 ADD SWAP1 DUP2 MSTORE PUSH1 0x20 ADD PUSH1 0x0 KECCAK256 SWAP1 POP DUP2 DUP2 PUSH1 0x0 ADD SWAP1 DUP1 MLOAD SWAP1 PUSH1 0x20 ADD SWAP1 PUSH2 0x612 SWAP3 SWAP2 SWAP1 PUSH2 0x1544 JUMP JUMPDEST POP PUSH1 0x7 CALLER SWAP1 DUP1 PUSH1 0x1 DUP2 SLOAD ADD DUP1 DUP3 SSTORE DUP1 SWAP2 POP POP PUSH1 0x1 SWAP1 SUB SWAP1 PUSH1 0x0 MSTORE PUSH1 0x20 PUSH1 0x0 KECCAK256 ADD PUSH1 0x0 SWAP1 SWAP2 SWAP1 SWAP2 SWAP1 SWAP2 PUSH2 0x100 EXP DUP2 SLOAD DUP2 PUSH20 0xFFFFFFFFFFFFFFFFFFFFFFFFFFFFFFFFFFFFFFFF MUL NOT AND SWAP1 DUP4 PUSH20 0xFFFFFFFFFFFFFFFFFFFFFFFFFFFFFFFFFFFFFFFF AND MUL OR SWAP1 SSTORE POP PUSH2 0x68A DUP4 PUSH1 0x2 PUSH2 0x132E SWAP1 SWAP2 SWAP1 PUSH4 0xFFFFFFFF AND JUMP JUMPDEST POP POP POP JUMP JUMPDEST PUSH1 0x60 PUSH1 0x5 PUSH1 0x0 PUSH1 0xB PUSH1 0x0 SWAP1 SLOAD SWAP1 PUSH2 0x100 EXP SWAP1 DIV PUSH20 0xFFFFFFFFFFFFFFFFFFFFFFFFFFFFFFFFFFFFFFFF AND PUSH20 0xFFFFFFFFFFFFFFFFFFFFFFFFFFFFFFFFFFFFFFFF AND PUSH20 0xFFFFFFFFFFFFFFFFFFFFFFFFFFFFFFFFFFFFFFFF AND DUP2 MSTORE PUSH1 0x20 ADD SWAP1 DUP2 MSTORE PUSH1 0x20 ADD PUSH1 0x0 KECCAK256 PUSH1 0x0 ADD DUP1 SLOAD PUSH2 0x700 SWAP1 PUSH2 0x1A80 JUMP JUMPDEST DUP1 PUSH1 0x1F ADD PUSH1 0x20 DUP1 SWAP2 DIV MUL PUSH1 0x20 ADD PUSH1 0x40 MLOAD SWAP1 DUP2 ADD PUSH1 0x40 MSTORE DUP1 SWAP3 SWAP2 SWAP1 DUP2 DUP2 MSTORE PUSH1 0x20 ADD DUP3 DUP1 SLOAD PUSH2 0x72C SWAP1 PUSH2 0x1A80 JUMP JUMPDEST DUP1 ISZERO PUSH2 0x779 JUMPI DUP1 PUSH1 0x1F LT PUSH2 0x74E JUMPI PUSH2 0x100 DUP1 DUP4 SLOAD DIV MUL DUP4 MSTORE SWAP2 PUSH1 0x20 ADD SWAP2 PUSH2 0x779 JUMP JUMPDEST DUP3 ADD SWAP2 SWAP1 PUSH1 0x0 MSTORE PUSH1 0x20 PUSH1 0x0 KECCAK256 SWAP1 JUMPDEST DUP2 SLOAD DUP2 MSTORE SWAP1 PUSH1 0x1 ADD SWAP1 PUSH1 0x20 ADD DUP1 DUP4 GT PUSH2 0x75C JUMPI DUP3 SWAP1 SUB PUSH1 0x1F AND DUP3 ADD SWAP2 JUMPDEST POP POP POP POP POP SWAP1 POP SWAP1 JUMP JUMPDEST PUSH2 0x797 CALLER PUSH1 0x0 PUSH2 0x13D6 SWAP1 SWAP2 SWAP1 PUSH4 0xFFFFFFFF AND JUMP JUMPDEST PUSH2 0x7D6 JUMPI PUSH1 0x40 MLOAD PUSH32 0x8C379A000000000000000000000000000000000000000000000000000000000 DUP2 MSTORE PUSH1 0x4 ADD PUSH2 0x7CD SWAP1 PUSH2 0x1AFD JUMP JUMPDEST PUSH1 0x40 MLOAD DUP1 SWAP2 SUB SWAP1 REVERT JUMPDEST PUSH1 0x0 PUSH1 0x3 PUSH1 0x0 DUP5 PUSH20 0xFFFFFFFFFFFFFFFFFFFFFFFFFFFFFFFFFFFFFFFF AND PUSH20 0xFFFFFFFFFFFFFFFFFFFFFFFFFFFFFFFFFFFFFFFF AND DUP2 MSTORE PUSH1 0x20 ADD SWAP1 DUP2 MSTORE PUSH1 0x20 ADD PUSH1 0x0 KECCAK256 SWAP1 POP DUP2 DUP2 PUSH1 0x0 ADD SWAP1 DUP1 MLOAD SWAP1 PUSH1 0x20 ADD SWAP1 PUSH2 0x831 SWAP3 SWAP2 SWAP1 PUSH2 0x1544 JUMP JUMPDEST POP PUSH1 0x6 DUP4 SWAP1 DUP1 PUSH1 0x1 DUP2 SLOAD ADD DUP1 DUP3 SSTORE DUP1 SWAP2 POP POP PUSH1 0x1 SWAP1 SUB SWAP1 PUSH1 0x0 MSTORE PUSH1 0x20 PUSH1 0x0 KECCAK256 ADD PUSH1 0x0 SWAP1 SWAP2 SWAP1 SWAP2 SWAP1 SWAP2 PUSH2 0x100 EXP DUP2 SLOAD DUP2 PUSH20 0xFFFFFFFFFFFFFFFFFFFFFFFFFFFFFFFFFFFFFFFF MUL NOT AND SWAP1 DUP4 PUSH20 0xFFFFFFFFFFFFFFFFFFFFFFFFFFFFFFFFFFFFFFFF AND MUL OR SWAP1 SSTORE POP PUSH2 0x8A9 DUP4 PUSH1 0x1 PUSH2 0x132E SWAP1 SWAP2 SWAP1 PUSH4 0xFFFFFFFF AND JUMP JUMPDEST POP POP POP JUMP JUMPDEST PUSH1 0x0 PUSH1 0xC PUSH1 0x0 SWAP1 SLOAD SWAP1 PUSH2 0x100 EXP SWAP1 DIV PUSH20 0xFFFFFFFFFFFFFFFFFFFFFFFFFFFFFFFFFFFFFFFF AND SWAP1 POP SWAP1 JUMP JUMPDEST PUSH1 0x7 DUP2 DUP2 SLOAD DUP2 LT PUSH2 0x8E8 JUMPI PUSH1 0x0 DUP1 REVERT JUMPDEST SWAP1 PUSH1 0x0 MSTORE PUSH1 0x20 PUSH1 0x0 KECCAK256 ADD PUSH1 0x0 SWAP2 POP SLOAD SWAP1 PUSH2 0x100 EXP SWAP1 DIV PUSH20 0xFFFFFFFFFFFFFFFFFFFFFFFFFFFFFFFFFFFFFFFF AND DUP2 JUMP JUMPDEST PUSH1 0x1 ISZERO ISZERO PUSH2 0x92F CALLER PUSH1 0x0 PUSH2 0x13D6 SWAP1 SWAP2 SWAP1 PUSH4 0xFFFFFFFF AND JUMP JUMPDEST ISZERO ISZERO EQ PUSH2 0x971 JUMPI PUSH1 0x40 MLOAD PUSH32 0x8C379A000000000000000000000000000000000000000000000000000000000 DUP2 MSTORE PUSH1 0x4 ADD PUSH2 0x968 SWAP1 PUSH2 0x1B69 JUMP JUMPDEST PUSH1 0x40 MLOAD DUP1 SWAP2 SUB SWAP1 REVERT JUMPDEST PUSH2 0x985 DUP2 PUSH1 0x1 PUSH2 0x132E SWAP1 SWAP2 SWAP1 PUSH4 0xFFFFFFFF AND JUMP JUMPDEST POP JUMP JUMPDEST PUSH1 0x1 ISZERO ISZERO PUSH2 0x9A0 CALLER PUSH1 0x0 PUSH2 0x13D6 SWAP1 SWAP2 SWAP1 PUSH4 0xFFFFFFFF AND JUMP JUMPDEST ISZERO ISZERO EQ PUSH2 0x9E2 JUMPI PUSH1 0x40 MLOAD PUSH32 0x8C379A000000000000000000000000000000000000000000000000000000000 DUP2 MSTORE PUSH1 0x4 ADD PUSH2 0x9D9 SWAP1 PUSH2 0x1B69 JUMP JUMPDEST PUSH1 0x40 MLOAD DUP1 SWAP2 SUB SWAP1 REVERT JUMPDEST PUSH2 0x9F6 DUP2 PUSH1 0x1 PUSH2 0x149D SWAP1 SWAP2 SWAP1 PUSH4 0xFFFFFFFF AND JUMP JUMPDEST POP JUMP JUMPDEST PUSH1 0x0 PUSH1 0x3 PUSH1 0x0 CALLER PUSH20 0xFFFFFFFFFFFFFFFFFFFFFFFFFFFFFFFFFFFFFFFF AND PUSH20 0xFFFFFFFFFFFFFFFFFFFFFFFFFFFFFFFFFFFFFFFF AND DUP2 MSTORE PUSH1 0x20 ADD SWAP1 DUP2 MSTORE PUSH1 0x20 ADD PUSH1 0x0 KECCAK256 SWAP1 POP DUP2 DUP2 PUSH1 0x0 ADD SWAP1 DUP1 MLOAD SWAP1 PUSH1 0x20 ADD SWAP1 PUSH2 0xA54 SWAP3 SWAP2 SWAP1 PUSH2 0x1544 JUMP JUMPDEST POP PUSH1 0x6 DUP4 SWAP1 DUP1 PUSH1 0x1 DUP2 SLOAD ADD DUP1 DUP3 SSTORE DUP1 SWAP2 POP POP PUSH1 0x1 SWAP1 SUB SWAP1 PUSH1 0x0 MSTORE PUSH1 0x20 PUSH1 0x0 KECCAK256 ADD PUSH1 0x0 SWAP1 SWAP2 SWAP1 SWAP2 SWAP1 SWAP2 PUSH2 0x100 EXP DUP2 SLOAD DUP2 PUSH20 0xFFFFFFFFFFFFFFFFFFFFFFFFFFFFFFFFFFFFFFFF MUL NOT AND SWAP1 DUP4 PUSH20 0xFFFFFFFFFFFFFFFFFFFFFFFFFFFFFFFFFFFFFFFF AND MUL OR SWAP1 SSTORE POP POP POP POP JUMP JUMPDEST PUSH1 0x8 DUP2 DUP2 SLOAD DUP2 LT PUSH2 0xACD JUMPI PUSH1 0x0 DUP1 REVERT JUMPDEST SWAP1 PUSH1 0x0 MSTORE PUSH1 0x20 PUSH1 0x0 KECCAK256 ADD PUSH1 0x0 SWAP2 POP SWAP1 POP DUP1 SLOAD PUSH2 0xAE8 SWAP1 PUSH2 0x1A80 JUMP JUMPDEST DUP1 PUSH1 0x1F ADD PUSH1 0x20 DUP1 SWAP2 DIV MUL PUSH1 0x20 ADD PUSH1 0x40 MLOAD SWAP1 DUP2 ADD PUSH1 0x40 MSTORE DUP1 SWAP3 SWAP2 SWAP1 DUP2 DUP2 MSTORE PUSH1 0x20 ADD DUP3 DUP1 SLOAD PUSH2 0xB14 SWAP1 PUSH2 0x1A80 JUMP JUMPDEST DUP1 ISZERO PUSH2 0xB61 JUMPI DUP1 PUSH1 0x1F LT PUSH2 0xB36 JUMPI PUSH2 0x100 DUP1 DUP4 SLOAD DIV MUL DUP4 MSTORE SWAP2 PUSH1 0x20 ADD SWAP2 PUSH2 0xB61 JUMP JUMPDEST DUP3 ADD SWAP2 SWAP1 PUSH1 0x0 MSTORE PUSH1 0x20 PUSH1 0x0 KECCAK256 SWAP1 JUMPDEST DUP2 SLOAD DUP2 MSTORE SWAP1 PUSH1 0x1 ADD SWAP1 PUSH1 0x20 ADD DUP1 DUP4 GT PUSH2 0xB44 JUMPI DUP3 SWAP1 SUB PUSH1 0x1F AND DUP3 ADD SWAP2 JUMPDEST POP POP POP POP POP DUP2 JUMP JUMPDEST PUSH1 0x0 PUSH1 0x6 DUP3 DUP2 SLOAD DUP2 LT PUSH2 0xB7F JUMPI PUSH2 0xB7E PUSH2 0x1B89 JUMP JUMPDEST JUMPDEST SWAP1 PUSH1 0x0 MSTORE PUSH1 0x20 PUSH1 0x0 KECCAK256 ADD PUSH1 0x0 SWAP1 SLOAD SWAP1 PUSH2 0x100 EXP SWAP1 DIV PUSH20 0xFFFFFFFFFFFFFFFFFFFFFFFFFFFFFFFFFFFFFFFF AND SWAP1 POP SWAP2 SWAP1 POP JUMP JUMPDEST DUP1 PUSH1 0xC PUSH1 0x0 PUSH2 0x100 EXP DUP2 SLOAD DUP2 PUSH20 0xFFFFFFFFFFFFFFFFFFFFFFFFFFFFFFFFFFFFFFFF MUL NOT AND SWAP1 DUP4 PUSH20 0xFFFFFFFFFFFFFFFFFFFFFFFFFFFFFFFFFFFFFFFF AND MUL OR SWAP1 SSTORE POP POP JUMP JUMPDEST PUSH1 0x1 ISZERO ISZERO PUSH2 0xC0D CALLER PUSH1 0x0 PUSH2 0x13D6 SWAP1 SWAP2 SWAP1 PUSH4 0xFFFFFFFF AND JUMP JUMPDEST ISZERO ISZERO EQ PUSH2 0xC4F JUMPI PUSH1 0x40 MLOAD PUSH32 0x8C379A000000000000000000000000000000000000000000000000000000000 DUP2 MSTORE PUSH1 0x4 ADD PUSH2 0xC46 SWAP1 PUSH2 0x1B69 JUMP JUMPDEST PUSH1 0x40 MLOAD DUP1 SWAP2 SUB SWAP1 REVERT JUMPDEST PUSH2 0xC63 DUP2 PUSH1 0x2 PUSH2 0x132E SWAP1 SWAP2 SWAP1 PUSH4 0xFFFFFFFF AND JUMP JUMPDEST POP JUMP JUMPDEST PUSH1 0x0 CALLER SWAP1 POP SWAP1 JUMP JUMPDEST PUSH1 0x0 PUSH1 0xA PUSH1 0x0 SWAP1 SLOAD SWAP1 PUSH2 0x100 EXP SWAP1 DIV PUSH20 0xFFFFFFFFFFFFFFFFFFFFFFFFFFFFFFFFFFFFFFFF AND SWAP1 POP SWAP1 JUMP JUMPDEST PUSH1 0x60 PUSH2 0xCAE DUP3 PUSH1 0x2 PUSH2 0x13D6 SWAP1 SWAP2 SWAP1 PUSH4 0xFFFFFFFF AND JUMP JUMPDEST PUSH2 0xCED JUMPI PUSH1 0x40 MLOAD PUSH32 0x8C379A000000000000000000000000000000000000000000000000000000000 DUP2 MSTORE PUSH1 0x4 ADD PUSH2 0xCE4 SWAP1 PUSH2 0x1C04 JUMP JUMPDEST PUSH1 0x40 MLOAD DUP1 SWAP2 SUB SWAP1 REVERT JUMPDEST PUSH1 0x40 MLOAD DUP1 PUSH1 0x40 ADD PUSH1 0x40 MSTORE DUP1 PUSH1 0x1 DUP2 MSTORE PUSH1 0x20 ADD PUSH32 0x3100000000000000000000000000000000000000000000000000000000000000 DUP2 MSTORE POP SWAP1 POP SWAP2 SWAP1 POP JUMP JUMPDEST PUSH1 0x0 PUSH1 0x6 DUP1 SLOAD SWAP1 POP SWAP1 POP SWAP1 JUMP JUMPDEST PUSH1 0x60 PUSH1 0x3 PUSH1 0x0 PUSH1 0xC PUSH1 0x0 SWAP1 SLOAD SWAP1 PUSH2 0x100 EXP SWAP1 DIV PUSH20 0xFFFFFFFFFFFFFFFFFFFFFFFFFFFFFFFFFFFFFFFF AND PUSH20 0xFFFFFFFFFFFFFFFFFFFFFFFFFFFFFFFFFFFFFFFF AND PUSH20 0xFFFFFFFFFFFFFFFFFFFFFFFFFFFFFFFFFFFFFFFF AND DUP2 MSTORE PUSH1 0x20 ADD SWAP1 DUP2 MSTORE PUSH1 0x20 ADD PUSH1 0x0 KECCAK256 PUSH1 0x0 ADD DUP1 SLOAD PUSH2 0xDA8 SWAP1 PUSH2 0x1A80 JUMP JUMPDEST DUP1 PUSH1 0x1F ADD PUSH1 0x20 DUP1 SWAP2 DIV MUL PUSH1 0x20 ADD PUSH1 0x40 MLOAD SWAP1 DUP2 ADD PUSH1 0x40 MSTORE DUP1 SWAP3 SWAP2 SWAP1 DUP2 DUP2 MSTORE PUSH1 0x20 ADD DUP3 DUP1 SLOAD PUSH2 0xDD4 SWAP1 PUSH2 0x1A80 JUMP JUMPDEST DUP1 ISZERO PUSH2 0xE21 JUMPI DUP1 PUSH1 0x1F LT PUSH2 0xDF6 JUMPI PUSH2 0x100 DUP1 DUP4 SLOAD DIV MUL DUP4 MSTORE SWAP2 PUSH1 0x20 ADD SWAP2 PUSH2 0xE21 JUMP JUMPDEST DUP3 ADD SWAP2 SWAP1 PUSH1 0x0 MSTORE PUSH1 0x20 PUSH1 0x0 KECCAK256 SWAP1 JUMPDEST DUP2 SLOAD DUP2 MSTORE SWAP1 PUSH1 0x1 ADD SWAP1 PUSH1 0x20 ADD DUP1 DUP4 GT PUSH2 0xE04 JUMPI DUP3 SWAP1 SUB PUSH1 0x1F AND DUP3 ADD SWAP2 JUMPDEST POP POP POP POP POP SWAP1 POP SWAP1 JUMP JUMPDEST PUSH1 0x1 ISZERO ISZERO PUSH2 0xE43 CALLER PUSH1 0x0 PUSH2 0x13D6 SWAP1 SWAP2 SWAP1 PUSH4 0xFFFFFFFF AND JUMP JUMPDEST ISZERO ISZERO EQ PUSH2 0xE85 JUMPI PUSH1 0x40 MLOAD PUSH32 0x8C379A000000000000000000000000000000000000000000000000000000000 DUP2 MSTORE PUSH1 0x4 ADD PUSH2 0xE7C SWAP1 PUSH2 0x1B69 JUMP JUMPDEST PUSH1 0x40 MLOAD DUP1 SWAP2 SUB SWAP1 REVERT JUMPDEST PUSH2 0xE99 DUP2 PUSH1 0x2 PUSH2 0x149D SWAP1 SWAP2 SWAP1 PUSH4 0xFFFFFFFF AND JUMP JUMPDEST POP JUMP JUMPDEST PUSH1 0x60 PUSH2 0xEB2 DUP3 PUSH1 0x1 PUSH2 0x13D6 SWAP1 SWAP2 SWAP1 PUSH4 0xFFFFFFFF AND JUMP JUMPDEST PUSH2 0xEF1 JUMPI PUSH1 0x40 MLOAD PUSH32 0x8C379A000000000000000000000000000000000000000000000000000000000 DUP2 MSTORE PUSH1 0x4 ADD PUSH2 0xEE8 SWAP1 PUSH2 0x1C04 JUMP JUMPDEST PUSH1 0x40 MLOAD DUP1 SWAP2 SUB SWAP1 REVERT JUMPDEST PUSH1 0x40 MLOAD DUP1 PUSH1 0x40 ADD PUSH1 0x40 MSTORE DUP1 PUSH1 0x1 DUP2 MSTORE PUSH1 0x20 ADD PUSH32 0x3100000000000000000000000000000000000000000000000000000000000000 DUP2 MSTORE POP SWAP1 POP SWAP2 SWAP1 POP JUMP JUMPDEST PUSH1 0x6 DUP2 DUP2 SLOAD DUP2 LT PUSH2 0xF3E JUMPI PUSH1 0x0 DUP1 REVERT JUMPDEST SWAP1 PUSH1 0x0 MSTORE PUSH1 0x20 PUSH1 0x0 KECCAK256 ADD PUSH1 0x0 SWAP2 POP SLOAD SWAP1 PUSH2 0x100 EXP SWAP1 DIV PUSH20 0xFFFFFFFFFFFFFFFFFFFFFFFFFFFFFFFFFFFFFFFF AND DUP2 JUMP JUMPDEST PUSH1 0x60 PUSH1 0x4 PUSH1 0x0 DUP4 PUSH20 0xFFFFFFFFFFFFFFFFFFFFFFFFFFFFFFFFFFFFFFFF AND PUSH20 0xFFFFFFFFFFFFFFFFFFFFFFFFFFFFFFFFFFFFFFFF AND DUP2 MSTORE PUSH1 0x20 ADD SWAP1 DUP2 MSTORE PUSH1 0x20 ADD PUSH1 0x0 KECCAK256 PUSH1 0x0 ADD DUP1 SLOAD PUSH2 0xFBC SWAP1 PUSH2 0x1A80 JUMP JUMPDEST DUP1 PUSH1 0x1F ADD PUSH1 0x20 DUP1 SWAP2 DIV MUL PUSH1 0x20 ADD PUSH1 0x40 MLOAD SWAP1 DUP2 ADD PUSH1 0x40 MSTORE DUP1 SWAP3 SWAP2 SWAP1 DUP2 DUP2 MSTORE PUSH1 0x20 ADD DUP3 DUP1 SLOAD PUSH2 0xFE8 SWAP1 PUSH2 0x1A80 JUMP JUMPDEST DUP1 ISZERO PUSH2 0x1035 JUMPI DUP1 PUSH1 0x1F LT PUSH2 0x100A JUMPI PUSH2 0x100 DUP1 DUP4 SLOAD DIV MUL DUP4 MSTORE SWAP2 PUSH1 0x20 ADD SWAP2 PUSH2 0x1035 JUMP JUMPDEST DUP3 ADD SWAP2 SWAP1 PUSH1 0x0 MSTORE PUSH1 0x20 PUSH1 0x0 KECCAK256 SWAP1 JUMPDEST DUP2 SLOAD DUP2 MSTORE SWAP1 PUSH1 0x1 ADD SWAP1 PUSH1 0x20 ADD DUP1 DUP4 GT PUSH2 0x1018 JUMPI DUP3 SWAP1 SUB PUSH1 0x1F AND DUP3 ADD SWAP2 JUMPDEST POP POP POP POP POP SWAP1 POP SWAP2 SWAP1 POP JUMP JUMPDEST PUSH1 0x1 ISZERO ISZERO PUSH2 0x1059 CALLER PUSH1 0x1 PUSH2 0x13D6 SWAP1 SWAP2 SWAP1 PUSH4 0xFFFFFFFF AND JUMP JUMPDEST ISZERO ISZERO EQ PUSH2 0x109B JUMPI PUSH1 0x40 MLOAD PUSH32 0x8C379A000000000000000000000000000000000000000000000000000000000 DUP2 MSTORE PUSH1 0x4 ADD PUSH2 0x1092 SWAP1 PUSH2 0x1C70 JUMP JUMPDEST PUSH1 0x40 MLOAD DUP1 SWAP2 SUB SWAP1 REVERT JUMPDEST PUSH1 0x1 ISZERO ISZERO PUSH2 0x10B3 DUP3 PUSH1 0x2 PUSH2 0x13D6 SWAP1 SWAP2 SWAP1 PUSH4 0xFFFFFFFF AND JUMP JUMPDEST ISZERO ISZERO EQ PUSH2 0x10F5 JUMPI PUSH1 0x40 MLOAD PUSH32 0x8C379A000000000000000000000000000000000000000000000000000000000 DUP2 MSTORE PUSH1 0x4 ADD PUSH2 0x10EC SWAP1 PUSH2 0x1CDC JUMP JUMPDEST PUSH1 0x40 MLOAD DUP1 SWAP2 SUB SWAP1 REVERT JUMPDEST DUP1 PUSH1 0xB PUSH1 0x0 PUSH2 0x100 EXP DUP2 SLOAD DUP2 PUSH20 0xFFFFFFFFFFFFFFFFFFFFFFFFFFFFFFFFFFFFFFFF MUL NOT AND SWAP1 DUP4 PUSH20 0xFFFFFFFFFFFFFFFFFFFFFFFFFFFFFFFFFFFFFFFF AND MUL OR SWAP1 SSTORE POP POP JUMP JUMPDEST PUSH1 0x60 PUSH1 0x3 PUSH1 0x0 DUP4 PUSH20 0xFFFFFFFFFFFFFFFFFFFFFFFFFFFFFFFFFFFFFFFF AND PUSH20 0xFFFFFFFFFFFFFFFFFFFFFFFFFFFFFFFFFFFFFFFF AND DUP2 MSTORE PUSH1 0x20 ADD SWAP1 DUP2 MSTORE PUSH1 0x20 ADD PUSH1 0x0 KECCAK256 PUSH1 0x0 ADD DUP1 SLOAD PUSH2 0x1188 SWAP1 PUSH2 0x1A80 JUMP JUMPDEST DUP1 PUSH1 0x1F ADD PUSH1 0x20 DUP1 SWAP2 DIV MUL PUSH1 0x20 ADD PUSH1 0x40 MLOAD SWAP1 DUP2 ADD PUSH1 0x40 MSTORE DUP1 SWAP3 SWAP2 SWAP1 DUP2 DUP2 MSTORE PUSH1 0x20 ADD DUP3 DUP1 SLOAD PUSH2 0x11B4 SWAP1 PUSH2 0x1A80 JUMP JUMPDEST DUP1 ISZERO PUSH2 0x1201 JUMPI DUP1 PUSH1 0x1F LT PUSH2 0x11D6 JUMPI PUSH2 0x100 DUP1 DUP4 SLOAD DIV MUL DUP4 MSTORE SWAP2 PUSH1 0x20 ADD SWAP2 PUSH2 0x1201 JUMP JUMPDEST DUP3 ADD SWAP2 SWAP1 PUSH1 0x0 MSTORE PUSH1 0x20 PUSH1 0x0 KECCAK256 SWAP1 JUMPDEST DUP2 SLOAD DUP2 MSTORE SWAP1 PUSH1 0x1 ADD SWAP1 PUSH1 0x20 ADD DUP1 DUP4 GT PUSH2 0x11E4 JUMPI DUP3 SWAP1 SUB PUSH1 0x1F AND DUP3 ADD SWAP2 JUMPDEST POP POP POP POP POP SWAP1 POP SWAP2 SWAP1 POP JUMP JUMPDEST PUSH1 0x0 PUSH1 0xB PUSH1 0x0 SWAP1 SLOAD SWAP1 PUSH2 0x100 EXP SWAP1 DIV PUSH20 0xFFFFFFFFFFFFFFFFFFFFFFFFFFFFFFFFFFFFFFFF AND SWAP1 POP SWAP1 JUMP JUMPDEST PUSH1 0x1 ISZERO ISZERO PUSH2 0x124F CALLER PUSH1 0x1 PUSH2 0x13D6 SWAP1 SWAP2 SWAP1 PUSH4 0xFFFFFFFF AND JUMP JUMPDEST ISZERO ISZERO EQ PUSH2 0x1291 JUMPI PUSH1 0x40 MLOAD PUSH32 0x8C379A000000000000000000000000000000000000000000000000000000000 DUP2 MSTORE PUSH1 0x4 ADD PUSH2 0x1288 SWAP1 PUSH2 0x1C70 JUMP JUMPDEST PUSH1 0x40 MLOAD DUP1 SWAP2 SUB SWAP1 REVERT JUMPDEST PUSH1 0x0 PUSH1 0x5 PUSH1 0x0 DUP4 PUSH20 0xFFFFFFFFFFFFFFFFFFFFFFFFFFFFFFFFFFFFFFFF AND PUSH20 0xFFFFFFFFFFFFFFFFFFFFFFFFFFFFFFFFFFFFFFFF AND DUP2 MSTORE PUSH1 0x20 ADD SWAP1 DUP2 MSTORE PUSH1 0x20 ADD PUSH1 0x0 KECCAK256 SWAP1 POP DUP3 DUP2 PUSH1 0x0 ADD SWAP1 DUP1 MLOAD SWAP1 PUSH1 0x20 ADD SWAP1 PUSH2 0x12EC SWAP3 SWAP2 SWAP1 PUSH2 0x1544 JUMP JUMPDEST POP PUSH1 0x8 DUP4 SWAP1 DUP1 PUSH1 0x1 DUP2 SLOAD ADD DUP1 DUP3 SSTORE DUP1 SWAP2 POP POP PUSH1 0x1 SWAP1 SUB SWAP1 PUSH1 0x0 MSTORE PUSH1 0x20 PUSH1 0x0 KECCAK256 ADD PUSH1 0x0 SWAP1 SWAP2 SWAP1 SWAP2 SWAP1 SWAP2 POP SWAP1 DUP1 MLOAD SWAP1 PUSH1 0x20 ADD SWAP1 PUSH2 0x1328 SWAP3 SWAP2 SWAP1 PUSH2 0x1544 JUMP JUMPDEST POP POP POP POP JUMP JUMPDEST PUSH2 0x1338 DUP3 DUP3 PUSH2 0x13D6 JUMP JUMPDEST ISZERO PUSH2 0x1378 JUMPI PUSH1 0x40 MLOAD PUSH32 0x8C379A000000000000000000000000000000000000000000000000000000000 DUP2 MSTORE PUSH1 0x4 ADD PUSH2 0x136F SWAP1 PUSH2 0x1D48 JUMP JUMPDEST PUSH1 0x40 MLOAD DUP1 SWAP2 SUB SWAP1 REVERT JUMPDEST PUSH1 0x1 DUP3 PUSH1 0x0 ADD PUSH1 0x0 DUP4 PUSH20 0xFFFFFFFFFFFFFFFFFFFFFFFFFFFFFFFFFFFFFFFF AND PUSH20 0xFFFFFFFFFFFFFFFFFFFFFFFFFFFFFFFFFFFFFFFF AND DUP2 MSTORE PUSH1 0x20 ADD SWAP1 DUP2 MSTORE PUSH1 0x20 ADD PUSH1 0x0 KECCAK256 PUSH1 0x0 PUSH2 0x100 EXP DUP2 SLOAD DUP2 PUSH1 0xFF MUL NOT AND SWAP1 DUP4 ISZERO ISZERO MUL OR SWAP1 SSTORE POP POP POP JUMP JUMPDEST PUSH1 0x0 DUP1 PUSH20 0xFFFFFFFFFFFFFFFFFFFFFFFFFFFFFFFFFFFFFFFF AND DUP3 PUSH20 0xFFFFFFFFFFFFFFFFFFFFFFFFFFFFFFFFFFFFFFFF AND SUB PUSH2 0x1446 JUMPI PUSH1 0x40 MLOAD PUSH32 0x8C379A000000000000000000000000000000000000000000000000000000000 DUP2 MSTORE PUSH1 0x4 ADD PUSH2 0x143D SWAP1 PUSH2 0x1DDA JUMP JUMPDEST PUSH1 0x40 MLOAD DUP1 SWAP2 SUB SWAP1 REVERT JUMPDEST DUP3 PUSH1 0x0 ADD PUSH1 0x0 DUP4 PUSH20 0xFFFFFFFFFFFFFFFFFFFFFFFFFFFFFFFFFFFFFFFF AND PUSH20 0xFFFFFFFFFFFFFFFFFFFFFFFFFFFFFFFFFFFFFFFF AND DUP2 MSTORE PUSH1 0x20 ADD SWAP1 DUP2 MSTORE PUSH1 0x20 ADD PUSH1 0x0 KECCAK256 PUSH1 0x0 SWAP1 SLOAD SWAP1 PUSH2 0x100 EXP SWAP1 DIV PUSH1 0xFF AND SWAP1 POP SWAP3 SWAP2 POP POP JUMP JUMPDEST PUSH2 0x14A7 DUP3 DUP3 PUSH2 0x13D6 JUMP JUMPDEST PUSH2 0x14E6 JUMPI PUSH1 0x40 MLOAD PUSH32 0x8C379A000000000000000000000000000000000000000000000000000000000 DUP2 MSTORE PUSH1 0x4 ADD PUSH2 0x14DD SWAP1 PUSH2 0x1E6C JUMP JUMPDEST PUSH1 0x40 MLOAD DUP1 SWAP2 SUB SWAP1 REVERT JUMPDEST PUSH1 0x0 DUP3 PUSH1 0x0 ADD PUSH1 0x0 DUP4 PUSH20 0xFFFFFFFFFFFFFFFFFFFFFFFFFFFFFFFFFFFFFFFF AND PUSH20 0xFFFFFFFFFFFFFFFFFFFFFFFFFFFFFFFFFFFFFFFF AND DUP2 MSTORE PUSH1 0x20 ADD SWAP1 DUP2 MSTORE PUSH1 0x20 ADD PUSH1 0x0 KECCAK256 PUSH1 0x0 PUSH2 0x100 EXP DUP2 SLOAD DUP2 PUSH1 0xFF MUL NOT AND SWAP1 DUP4 ISZERO ISZERO MUL OR SWAP1 SSTORE POP POP POP JUMP JUMPDEST DUP3 DUP1 SLOAD PUSH2 0x1550 SWAP1 PUSH2 0x1A80 JUMP JUMPDEST SWAP1 PUSH1 0x0 MSTORE PUSH1 0x20 PUSH1 0x0 KECCAK256 SWAP1 PUSH1 0x1F ADD PUSH1 0x20 SWAP1 DIV DUP2 ADD SWAP3 DUP3 PUSH2 0x1572 JUMPI PUSH1 0x0 DUP6 SSTORE PUSH2 0x15B9 JUMP JUMPDEST DUP3 PUSH1 0x1F LT PUSH2 0x158B JUMPI DUP1 MLOAD PUSH1 0xFF NOT AND DUP4 DUP1 ADD OR DUP6 SSTORE PUSH2 0x15B9 JUMP JUMPDEST DUP3 DUP1 ADD PUSH1 0x1 ADD DUP6 SSTORE DUP3 ISZERO PUSH2 0x15B9 JUMPI SWAP2 DUP3 ADD JUMPDEST DUP3 DUP2 GT ISZERO PUSH2 0x15B8 JUMPI DUP3 MLOAD DUP3 SSTORE SWAP2 PUSH1 0x20 ADD SWAP2 SWAP1 PUSH1 0x1 ADD SWAP1 PUSH2 0x159D JUMP JUMPDEST JUMPDEST POP SWAP1 POP PUSH2 0x15C6 SWAP2 SWAP1 PUSH2 0x15CA JUMP JUMPDEST POP SWAP1 JUMP JUMPDEST JUMPDEST DUP1 DUP3 GT ISZERO PUSH2 0x15E3 JUMPI PUSH1 0x0 DUP2 PUSH1 0x0 SWAP1 SSTORE POP PUSH1 0x1 ADD PUSH2 0x15CB JUMP JUMPDEST POP SWAP1 JUMP JUMPDEST PUSH1 0x0 PUSH1 0x40 MLOAD SWAP1 POP SWAP1 JUMP JUMPDEST PUSH1 0x0 DUP1 REVERT JUMPDEST PUSH1 0x0 DUP1 REVERT JUMPDEST PUSH1 0x0 PUSH20 0xFFFFFFFFFFFFFFFFFFFFFFFFFFFFFFFFFFFFFFFF DUP3 AND SWAP1 POP SWAP2 SWAP1 POP JUMP JUMPDEST PUSH1 0x0 PUSH2 0x1626 DUP3 PUSH2 0x15FB JUMP JUMPDEST SWAP1 POP SWAP2 SWAP1 POP JUMP JUMPDEST PUSH2 0x1636 DUP2 PUSH2 0x161B JUMP JUMPDEST DUP2 EQ PUSH2 0x1641 JUMPI PUSH1 0x0 DUP1 REVERT JUMPDEST POP JUMP JUMPDEST PUSH1 0x0 DUP2 CALLDATALOAD SWAP1 POP PUSH2 0x1653 DUP2 PUSH2 0x162D JUMP JUMPDEST SWAP3 SWAP2 POP POP JUMP JUMPDEST PUSH1 0x0 PUSH1 0x20 DUP3 DUP5 SUB SLT ISZERO PUSH2 0x166F JUMPI PUSH2 0x166E PUSH2 0x15F1 JUMP JUMPDEST JUMPDEST PUSH1 0x0 PUSH2 0x167D DUP5 DUP3 DUP6 ADD PUSH2 0x1644 JUMP JUMPDEST SWAP2 POP POP SWAP3 SWAP2 POP POP JUMP JUMPDEST PUSH1 0x0 DUP1 REVERT JUMPDEST PUSH1 0x0 DUP1 REVERT JUMPDEST PUSH1 0x0 PUSH1 0x1F NOT PUSH1 0x1F DUP4 ADD AND SWAP1 POP SWAP2 SWAP1 POP JUMP JUMPDEST PUSH32 0x4E487B7100000000000000000000000000000000000000000000000000000000 PUSH1 0x0 MSTORE PUSH1 0x41 PUSH1 0x4 MSTORE PUSH1 0x24 PUSH1 0x0 REVERT JUMPDEST PUSH2 0x16D9 DUP3 PUSH2 0x1690 JUMP JUMPDEST DUP2 ADD DUP2 DUP2 LT PUSH8 0xFFFFFFFFFFFFFFFF DUP3 GT OR ISZERO PUSH2 0x16F8 JUMPI PUSH2 0x16F7 PUSH2 0x16A1 JUMP JUMPDEST JUMPDEST DUP1 PUSH1 0x40 MSTORE POP POP POP JUMP JUMPDEST PUSH1 0x0 PUSH2 0x170B PUSH2 0x15E7 JUMP JUMPDEST SWAP1 POP PUSH2 0x1717 DUP3 DUP3 PUSH2 0x16D0 JUMP JUMPDEST SWAP2 SWAP1 POP JUMP JUMPDEST PUSH1 0x0 PUSH8 0xFFFFFFFFFFFFFFFF DUP3 GT ISZERO PUSH2 0x1737 JUMPI PUSH2 0x1736 PUSH2 0x16A1 JUMP JUMPDEST JUMPDEST PUSH2 0x1740 DUP3 PUSH2 0x1690 JUMP JUMPDEST SWAP1 POP PUSH1 0x20 DUP2 ADD SWAP1 POP SWAP2 SWAP1 POP JUMP JUMPDEST DUP3 DUP2 DUP4 CALLDATACOPY PUSH1 0x0 DUP4 DUP4 ADD MSTORE POP POP POP JUMP JUMPDEST PUSH1 0x0 PUSH2 0x176F PUSH2 0x176A DUP5 PUSH2 0x171C JUMP JUMPDEST PUSH2 0x1701 JUMP JUMPDEST SWAP1 POP DUP3 DUP2 MSTORE PUSH1 0x20 DUP2 ADD DUP5 DUP5 DUP5 ADD GT ISZERO PUSH2 0x178B JUMPI PUSH2 0x178A PUSH2 0x168B JUMP JUMPDEST JUMPDEST PUSH2 0x1796 DUP5 DUP3 DUP6 PUSH2 0x174D JUMP JUMPDEST POP SWAP4 SWAP3 POP POP POP JUMP JUMPDEST PUSH1 0x0 DUP3 PUSH1 0x1F DUP4 ADD SLT PUSH2 0x17B3 JUMPI PUSH2 0x17B2 PUSH2 0x1686 JUMP JUMPDEST JUMPDEST DUP2 CALLDATALOAD PUSH2 0x17C3 DUP5 DUP3 PUSH1 0x20 DUP7 ADD PUSH2 0x175C JUMP JUMPDEST SWAP2 POP POP SWAP3 SWAP2 POP POP JUMP JUMPDEST PUSH1 0x0 DUP1 PUSH1 0x40 DUP4 DUP6 SUB SLT ISZERO PUSH2 0x17E3 JUMPI PUSH2 0x17E2 PUSH2 0x15F1 JUMP JUMPDEST JUMPDEST PUSH1 0x0 PUSH2 0x17F1 DUP6 DUP3 DUP7 ADD PUSH2 0x1644 JUMP JUMPDEST SWAP3 POP POP PUSH1 0x20 DUP4 ADD CALLDATALOAD PUSH8 0xFFFFFFFFFFFFFFFF DUP2 GT ISZERO PUSH2 0x1812 JUMPI PUSH2 0x1811 PUSH2 0x15F6 JUMP JUMPDEST JUMPDEST PUSH2 0x181E DUP6 DUP3 DUP7 ADD PUSH2 0x179E JUMP JUMPDEST SWAP2 POP POP SWAP3 POP SWAP3 SWAP1 POP JUMP JUMPDEST PUSH1 0x0 DUP2 MLOAD SWAP1 POP SWAP2 SWAP1 POP JUMP JUMPDEST PUSH1 0x0 DUP3 DUP3 MSTORE PUSH1 0x20 DUP3 ADD SWAP1 POP SWAP3 SWAP2 POP POP JUMP JUMPDEST PUSH1 0x0 JUMPDEST DUP4 DUP2 LT ISZERO PUSH2 0x1862 JUMPI DUP1 DUP3 ADD MLOAD DUP2 DUP5 ADD MSTORE PUSH1 0x20 DUP2 ADD SWAP1 POP PUSH2 0x1847 JUMP JUMPDEST DUP4 DUP2 GT ISZERO PUSH2 0x1871 JUMPI PUSH1 0x0 DUP5 DUP5 ADD MSTORE JUMPDEST POP POP POP POP JUMP JUMPDEST PUSH1 0x0 PUSH2 0x1882 DUP3 PUSH2 0x1828 JUMP JUMPDEST PUSH2 0x188C DUP2 DUP6 PUSH2 0x1833 JUMP JUMPDEST SWAP4 POP PUSH2 0x189C DUP2 DUP6 PUSH1 0x20 DUP7 ADD PUSH2 0x1844 JUMP JUMPDEST PUSH2 0x18A5 DUP2 PUSH2 0x1690 JUMP JUMPDEST DUP5 ADD SWAP2 POP POP SWAP3 SWAP2 POP POP JUMP JUMPDEST PUSH1 0x0 PUSH1 0x20 DUP3 ADD SWAP1 POP DUP2 DUP2 SUB PUSH1 0x0 DUP4 ADD MSTORE PUSH2 0x18CA DUP2 DUP5 PUSH2 0x1877 JUMP JUMPDEST SWAP1 POP SWAP3 SWAP2 POP POP JUMP JUMPDEST PUSH2 0x18DB DUP2 PUSH2 0x161B JUMP JUMPDEST DUP3 MSTORE POP POP JUMP JUMPDEST PUSH1 0x0 PUSH1 0x20 DUP3 ADD SWAP1 POP PUSH2 0x18F6 PUSH1 0x0 DUP4 ADD DUP5 PUSH2 0x18D2 JUMP JUMPDEST SWAP3 SWAP2 POP POP JUMP JUMPDEST PUSH1 0x0 DUP2 SWAP1 POP SWAP2 SWAP1 POP JUMP JUMPDEST PUSH2 0x190F DUP2 PUSH2 0x18FC JUMP JUMPDEST DUP2 EQ PUSH2 0x191A JUMPI PUSH1 0x0 DUP1 REVERT JUMPDEST POP JUMP JUMPDEST PUSH1 0x0 DUP2 CALLDATALOAD SWAP1 POP PUSH2 0x192C DUP2 PUSH2 0x1906 JUMP JUMPDEST SWAP3 SWAP2 POP POP JUMP JUMPDEST PUSH1 0x0 PUSH1 0x20 DUP3 DUP5 SUB SLT ISZERO PUSH2 0x1948 JUMPI PUSH2 0x1947 PUSH2 0x15F1 JUMP JUMPDEST JUMPDEST PUSH1 0x0 PUSH2 0x1956 DUP5 DUP3 DUP6 ADD PUSH2 0x191D JUMP JUMPDEST SWAP2 POP POP SWAP3 SWAP2 POP POP JUMP JUMPDEST PUSH2 0x1968 DUP2 PUSH2 0x18FC JUMP JUMPDEST DUP3 MSTORE POP POP JUMP JUMPDEST PUSH1 0x0 PUSH1 0x20 DUP3 ADD SWAP1 POP PUSH2 0x1983 PUSH1 0x0 DUP4 ADD DUP5 PUSH2 0x195F JUMP JUMPDEST SWAP3 SWAP2 POP POP JUMP JUMPDEST PUSH1 0x0 DUP1 PUSH1 0x40 DUP4 DUP6 SUB SLT ISZERO PUSH2 0x19A0 JUMPI PUSH2 0x199F PUSH2 0x15F1 JUMP JUMPDEST JUMPDEST PUSH1 0x0 DUP4 ADD CALLDATALOAD PUSH8 0xFFFFFFFFFFFFFFFF DUP2 GT ISZERO PUSH2 0x19BE JUMPI PUSH2 0x19BD PUSH2 0x15F6 JUMP JUMPDEST JUMPDEST PUSH2 0x19CA DUP6 DUP3 DUP7 ADD PUSH2 0x179E JUMP JUMPDEST SWAP3 POP POP PUSH1 0x20 PUSH2 0x19DB DUP6 DUP3 DUP7 ADD PUSH2 0x1644 JUMP JUMPDEST SWAP2 POP POP SWAP3 POP SWAP3 SWAP1 POP JUMP JUMPDEST PUSH32 0x4F6E6C7920796F752043616E2041646420796F757220696E666F200000000000 PUSH1 0x0 DUP3 ADD MSTORE POP JUMP JUMPDEST PUSH1 0x0 PUSH2 0x1A1B PUSH1 0x1B DUP4 PUSH2 0x1833 JUMP JUMPDEST SWAP2 POP PUSH2 0x1A26 DUP3 PUSH2 0x19E5 JUMP JUMPDEST PUSH1 0x20 DUP3 ADD SWAP1 POP SWAP2 SWAP1 POP JUMP JUMPDEST PUSH1 0x0 PUSH1 0x20 DUP3 ADD SWAP1 POP DUP2 DUP2 SUB PUSH1 0x0 DUP4 ADD MSTORE PUSH2 0x1A4A DUP2 PUSH2 0x1A0E JUMP JUMPDEST SWAP1 POP SWAP2 SWAP1 POP JUMP JUMPDEST PUSH32 0x4E487B7100000000000000000000000000000000000000000000000000000000 PUSH1 0x0 MSTORE PUSH1 0x22 PUSH1 0x4 MSTORE PUSH1 0x24 PUSH1 0x0 REVERT JUMPDEST PUSH1 0x0 PUSH1 0x2 DUP3 DIV SWAP1 POP PUSH1 0x1 DUP3 AND DUP1 PUSH2 0x1A98 JUMPI PUSH1 0x7F DUP3 AND SWAP2 POP JUMPDEST PUSH1 0x20 DUP3 LT DUP2 SUB PUSH2 0x1AAB JUMPI PUSH2 0x1AAA PUSH2 0x1A51 JUMP JUMPDEST JUMPDEST POP SWAP2 SWAP1 POP JUMP JUMPDEST PUSH32 0x4F6E6C7920466F7220446F63746F720000000000000000000000000000000000 PUSH1 0x0 DUP3 ADD MSTORE POP JUMP JUMPDEST PUSH1 0x0 PUSH2 0x1AE7 PUSH1 0xF DUP4 PUSH2 0x1833 JUMP JUMPDEST SWAP2 POP PUSH2 0x1AF2 DUP3 PUSH2 0x1AB1 JUMP JUMPDEST PUSH1 0x20 DUP3 ADD SWAP1 POP SWAP2 SWAP1 POP JUMP JUMPDEST PUSH1 0x0 PUSH1 0x20 DUP3 ADD SWAP1 POP DUP2 DUP2 SUB PUSH1 0x0 DUP4 ADD MSTORE PUSH2 0x1B16 DUP2 PUSH2 0x1ADA JUMP JUMPDEST SWAP1 POP SWAP2 SWAP1 POP JUMP JUMPDEST PUSH32 0x4F6E6C792041646D696E2043616E20446F205468617400000000000000000000 PUSH1 0x0 DUP3 ADD MSTORE POP JUMP JUMPDEST PUSH1 0x0 PUSH2 0x1B53 PUSH1 0x16 DUP4 PUSH2 0x1833 JUMP JUMPDEST SWAP2 POP PUSH2 0x1B5E DUP3 PUSH2 0x1B1D JUMP JUMPDEST PUSH1 0x20 DUP3 ADD SWAP1 POP SWAP2 SWAP1 POP JUMP JUMPDEST PUSH1 0x0 PUSH1 0x20 DUP3 ADD SWAP1 POP DUP2 DUP2 SUB PUSH1 0x0 DUP4 ADD MSTORE PUSH2 0x1B82 DUP2 PUSH2 0x1B46 JUMP JUMPDEST SWAP1 POP SWAP2 SWAP1 POP JUMP JUMPDEST PUSH32 0x4E487B7100000000000000000000000000000000000000000000000000000000 PUSH1 0x0 MSTORE PUSH1 0x32 PUSH1 0x4 MSTORE PUSH1 0x24 PUSH1 0x0 REVERT JUMPDEST PUSH32 0x4F6E6C7920666F7220446F63746F727300000000000000000000000000000000 PUSH1 0x0 DUP3 ADD MSTORE POP JUMP JUMPDEST PUSH1 0x0 PUSH2 0x1BEE PUSH1 0x10 DUP4 PUSH2 0x1833 JUMP JUMPDEST SWAP2 POP PUSH2 0x1BF9 DUP3 PUSH2 0x1BB8 JUMP JUMPDEST PUSH1 0x20 DUP3 ADD SWAP1 POP SWAP2 SWAP1 POP JUMP JUMPDEST PUSH1 0x0 PUSH1 0x20 DUP3 ADD SWAP1 POP DUP2 DUP2 SUB PUSH1 0x0 DUP4 ADD MSTORE PUSH2 0x1C1D DUP2 PUSH2 0x1BE1 JUMP JUMPDEST SWAP1 POP SWAP2 SWAP1 POP JUMP JUMPDEST PUSH32 0x4F6E6C7920446F63746F722043616E20446F2054686174000000000000000000 PUSH1 0x0 DUP3 ADD MSTORE POP JUMP JUMPDEST PUSH1 0x0 PUSH2 0x1C5A PUSH1 0x17 DUP4 PUSH2 0x1833 JUMP JUMPDEST SWAP2 POP PUSH2 0x1C65 DUP3 PUSH2 0x1C24 JUMP JUMPDEST PUSH1 0x20 DUP3 ADD SWAP1 POP SWAP2 SWAP1 POP JUMP JUMPDEST PUSH1 0x0 PUSH1 0x20 DUP3 ADD SWAP1 POP DUP2 DUP2 SUB PUSH1 0x0 DUP4 ADD MSTORE PUSH2 0x1C89 DUP2 PUSH2 0x1C4D JUMP JUMPDEST SWAP1 POP SWAP2 SWAP1 POP JUMP JUMPDEST PUSH32 0x6973206E6F7420612050617469656E7400000000000000000000000000000000 PUSH1 0x0 DUP3 ADD MSTORE POP JUMP JUMPDEST PUSH1 0x0 PUSH2 0x1CC6 PUSH1 0x10 DUP4 PUSH2 0x1833 JUMP JUMPDEST SWAP2 POP PUSH2 0x1CD1 DUP3 PUSH2 0x1C90 JUMP JUMPDEST PUSH1 0x20 DUP3 ADD SWAP1 POP SWAP2 SWAP1 POP JUMP JUMPDEST PUSH1 0x0 PUSH1 0x20 DUP3 ADD SWAP1 POP DUP2 DUP2 SUB PUSH1 0x0 DUP4 ADD MSTORE PUSH2 0x1CF5 DUP2 PUSH2 0x1CB9 JUMP JUMPDEST SWAP1 POP SWAP2 SWAP1 POP JUMP JUMPDEST PUSH32 0x526F6C65733A206163636F756E7420616C72656164792068617320726F6C6500 PUSH1 0x0 DUP3 ADD MSTORE POP JUMP JUMPDEST PUSH1 0x0 PUSH2 0x1D32 PUSH1 0x1F DUP4 PUSH2 0x1833 JUMP JUMPDEST SWAP2 POP PUSH2 0x1D3D DUP3 PUSH2 0x1CFC JUMP JUMPDEST PUSH1 0x20 DUP3 ADD SWAP1 POP SWAP2 SWAP1 POP JUMP JUMPDEST PUSH1 0x0 PUSH1 0x20 DUP3 ADD SWAP1 POP DUP2 DUP2 SUB PUSH1 0x0 DUP4 ADD MSTORE PUSH2 0x1D61 DUP2 PUSH2 0x1D25 JUMP JUMPDEST SWAP1 POP SWAP2 SWAP1 POP JUMP JUMPDEST PUSH32 0x526F6C65733A206163636F756E7420697320746865207A65726F206164647265 PUSH1 0x0 DUP3 ADD MSTORE PUSH32 0x7373000000000000000000000000000000000000000000000000000000000000 PUSH1 0x20 DUP3 ADD MSTORE POP JUMP JUMPDEST PUSH1 0x0 PUSH2 0x1DC4 PUSH1 0x22 DUP4 PUSH2 0x1833 JUMP JUMPDEST SWAP2 POP PUSH2 0x1DCF DUP3 PUSH2 0x1D68 JUMP JUMPDEST PUSH1 0x40 DUP3 ADD SWAP1 POP SWAP2 SWAP1 POP JUMP JUMPDEST PUSH1 0x0 PUSH1 0x20 DUP3 ADD SWAP1 POP DUP2 DUP2 SUB PUSH1 0x0 DUP4 ADD MSTORE PUSH2 0x1DF3 DUP2 PUSH2 0x1DB7 JUMP JUMPDEST SWAP1 POP SWAP2 SWAP1 POP JUMP JUMPDEST PUSH32 0x526F6C65733A206163636F756E7420646F6573206E6F74206861766520726F6C PUSH1 0x0 DUP3 ADD MSTORE PUSH32 0x6500000000000000000000000000000000000000000000000000000000000000 PUSH1 0x20 DUP3 ADD MSTORE POP JUMP JUMPDEST PUSH1 0x0 PUSH2 0x1E56 PUSH1 0x21 DUP4 PUSH2 0x1833 JUMP JUMPDEST SWAP2 POP PUSH2 0x1E61 DUP3 PUSH2 0x1DFA JUMP JUMPDEST PUSH1 0x40 DUP3 ADD SWAP1 POP SWAP2 SWAP1 POP JUMP JUMPDEST PUSH1 0x0 PUSH1 0x20 DUP3 ADD SWAP1 POP DUP2 DUP2 SUB PUSH1 0x0 DUP4 ADD MSTORE PUSH2 0x1E85 DUP2 PUSH2 0x1E49 JUMP JUMPDEST SWAP1 POP SWAP2 SWAP1 POP JUMP INVALID LOG2 PUSH5 0x6970667358 0x22 SLT KECCAK256 0xB7 0xC7 0xC6 0xB0 JUMPI 0xE SELFDESTRUCT 0xE7 BALANCE 0xF PUSH13 0x7088235FFF8A394489CA7C7DFC JUMPDEST 0xA7 DUP13 LOG4 0xA6 0xEA SSTORE CALLDATASIZE PUSH5 0x736F6C6343 STOP ADDMOD 0xD STOP CALLER "
				},
				"gasEstimates": {
					"creation": {
						"codeDepositCost": "1574800",
						"executionCost": "infinite",
						"totalCost": "infinite"
					},
					"external": {
						"Dr_ids(uint256)": "5023",
						"Patient_ids(uint256)": "5090",
						"RecordHashes(uint256)": "infinite",
						"addDoctor(address)": "infinite",
						"addDrInfo(address,string)": "infinite",
						"addMedRecord(string,address)": "infinite",
						"addPatInfo(address,string)": "infinite",
						"addPatient(address)": "infinite",
						"addRec(address)": "infinite",
						"delDr(address)": "infinite",
						"delPat(address)": "infinite",
						"get()": "408",
						"getAdmin()": "2567",
						"getAllDrs(uint256)": "5034",
						"getDoctorCount()": "2534",
						"getDr(address)": "infinite",
						"getDrInfo()": "infinite",
						"getPatInfo(address)": "infinite",
						"get_drtid()": "2634",
						"get_patid()": "2610",
						"isDr(address)": "infinite",
						"isPat(address)": "infinite",
						"search(address)": "24811",
						"updateInfo(address,string)": "infinite",
						"viewMedRec()": "infinite",
						"viewPatRec(address)": "24746"
					}
				},
				"methodIdentifiers": {
					"Dr_ids(uint256)": "c979783f",
					"Patient_ids(uint256)": "2f4a4dcb",
					"RecordHashes(uint256)": "58dae14f",
					"addDoctor(address)": "4780468f",
					"addDrInfo(address,string)": "17335a95",
					"addMedRecord(string,address)": "f1a1d7d5",
					"addPatInfo(address,string)": "11f67285",
					"addPatient(address)": "6d263ceb",
					"addRec(address)": "d2fce6cc",
					"delDr(address)": "4fe6c950",
					"delPat(address)": "9fd06774",
					"get()": "6d4ce63c",
					"getAdmin()": "6e9960c3",
					"getAllDrs(uint256)": "5ea592b0",
					"getDoctorCount()": "79111c1c",
					"getDr(address)": "d4fd45c4",
					"getDrInfo()": "92bed5ce",
					"getPatInfo(address)": "cc572914",
					"get_drtid()": "1c7fb129",
					"get_patid()": "ddf8f98b",
					"isDr(address)": "be956873",
					"isPat(address)": "720d5b4b",
					"search(address)": "657a2512",
					"updateInfo(address,string)": "538b30ae",
					"viewMedRec()": "13d65d3a",
					"viewPatRec(address)": "047f66c3"
				}
			},
			"userdoc": {
				"kind": "user",
				"methods": {},
				"version": 1
			}
		}
	}
}